{"contracts/DisputeModule.sol":{"DisputeModule":{"abi":[{"inputs":[{"internalType":"address","name":"taskMarket_","type":"address"},{"internalType":"address[]","name":"initialResolvers","type":"address[]"}],"stateMutability":"nonpayable","type":"constructor"},{"anonymous":false,"inputs":[{"indexed":true,"internalType":"uint256","name":"taskId","type":"uint256"},{"indexed":true,"internalType":"address","name":"buyer","type":"address"},{"indexed":false,"internalType":"string","name":"disputeURI","type":"string"}],"name":"DisputeOpened","type":"event"},{"anonymous":false,"inputs":[{"indexed":true,"internalType":"uint256","name":"taskId","type":"uint256"},{"indexed":true,"internalType":"address","name":"resolver","type":"address"},{"indexed":false,"internalType":"enum ITaskMarket.DisputeOutcome","name":"outcome","type":"uint8"},{"indexed":false,"internalType":"string","name":"resolutionURI","type":"string"}],"name":"DisputeResolved","type":"event"},{"anonymous":false,"inputs":[{"indexed":true,"internalType":"address","name":"resolver","type":"address"},{"indexed":false,"internalType":"bool","name":"allowed","type":"bool"}],"name":"ResolverUpdated","type":"event"},{"inputs":[{"internalType":"uint256","name":"","type":"uint256"}],"name":"disputes","outputs":[{"internalType":"address","name":"buyer","type":"address"},{"internalType":"bool","name":"opened","type":"bool"},{"internalType":"bool","name":"resolved","type":"bool"},{"internalType":"string","name":"disputeURI","type":"string"},{"internalType":"string","name":"resolutionURI","type":"string"},{"internalType":"enum ITaskMarket.DisputeOutcome","name":"outcome","type":"uint8"}],"stateMutability":"view","type":"function"},{"inputs":[{"internalType":"uint256","name":"taskId","type":"uint256"},{"internalType":"string","name":"disputeURI","type":"string"}],"name":"openDispute","outputs":[],"stateMutability":"nonpayable","type":"function"},{"inputs":[],"name":"owner","outputs":[{"internalType":"address","name":"","type":"address"}],"stateMutability":"view","type":"function"},{"inputs":[{"internalType":"uint256","name":"taskId","type":"uint256"},{"internalType":"enum ITaskMarket.DisputeOutcome","name":"outcome","type":"uint8"},{"internalType":"string","name":"resolutionURI","type":"string"}],"name":"resolveDispute","outputs":[],"stateMutability":"nonpayable","type":"function"},{"inputs":[{"internalType":"address","name":"","type":"address"}],"name":"resolvers","outputs":[{"internalType":"bool","name":"","type":"bool"}],"stateMutability":"view","type":"function"},{"inputs":[{"internalType":"address","name":"resolver","type":"address"},{"internalType":"bool","name":"allowed","type":"bool"}],"name":"setResolver","outputs":[],"stateMutability":"nonpayable","type":"function"},{"inputs":[],"name":"taskMarket","outputs":[{"internalType":"contract ITaskMarket","name":"","type":"address"}],"stateMutability":"view","type":"function"}],"evm":{"bytecode":{"linkReferences":{},"object":"604060a0815234620001c157620010a4803803806200001e81620001dc565b92833981018282820312620001c157620000388262000202565b6020838101516001600160401b0394919391858211620001c1570181601f82011215620001c1578051948511620001c6578460051b9084806200007d818501620001dc565b809881520192820101928311620001c15784809101915b838310620001a6575050506001600160a01b0391821691905081156200016257600080546001600160a01b03191633178155608092909252815b84518110156200013c578082620000e86001938862000217565b51168452818552868420805460ff191683179055817fd8ea402e95478feee1bea3f652c970c98c456281ae29a9987918e9e8b6754bb486856200012c858b62000217565b5116928a51908152a201620000ce565b8551610e6190816200024382396080518181816101600152818161041f01526105cb0152f35b845162461bcd60e51b815260048101849052601f60248201527f446973707574654d6f64756c653a207a65726f207461736b206d61726b6574006044820152606490fd5b8190620001b38462000202565b815201910190849062000094565b600080fd5b634e487b7160e01b600052604160045260246000fd5b6040519190601f01601f191682016001600160401b03811183821017620001c657604052565b51906001600160a01b0382168203620001c157565b80518210156200022c5760209160051b010190565b634e487b7160e01b600052603260045260246000fdfe6080604081815260048036101561001557600080fd5b600092833560e01c9081631da6ed7c14610ad15750806336f691c41461055a578063564a565d146104b85780638da5cb5b14610490578063b93793e914610452578063c01aca0d1461040a5763c316939c1461007057600080fd5b3461025357606036600319011261025357803590602490813590808210156104065767ffffffffffffffff90604435828111610402576100b39036908301610bb7565b92909433895260019160209280845260ff8a8c205416156103c057888b5260028452898b20805460ff8160a01c161561037d5760ff8160a81c1661033a5760ff60a81b1916600160a81b17815560038101805460ff8a1660ff19919091161790556002019186116103285790858b939261012d8354610be5565b601f81116102d5575b5084601f8311600114610262579082918693610257575b501b906000198860031b1c19161790555b7f00000000000000000000000000000000000000000000000000000000000000006001600160a01b031690813b1561025357899489926101b3859388519586946330c5a4e760e21b865285015283018a610d58565b606060448301528183816101cb606482018c8f610e0a565b03925af1801561024957610226575b5050936102139392827fa5684034510329ec77340be1fcce2a7d48ba6732a5090134b06976d0396579fe96610220945196878097610d58565b8501523397840191610e0a565b0390a380f35b61023591929350949394610c1f565b61024557859087389493946101da565b8680fd5b84513d84823e3d90fd5b8280fd5b8b013592503861014d565b83865286862091925088601f19811687898e5b8383106102ac5750505010610292575b505086811b01905561015e565b8a013560001960038a901b60f8161c191690553880610285565b8798999a5081945094809792969193950135815501940192018e9695949392918a91898e610275565b91509180939452848c20601f880160051c81019186891061031e575b918d95949391601f8a940160051c01905b81811061030f5750610136565b9586558d958993508201610302565b90915081906102f1565b634e487b7160e01b8b5260418552828bfd5b508a5162461bcd60e51b8152808701869052601f818601527f446973707574654d6f64756c653a20616c7265616479207265736f6c766564006044820152606490fd5b508a5162461bcd60e51b81528087018690526019818601527f446973707574654d6f64756c653a206e6f74206f70656e6564000000000000006044820152606490fd5b895162461bcd60e51b8152808601859052601c818501527f446973707574654d6f64756c653a207265736f6c766572206f6e6c79000000006044820152606490fd5b8780fd5b8580fd5b50503461044e578160031936011261044e57517f00000000000000000000000000000000000000000000000000000000000000006001600160a01b03168152602090f35b5080fd5b50503461044e57602036600319011261044e5760209160ff9082906001600160a01b0361047d610b9c565b1681526001855220541690519015158152f35b50503461044e578160031936011261044e57905490516001600160a01b039091168152602090f35b50346102535760203660031901126102535760ff9282913581526002602052209061055661054b83549361053d6104f160018301610c6b565b87600361050060028601610c6b565b9401541695805198899860018060a01b0381168a52818160a01c16151560208b015260a81c1615159088015260c0606088015260c0870190610d33565b908582036080870152610d33565b9160a0840190610d58565b0390f35b5034610253578160031936011261025357803590602480359367ffffffffffffffff94858111610245576105919036908501610bb7565b9290938588526020966002885283892080549160ff8360a01c16610a8f578551630eb2f3bf60e11b81528481018a90526001600160a01b037f00000000000000000000000000000000000000000000000000000000000000008116948d9290919083818a818a5afa938415610a845793610900575b506101e083015160078110156108ee576003036108ab57853314158061089b575b610858576060600160a01b93015116906affffffffffffffffffffff60a81b161717825560018083019188116108465790878c959493926106688354610be5565b601f81116107ef575b5086601f831160011461076e5791809160039594938993610763575b501b906000198b861b1c19161790555b01805460ff19169055803b1561025357848894815195869463f8895d0360e01b86528501528301528183816106d6604482018a8c610e0a565b03925af180156107595761071e575b50906102207f9b58afa035c5fa58f85c5a54b65bd3562d5aa7679e973bc1404fe25e8babab219392519283928784523397840191610e0a565b7f9b58afa035c5fa58f85c5a54b65bd3562d5aa7679e973bc1404fe25e8babab219392919661074f61022092610c1f565b96919293506106e5565b82513d89823e3d90fd5b8d013592503861068d565b8d908c989796959493601f198116858a52838a20938a9b5b828d106107c157505060039798999a50106107a9575b505089811b01905561069d565b8c01356000198c871b60f8161c19169055388061079c565b8497999b5081949087999b9d979396929450013581550194019201979593918f979593918f908d918f610786565b9150918093949596528b8d20601f8a0160051c8101918d8b1061083c575b918e979695949391601f8c940160051c01905b81811061082d5750610671565b9788558e978b93508201610820565b909150819061080d565b634e487b7160e01b8c5260418552858cfd5b50875162461bcd60e51b81528087018d90526019818901527f446973707574654d6f64756c653a206275796572206f6e6c79000000000000006044820152606490fd5b5033816060850151161415610627565b50875162461bcd60e51b81528087018d9052601c818901527f446973707574654d6f64756c653a206e6f74207375626d6974746564000000006044820152606490fd5b634e487b7160e01b8f5260218852888ffd5b9092503d808f833e6109128183610c49565b8101908d81830312610a8057805190858211610a5d5701610220918282820312610a5d578a5192830183811087821117610a6c578f908c528251845280830151908401528a8201518b84015261096a60608301610d7b565b606084015261097b60808301610d7b565b608084015260a0820151868111610a615781610998918401610d8f565b60a08401526109a960c08301610de4565b60c08401526109ba60e08301610de4565b60e084015261010080830151908401526101206109d8818401610df5565b9084015261014080830151908401526101608083015190840152610180908183015190878211610a6657610a0d918401610d8f565b908301526101a080820151908301526101c0610a2a818301610df5565b908301526101e080820151906007821015610a615783015261020080910151908115158203610a5d578201529138610606565b8f80fd5b508f80fd5b50508f80fd5b5050634e487b7160e01b8f5260418852888ffd5b8e80fd5b8a51903d90823e3d90fd5b855162461bcd60e51b81528085018b9052601d818701527f446973707574654d6f64756c653a20616c7265616479206f70656e65640000006044820152606490fd5b91905034610b985782600319360112610b9857610aec610b9c565b602435928315158094036104065785546001600160a01b03939084163303610b57575050916020917fd8ea402e95478feee1bea3f652c970c98c456281ae29a9987918e9e8b6754bb49316938486526001835280862060ff1981541660ff841617905551908152a280f35b62461bcd60e51b8252602090820152601960248201527f446973707574654d6f64756c653a206f776e6572206f6e6c79000000000000006044820152606490fd5b8380fd5b600435906001600160a01b0382168203610bb257565b600080fd5b9181601f84011215610bb25782359167ffffffffffffffff8311610bb25760208381860195010111610bb257565b90600182811c92168015610c15575b6020831014610bff57565b634e487b7160e01b600052602260045260246000fd5b91607f1691610bf4565b67ffffffffffffffff8111610c3357604052565b634e487b7160e01b600052604160045260246000fd5b90601f8019910116810190811067ffffffffffffffff821117610c3357604052565b90604051918260008254610c7e81610be5565b90818452602094600191600181169081600014610cee5750600114610caf575b505050610cad92500383610c49565b565b600090815285812095935091905b818310610cd6575050610cad9350820101388080610c9e565b85548884018501529485019487945091830191610cbd565b92505050610cad94925060ff191682840152151560051b820101388080610c9e565b60005b838110610d235750506000910152565b8181015183820152602001610d13565b90602091610d4c81518092818552858086019101610d10565b601f01601f1916010190565b906004821015610d655752565b634e487b7160e01b600052602160045260246000fd5b51906001600160a01b0382168203610bb257565b81601f82011215610bb257805167ffffffffffffffff8111610c335760405192610dc3601f8301601f191660200185610c49565b81845260208284010111610bb257610de19160208085019101610d10565b90565b519063ffffffff82168203610bb257565b519067ffffffffffffffff82168203610bb257565b908060209392818452848401376000828201840152601f01601f191601019056fea2646970667358221220afa1a2f3af8170b778f785421208e55713562cc81428edc7043fe051c6b08e5064736f6c63430008180033","opcodes":"PUSH1 0x40 PUSH1 0xA0 DUP2 MSTORE CALLVALUE PUSH3 0x1C1 JUMPI PUSH3 0x10A4 DUP1 CODESIZE SUB DUP1 PUSH3 0x1E DUP2 PUSH3 0x1DC JUMP JUMPDEST SWAP3 DUP4 CODECOPY DUP2 ADD DUP3 DUP3 DUP3 SUB SLT PUSH3 0x1C1 JUMPI PUSH3 0x38 DUP3 PUSH3 0x202 JUMP JUMPDEST PUSH1 0x20 DUP4 DUP2 ADD MLOAD PUSH1 0x1 PUSH1 0x1 PUSH1 0x40 SHL SUB SWAP5 SWAP2 SWAP4 SWAP2 DUP6 DUP3 GT PUSH3 0x1C1 JUMPI ADD DUP2 PUSH1 0x1F DUP3 ADD SLT ISZERO PUSH3 0x1C1 JUMPI DUP1 MLOAD SWAP5 DUP6 GT PUSH3 0x1C6 JUMPI DUP5 PUSH1 0x5 SHL SWAP1 DUP5 DUP1 PUSH3 0x7D DUP2 DUP6 ADD PUSH3 0x1DC JUMP JUMPDEST DUP1 SWAP9 DUP2 MSTORE ADD SWAP3 DUP3 ADD ADD SWAP3 DUP4 GT PUSH3 0x1C1 JUMPI DUP5 DUP1 SWAP2 ADD SWAP2 JUMPDEST DUP4 DUP4 LT PUSH3 0x1A6 JUMPI POP POP POP PUSH1 0x1 PUSH1 0x1 PUSH1 0xA0 SHL SUB SWAP2 DUP3 AND SWAP2 SWAP1 POP DUP2 ISZERO PUSH3 0x162 JUMPI PUSH1 0x0 DUP1 SLOAD PUSH1 0x1 PUSH1 0x1 PUSH1 0xA0 SHL SUB NOT AND CALLER OR DUP2 SSTORE PUSH1 0x80 SWAP3 SWAP1 SWAP3 MSTORE DUP2 JUMPDEST DUP5 MLOAD DUP2 LT ISZERO PUSH3 0x13C JUMPI DUP1 DUP3 PUSH3 0xE8 PUSH1 0x1 SWAP4 DUP9 PUSH3 0x217 JUMP JUMPDEST MLOAD AND DUP5 MSTORE DUP2 DUP6 MSTORE DUP7 DUP5 KECCAK256 DUP1 SLOAD PUSH1 0xFF NOT AND DUP4 OR SWAP1 SSTORE DUP2 PUSH32 0xD8EA402E95478FEEE1BEA3F652C970C98C456281AE29A9987918E9E8B6754BB4 DUP7 DUP6 PUSH3 0x12C DUP6 DUP12 PUSH3 0x217 JUMP JUMPDEST MLOAD AND SWAP3 DUP11 MLOAD SWAP1 DUP2 MSTORE LOG2 ADD PUSH3 0xCE JUMP JUMPDEST DUP6 MLOAD PUSH2 0xE61 SWAP1 DUP2 PUSH3 0x243 DUP3 CODECOPY PUSH1 0x80 MLOAD DUP2 DUP2 DUP2 PUSH2 0x160 ADD MSTORE DUP2 DUP2 PUSH2 0x41F ADD MSTORE PUSH2 0x5CB ADD MSTORE RETURN JUMPDEST DUP5 MLOAD PUSH3 0x461BCD PUSH1 0xE5 SHL DUP2 MSTORE PUSH1 0x4 DUP2 ADD DUP5 SWAP1 MSTORE PUSH1 0x1F PUSH1 0x24 DUP3 ADD MSTORE PUSH32 0x446973707574654D6F64756C653A207A65726F207461736B206D61726B657400 PUSH1 0x44 DUP3 ADD MSTORE PUSH1 0x64 SWAP1 REVERT JUMPDEST DUP2 SWAP1 PUSH3 0x1B3 DUP5 PUSH3 0x202 JUMP JUMPDEST DUP2 MSTORE ADD SWAP2 ADD SWAP1 DUP5 SWAP1 PUSH3 0x94 JUMP JUMPDEST PUSH1 0x0 DUP1 REVERT JUMPDEST PUSH4 0x4E487B71 PUSH1 0xE0 SHL PUSH1 0x0 MSTORE PUSH1 0x41 PUSH1 0x4 MSTORE PUSH1 0x24 PUSH1 0x0 REVERT JUMPDEST PUSH1 0x40 MLOAD SWAP2 SWAP1 PUSH1 0x1F ADD PUSH1 0x1F NOT AND DUP3 ADD PUSH1 0x1 PUSH1 0x1 PUSH1 0x40 SHL SUB DUP2 GT DUP4 DUP3 LT OR PUSH3 0x1C6 JUMPI PUSH1 0x40 MSTORE JUMP JUMPDEST MLOAD SWAP1 PUSH1 0x1 PUSH1 0x1 PUSH1 0xA0 SHL SUB DUP3 AND DUP3 SUB PUSH3 0x1C1 JUMPI JUMP JUMPDEST DUP1 MLOAD DUP3 LT ISZERO PUSH3 0x22C JUMPI PUSH1 0x20 SWAP2 PUSH1 0x5 SHL ADD ADD SWAP1 JUMP JUMPDEST PUSH4 0x4E487B71 PUSH1 0xE0 SHL PUSH1 0x0 MSTORE PUSH1 0x32 PUSH1 0x4 MSTORE PUSH1 0x24 PUSH1 0x0 REVERT INVALID PUSH1 0x80 PUSH1 0x40 DUP2 DUP2 MSTORE PUSH1 0x4 DUP1 CALLDATASIZE LT ISZERO PUSH2 0x15 JUMPI PUSH1 0x0 DUP1 REVERT JUMPDEST PUSH1 0x0 SWAP3 DUP4 CALLDATALOAD PUSH1 0xE0 SHR SWAP1 DUP2 PUSH4 0x1DA6ED7C EQ PUSH2 0xAD1 JUMPI POP DUP1 PUSH4 0x36F691C4 EQ PUSH2 0x55A JUMPI DUP1 PUSH4 0x564A565D EQ PUSH2 0x4B8 JUMPI DUP1 PUSH4 0x8DA5CB5B EQ PUSH2 0x490 JUMPI DUP1 PUSH4 0xB93793E9 EQ PUSH2 0x452 JUMPI DUP1 PUSH4 0xC01ACA0D EQ PUSH2 0x40A JUMPI PUSH4 0xC316939C EQ PUSH2 0x70 JUMPI PUSH1 0x0 DUP1 REVERT JUMPDEST CALLVALUE PUSH2 0x253 JUMPI PUSH1 0x60 CALLDATASIZE PUSH1 0x3 NOT ADD SLT PUSH2 0x253 JUMPI DUP1 CALLDATALOAD SWAP1 PUSH1 0x24 SWAP1 DUP2 CALLDATALOAD SWAP1 DUP1 DUP3 LT ISZERO PUSH2 0x406 JUMPI PUSH8 0xFFFFFFFFFFFFFFFF SWAP1 PUSH1 0x44 CALLDATALOAD DUP3 DUP2 GT PUSH2 0x402 JUMPI PUSH2 0xB3 SWAP1 CALLDATASIZE SWAP1 DUP4 ADD PUSH2 0xBB7 JUMP JUMPDEST SWAP3 SWAP1 SWAP5 CALLER DUP10 MSTORE PUSH1 0x1 SWAP2 PUSH1 0x20 SWAP3 DUP1 DUP5 MSTORE PUSH1 0xFF DUP11 DUP13 KECCAK256 SLOAD AND ISZERO PUSH2 0x3C0 JUMPI DUP9 DUP12 MSTORE PUSH1 0x2 DUP5 MSTORE DUP10 DUP12 KECCAK256 DUP1 SLOAD PUSH1 0xFF DUP2 PUSH1 0xA0 SHR AND ISZERO PUSH2 0x37D JUMPI PUSH1 0xFF DUP2 PUSH1 0xA8 SHR AND PUSH2 0x33A JUMPI PUSH1 0xFF PUSH1 0xA8 SHL NOT AND PUSH1 0x1 PUSH1 0xA8 SHL OR DUP2 SSTORE PUSH1 0x3 DUP2 ADD DUP1 SLOAD PUSH1 0xFF DUP11 AND PUSH1 0xFF NOT SWAP2 SWAP1 SWAP2 AND OR SWAP1 SSTORE PUSH1 0x2 ADD SWAP2 DUP7 GT PUSH2 0x328 JUMPI SWAP1 DUP6 DUP12 SWAP4 SWAP3 PUSH2 0x12D DUP4 SLOAD PUSH2 0xBE5 JUMP JUMPDEST PUSH1 0x1F DUP2 GT PUSH2 0x2D5 JUMPI JUMPDEST POP DUP5 PUSH1 0x1F DUP4 GT PUSH1 0x1 EQ PUSH2 0x262 JUMPI SWAP1 DUP3 SWAP2 DUP7 SWAP4 PUSH2 0x257 JUMPI JUMPDEST POP SHL SWAP1 PUSH1 0x0 NOT DUP9 PUSH1 0x3 SHL SHR NOT AND OR SWAP1 SSTORE JUMPDEST PUSH32 0x0 PUSH1 0x1 PUSH1 0x1 PUSH1 0xA0 SHL SUB AND SWAP1 DUP2 EXTCODESIZE ISZERO PUSH2 0x253 JUMPI DUP10 SWAP5 DUP10 SWAP3 PUSH2 0x1B3 DUP6 SWAP4 DUP9 MLOAD SWAP6 DUP7 SWAP5 PUSH4 0x30C5A4E7 PUSH1 0xE2 SHL DUP7 MSTORE DUP6 ADD MSTORE DUP4 ADD DUP11 PUSH2 0xD58 JUMP JUMPDEST PUSH1 0x60 PUSH1 0x44 DUP4 ADD MSTORE DUP2 DUP4 DUP2 PUSH2 0x1CB PUSH1 0x64 DUP3 ADD DUP13 DUP16 PUSH2 0xE0A JUMP JUMPDEST SUB SWAP3 GAS CALL DUP1 ISZERO PUSH2 0x249 JUMPI PUSH2 0x226 JUMPI JUMPDEST POP POP SWAP4 PUSH2 0x213 SWAP4 SWAP3 DUP3 PUSH32 0xA5684034510329EC77340BE1FCCE2A7D48BA6732A5090134B06976D0396579FE SWAP7 PUSH2 0x220 SWAP5 MLOAD SWAP7 DUP8 DUP1 SWAP8 PUSH2 0xD58 JUMP JUMPDEST DUP6 ADD MSTORE CALLER SWAP8 DUP5 ADD SWAP2 PUSH2 0xE0A JUMP JUMPDEST SUB SWAP1 LOG3 DUP1 RETURN JUMPDEST PUSH2 0x235 SWAP2 SWAP3 SWAP4 POP SWAP5 SWAP4 SWAP5 PUSH2 0xC1F JUMP JUMPDEST PUSH2 0x245 JUMPI DUP6 SWAP1 DUP8 CODESIZE SWAP5 SWAP4 SWAP5 PUSH2 0x1DA JUMP JUMPDEST DUP7 DUP1 REVERT JUMPDEST DUP5 MLOAD RETURNDATASIZE DUP5 DUP3 RETURNDATACOPY RETURNDATASIZE SWAP1 REVERT JUMPDEST DUP3 DUP1 REVERT JUMPDEST DUP12 ADD CALLDATALOAD SWAP3 POP CODESIZE PUSH2 0x14D JUMP JUMPDEST DUP4 DUP7 MSTORE DUP7 DUP7 KECCAK256 SWAP2 SWAP3 POP DUP9 PUSH1 0x1F NOT DUP2 AND DUP8 DUP10 DUP15 JUMPDEST DUP4 DUP4 LT PUSH2 0x2AC JUMPI POP POP POP LT PUSH2 0x292 JUMPI JUMPDEST POP POP DUP7 DUP2 SHL ADD SWAP1 SSTORE PUSH2 0x15E JUMP JUMPDEST DUP11 ADD CALLDATALOAD PUSH1 0x0 NOT PUSH1 0x3 DUP11 SWAP1 SHL PUSH1 0xF8 AND SHR NOT AND SWAP1 SSTORE CODESIZE DUP1 PUSH2 0x285 JUMP JUMPDEST DUP8 SWAP9 SWAP10 SWAP11 POP DUP2 SWAP5 POP SWAP5 DUP1 SWAP8 SWAP3 SWAP7 SWAP2 SWAP4 SWAP6 ADD CALLDATALOAD DUP2 SSTORE ADD SWAP5 ADD SWAP3 ADD DUP15 SWAP7 SWAP6 SWAP5 SWAP4 SWAP3 SWAP2 DUP11 SWAP2 DUP10 DUP15 PUSH2 0x275 JUMP JUMPDEST SWAP2 POP SWAP2 DUP1 SWAP4 SWAP5 MSTORE DUP5 DUP13 KECCAK256 PUSH1 0x1F DUP9 ADD PUSH1 0x5 SHR DUP2 ADD SWAP2 DUP7 DUP10 LT PUSH2 0x31E JUMPI JUMPDEST SWAP2 DUP14 SWAP6 SWAP5 SWAP4 SWAP2 PUSH1 0x1F DUP11 SWAP5 ADD PUSH1 0x5 SHR ADD SWAP1 JUMPDEST DUP2 DUP2 LT PUSH2 0x30F JUMPI POP PUSH2 0x136 JUMP JUMPDEST SWAP6 DUP7 SSTORE DUP14 SWAP6 DUP10 SWAP4 POP DUP3 ADD PUSH2 0x302 JUMP JUMPDEST SWAP1 SWAP2 POP DUP2 SWAP1 PUSH2 0x2F1 JUMP JUMPDEST PUSH4 0x4E487B71 PUSH1 0xE0 SHL DUP12 MSTORE PUSH1 0x41 DUP6 MSTORE DUP3 DUP12 REVERT JUMPDEST POP DUP11 MLOAD PUSH3 0x461BCD PUSH1 0xE5 SHL DUP2 MSTORE DUP1 DUP8 ADD DUP7 SWAP1 MSTORE PUSH1 0x1F DUP2 DUP7 ADD MSTORE PUSH32 0x446973707574654D6F64756C653A20616C7265616479207265736F6C76656400 PUSH1 0x44 DUP3 ADD MSTORE PUSH1 0x64 SWAP1 REVERT JUMPDEST POP DUP11 MLOAD PUSH3 0x461BCD PUSH1 0xE5 SHL DUP2 MSTORE DUP1 DUP8 ADD DUP7 SWAP1 MSTORE PUSH1 0x19 DUP2 DUP7 ADD MSTORE PUSH32 0x446973707574654D6F64756C653A206E6F74206F70656E656400000000000000 PUSH1 0x44 DUP3 ADD MSTORE PUSH1 0x64 SWAP1 REVERT JUMPDEST DUP10 MLOAD PUSH3 0x461BCD PUSH1 0xE5 SHL DUP2 MSTORE DUP1 DUP7 ADD DUP6 SWAP1 MSTORE PUSH1 0x1C DUP2 DUP6 ADD MSTORE PUSH32 0x446973707574654D6F64756C653A207265736F6C766572206F6E6C7900000000 PUSH1 0x44 DUP3 ADD MSTORE PUSH1 0x64 SWAP1 REVERT JUMPDEST DUP8 DUP1 REVERT JUMPDEST DUP6 DUP1 REVERT JUMPDEST POP POP CALLVALUE PUSH2 0x44E JUMPI DUP2 PUSH1 0x3 NOT CALLDATASIZE ADD SLT PUSH2 0x44E JUMPI MLOAD PUSH32 0x0 PUSH1 0x1 PUSH1 0x1 PUSH1 0xA0 SHL SUB AND DUP2 MSTORE PUSH1 0x20 SWAP1 RETURN JUMPDEST POP DUP1 REVERT JUMPDEST POP POP CALLVALUE PUSH2 0x44E JUMPI PUSH1 0x20 CALLDATASIZE PUSH1 0x3 NOT ADD SLT PUSH2 0x44E JUMPI PUSH1 0x20 SWAP2 PUSH1 0xFF SWAP1 DUP3 SWAP1 PUSH1 0x1 PUSH1 0x1 PUSH1 0xA0 SHL SUB PUSH2 0x47D PUSH2 0xB9C JUMP JUMPDEST AND DUP2 MSTORE PUSH1 0x1 DUP6 MSTORE KECCAK256 SLOAD AND SWAP1 MLOAD SWAP1 ISZERO ISZERO DUP2 MSTORE RETURN JUMPDEST POP POP CALLVALUE PUSH2 0x44E JUMPI DUP2 PUSH1 0x3 NOT CALLDATASIZE ADD SLT PUSH2 0x44E JUMPI SWAP1 SLOAD SWAP1 MLOAD PUSH1 0x1 PUSH1 0x1 PUSH1 0xA0 SHL SUB SWAP1 SWAP2 AND DUP2 MSTORE PUSH1 0x20 SWAP1 RETURN JUMPDEST POP CALLVALUE PUSH2 0x253 JUMPI PUSH1 0x20 CALLDATASIZE PUSH1 0x3 NOT ADD SLT PUSH2 0x253 JUMPI PUSH1 0xFF SWAP3 DUP3 SWAP2 CALLDATALOAD DUP2 MSTORE PUSH1 0x2 PUSH1 0x20 MSTORE KECCAK256 SWAP1 PUSH2 0x556 PUSH2 0x54B DUP4 SLOAD SWAP4 PUSH2 0x53D PUSH2 0x4F1 PUSH1 0x1 DUP4 ADD PUSH2 0xC6B JUMP JUMPDEST DUP8 PUSH1 0x3 PUSH2 0x500 PUSH1 0x2 DUP7 ADD PUSH2 0xC6B JUMP JUMPDEST SWAP5 ADD SLOAD AND SWAP6 DUP1 MLOAD SWAP9 DUP10 SWAP9 PUSH1 0x1 DUP1 PUSH1 0xA0 SHL SUB DUP2 AND DUP11 MSTORE DUP2 DUP2 PUSH1 0xA0 SHR AND ISZERO ISZERO PUSH1 0x20 DUP12 ADD MSTORE PUSH1 0xA8 SHR AND ISZERO ISZERO SWAP1 DUP9 ADD MSTORE PUSH1 0xC0 PUSH1 0x60 DUP9 ADD MSTORE PUSH1 0xC0 DUP8 ADD SWAP1 PUSH2 0xD33 JUMP JUMPDEST SWAP1 DUP6 DUP3 SUB PUSH1 0x80 DUP8 ADD MSTORE PUSH2 0xD33 JUMP JUMPDEST SWAP2 PUSH1 0xA0 DUP5 ADD SWAP1 PUSH2 0xD58 JUMP JUMPDEST SUB SWAP1 RETURN JUMPDEST POP CALLVALUE PUSH2 0x253 JUMPI DUP2 PUSH1 0x3 NOT CALLDATASIZE ADD SLT PUSH2 0x253 JUMPI DUP1 CALLDATALOAD SWAP1 PUSH1 0x24 DUP1 CALLDATALOAD SWAP4 PUSH8 0xFFFFFFFFFFFFFFFF SWAP5 DUP6 DUP2 GT PUSH2 0x245 JUMPI PUSH2 0x591 SWAP1 CALLDATASIZE SWAP1 DUP6 ADD PUSH2 0xBB7 JUMP JUMPDEST SWAP3 SWAP1 SWAP4 DUP6 DUP9 MSTORE PUSH1 0x20 SWAP7 PUSH1 0x2 DUP9 MSTORE DUP4 DUP10 KECCAK256 DUP1 SLOAD SWAP2 PUSH1 0xFF DUP4 PUSH1 0xA0 SHR AND PUSH2 0xA8F JUMPI DUP6 MLOAD PUSH4 0xEB2F3BF PUSH1 0xE1 SHL DUP2 MSTORE DUP5 DUP2 ADD DUP11 SWAP1 MSTORE PUSH1 0x1 PUSH1 0x1 PUSH1 0xA0 SHL SUB PUSH32 0x0 DUP2 AND SWAP5 DUP14 SWAP3 SWAP1 SWAP2 SWAP1 DUP4 DUP2 DUP11 DUP2 DUP11 GAS STATICCALL SWAP4 DUP5 ISZERO PUSH2 0xA84 JUMPI SWAP4 PUSH2 0x900 JUMPI JUMPDEST POP PUSH2 0x1E0 DUP4 ADD MLOAD PUSH1 0x7 DUP2 LT ISZERO PUSH2 0x8EE JUMPI PUSH1 0x3 SUB PUSH2 0x8AB JUMPI DUP6 CALLER EQ ISZERO DUP1 PUSH2 0x89B JUMPI JUMPDEST PUSH2 0x858 JUMPI PUSH1 0x60 PUSH1 0x1 PUSH1 0xA0 SHL SWAP4 ADD MLOAD AND SWAP1 PUSH11 0xFFFFFFFFFFFFFFFFFFFFFF PUSH1 0xA8 SHL AND OR OR DUP3 SSTORE PUSH1 0x1 DUP1 DUP4 ADD SWAP2 DUP9 GT PUSH2 0x846 JUMPI SWAP1 DUP8 DUP13 SWAP6 SWAP5 SWAP4 SWAP3 PUSH2 0x668 DUP4 SLOAD PUSH2 0xBE5 JUMP JUMPDEST PUSH1 0x1F DUP2 GT PUSH2 0x7EF JUMPI JUMPDEST POP DUP7 PUSH1 0x1F DUP4 GT PUSH1 0x1 EQ PUSH2 0x76E JUMPI SWAP2 DUP1 SWAP2 PUSH1 0x3 SWAP6 SWAP5 SWAP4 DUP10 SWAP4 PUSH2 0x763 JUMPI JUMPDEST POP SHL SWAP1 PUSH1 0x0 NOT DUP12 DUP7 SHL SHR NOT AND OR SWAP1 SSTORE JUMPDEST ADD DUP1 SLOAD PUSH1 0xFF NOT AND SWAP1 SSTORE DUP1 EXTCODESIZE ISZERO PUSH2 0x253 JUMPI DUP5 DUP9 SWAP5 DUP2 MLOAD SWAP6 DUP7 SWAP5 PUSH4 0xF8895D03 PUSH1 0xE0 SHL DUP7 MSTORE DUP6 ADD MSTORE DUP4 ADD MSTORE DUP2 DUP4 DUP2 PUSH2 0x6D6 PUSH1 0x44 DUP3 ADD DUP11 DUP13 PUSH2 0xE0A JUMP JUMPDEST SUB SWAP3 GAS CALL DUP1 ISZERO PUSH2 0x759 JUMPI PUSH2 0x71E JUMPI JUMPDEST POP SWAP1 PUSH2 0x220 PUSH32 0x9B58AFA035C5FA58F85C5A54B65BD3562D5AA7679E973BC1404FE25E8BABAB21 SWAP4 SWAP3 MLOAD SWAP3 DUP4 SWAP3 DUP8 DUP5 MSTORE CALLER SWAP8 DUP5 ADD SWAP2 PUSH2 0xE0A JUMP JUMPDEST PUSH32 0x9B58AFA035C5FA58F85C5A54B65BD3562D5AA7679E973BC1404FE25E8BABAB21 SWAP4 SWAP3 SWAP2 SWAP7 PUSH2 0x74F PUSH2 0x220 SWAP3 PUSH2 0xC1F JUMP JUMPDEST SWAP7 SWAP2 SWAP3 SWAP4 POP PUSH2 0x6E5 JUMP JUMPDEST DUP3 MLOAD RETURNDATASIZE DUP10 DUP3 RETURNDATACOPY RETURNDATASIZE SWAP1 REVERT JUMPDEST DUP14 ADD CALLDATALOAD SWAP3 POP CODESIZE PUSH2 0x68D JUMP JUMPDEST DUP14 SWAP1 DUP13 SWAP9 SWAP8 SWAP7 SWAP6 SWAP5 SWAP4 PUSH1 0x1F NOT DUP2 AND DUP6 DUP11 MSTORE DUP4 DUP11 KECCAK256 SWAP4 DUP11 SWAP12 JUMPDEST DUP3 DUP14 LT PUSH2 0x7C1 JUMPI POP POP PUSH1 0x3 SWAP8 SWAP9 SWAP10 SWAP11 POP LT PUSH2 0x7A9 JUMPI JUMPDEST POP POP DUP10 DUP2 SHL ADD SWAP1 SSTORE PUSH2 0x69D JUMP JUMPDEST DUP13 ADD CALLDATALOAD PUSH1 0x0 NOT DUP13 DUP8 SHL PUSH1 0xF8 AND SHR NOT AND SWAP1 SSTORE CODESIZE DUP1 PUSH2 0x79C JUMP JUMPDEST DUP5 SWAP8 SWAP10 SWAP12 POP DUP2 SWAP5 SWAP1 DUP8 SWAP10 SWAP12 SWAP14 SWAP8 SWAP4 SWAP7 SWAP3 SWAP5 POP ADD CALLDATALOAD DUP2 SSTORE ADD SWAP5 ADD SWAP3 ADD SWAP8 SWAP6 SWAP4 SWAP2 DUP16 SWAP8 SWAP6 SWAP4 SWAP2 DUP16 SWAP1 DUP14 SWAP2 DUP16 PUSH2 0x786 JUMP JUMPDEST SWAP2 POP SWAP2 DUP1 SWAP4 SWAP5 SWAP6 SWAP7 MSTORE DUP12 DUP14 KECCAK256 PUSH1 0x1F DUP11 ADD PUSH1 0x5 SHR DUP2 ADD SWAP2 DUP14 DUP12 LT PUSH2 0x83C JUMPI JUMPDEST SWAP2 DUP15 SWAP8 SWAP7 SWAP6 SWAP5 SWAP4 SWAP2 PUSH1 0x1F DUP13 SWAP5 ADD PUSH1 0x5 SHR ADD SWAP1 JUMPDEST DUP2 DUP2 LT PUSH2 0x82D JUMPI POP PUSH2 0x671 JUMP JUMPDEST SWAP8 DUP9 SSTORE DUP15 SWAP8 DUP12 SWAP4 POP DUP3 ADD PUSH2 0x820 JUMP JUMPDEST SWAP1 SWAP2 POP DUP2 SWAP1 PUSH2 0x80D JUMP JUMPDEST PUSH4 0x4E487B71 PUSH1 0xE0 SHL DUP13 MSTORE PUSH1 0x41 DUP6 MSTORE DUP6 DUP13 REVERT JUMPDEST POP DUP8 MLOAD PUSH3 0x461BCD PUSH1 0xE5 SHL DUP2 MSTORE DUP1 DUP8 ADD DUP14 SWAP1 MSTORE PUSH1 0x19 DUP2 DUP10 ADD MSTORE PUSH32 0x446973707574654D6F64756C653A206275796572206F6E6C7900000000000000 PUSH1 0x44 DUP3 ADD MSTORE PUSH1 0x64 SWAP1 REVERT JUMPDEST POP CALLER DUP2 PUSH1 0x60 DUP6 ADD MLOAD AND EQ ISZERO PUSH2 0x627 JUMP JUMPDEST POP DUP8 MLOAD PUSH3 0x461BCD PUSH1 0xE5 SHL DUP2 MSTORE DUP1 DUP8 ADD DUP14 SWAP1 MSTORE PUSH1 0x1C DUP2 DUP10 ADD MSTORE PUSH32 0x446973707574654D6F64756C653A206E6F74207375626D697474656400000000 PUSH1 0x44 DUP3 ADD MSTORE PUSH1 0x64 SWAP1 REVERT JUMPDEST PUSH4 0x4E487B71 PUSH1 0xE0 SHL DUP16 MSTORE PUSH1 0x21 DUP9 MSTORE DUP9 DUP16 REVERT JUMPDEST SWAP1 SWAP3 POP RETURNDATASIZE DUP1 DUP16 DUP4 RETURNDATACOPY PUSH2 0x912 DUP2 DUP4 PUSH2 0xC49 JUMP JUMPDEST DUP2 ADD SWAP1 DUP14 DUP2 DUP4 SUB SLT PUSH2 0xA80 JUMPI DUP1 MLOAD SWAP1 DUP6 DUP3 GT PUSH2 0xA5D JUMPI ADD PUSH2 0x220 SWAP2 DUP3 DUP3 DUP3 SUB SLT PUSH2 0xA5D JUMPI DUP11 MLOAD SWAP3 DUP4 ADD DUP4 DUP2 LT DUP8 DUP3 GT OR PUSH2 0xA6C JUMPI DUP16 SWAP1 DUP13 MSTORE DUP3 MLOAD DUP5 MSTORE DUP1 DUP4 ADD MLOAD SWAP1 DUP5 ADD MSTORE DUP11 DUP3 ADD MLOAD DUP12 DUP5 ADD MSTORE PUSH2 0x96A PUSH1 0x60 DUP4 ADD PUSH2 0xD7B JUMP JUMPDEST PUSH1 0x60 DUP5 ADD MSTORE PUSH2 0x97B PUSH1 0x80 DUP4 ADD PUSH2 0xD7B JUMP JUMPDEST PUSH1 0x80 DUP5 ADD MSTORE PUSH1 0xA0 DUP3 ADD MLOAD DUP7 DUP2 GT PUSH2 0xA61 JUMPI DUP2 PUSH2 0x998 SWAP2 DUP5 ADD PUSH2 0xD8F JUMP JUMPDEST PUSH1 0xA0 DUP5 ADD MSTORE PUSH2 0x9A9 PUSH1 0xC0 DUP4 ADD PUSH2 0xDE4 JUMP JUMPDEST PUSH1 0xC0 DUP5 ADD MSTORE PUSH2 0x9BA PUSH1 0xE0 DUP4 ADD PUSH2 0xDE4 JUMP JUMPDEST PUSH1 0xE0 DUP5 ADD MSTORE PUSH2 0x100 DUP1 DUP4 ADD MLOAD SWAP1 DUP5 ADD MSTORE PUSH2 0x120 PUSH2 0x9D8 DUP2 DUP5 ADD PUSH2 0xDF5 JUMP JUMPDEST SWAP1 DUP5 ADD MSTORE PUSH2 0x140 DUP1 DUP4 ADD MLOAD SWAP1 DUP5 ADD MSTORE PUSH2 0x160 DUP1 DUP4 ADD MLOAD SWAP1 DUP5 ADD MSTORE PUSH2 0x180 SWAP1 DUP2 DUP4 ADD MLOAD SWAP1 DUP8 DUP3 GT PUSH2 0xA66 JUMPI PUSH2 0xA0D SWAP2 DUP5 ADD PUSH2 0xD8F JUMP JUMPDEST SWAP1 DUP4 ADD MSTORE PUSH2 0x1A0 DUP1 DUP3 ADD MLOAD SWAP1 DUP4 ADD MSTORE PUSH2 0x1C0 PUSH2 0xA2A DUP2 DUP4 ADD PUSH2 0xDF5 JUMP JUMPDEST SWAP1 DUP4 ADD MSTORE PUSH2 0x1E0 DUP1 DUP3 ADD MLOAD SWAP1 PUSH1 0x7 DUP3 LT ISZERO PUSH2 0xA61 JUMPI DUP4 ADD MSTORE PUSH2 0x200 DUP1 SWAP2 ADD MLOAD SWAP1 DUP2 ISZERO ISZERO DUP3 SUB PUSH2 0xA5D JUMPI DUP3 ADD MSTORE SWAP2 CODESIZE PUSH2 0x606 JUMP JUMPDEST DUP16 DUP1 REVERT JUMPDEST POP DUP16 DUP1 REVERT JUMPDEST POP POP DUP16 DUP1 REVERT JUMPDEST POP POP PUSH4 0x4E487B71 PUSH1 0xE0 SHL DUP16 MSTORE PUSH1 0x41 DUP9 MSTORE DUP9 DUP16 REVERT JUMPDEST DUP15 DUP1 REVERT JUMPDEST DUP11 MLOAD SWAP1 RETURNDATASIZE SWAP1 DUP3 RETURNDATACOPY RETURNDATASIZE SWAP1 REVERT JUMPDEST DUP6 MLOAD PUSH3 0x461BCD PUSH1 0xE5 SHL DUP2 MSTORE DUP1 DUP6 ADD DUP12 SWAP1 MSTORE PUSH1 0x1D DUP2 DUP8 ADD MSTORE PUSH32 0x446973707574654D6F64756C653A20616C7265616479206F70656E6564000000 PUSH1 0x44 DUP3 ADD MSTORE PUSH1 0x64 SWAP1 REVERT JUMPDEST SWAP2 SWAP1 POP CALLVALUE PUSH2 0xB98 JUMPI DUP3 PUSH1 0x3 NOT CALLDATASIZE ADD SLT PUSH2 0xB98 JUMPI PUSH2 0xAEC PUSH2 0xB9C JUMP JUMPDEST PUSH1 0x24 CALLDATALOAD SWAP3 DUP4 ISZERO ISZERO DUP1 SWAP5 SUB PUSH2 0x406 JUMPI DUP6 SLOAD PUSH1 0x1 PUSH1 0x1 PUSH1 0xA0 SHL SUB SWAP4 SWAP1 DUP5 AND CALLER SUB PUSH2 0xB57 JUMPI POP POP SWAP2 PUSH1 0x20 SWAP2 PUSH32 0xD8EA402E95478FEEE1BEA3F652C970C98C456281AE29A9987918E9E8B6754BB4 SWAP4 AND SWAP4 DUP5 DUP7 MSTORE PUSH1 0x1 DUP4 MSTORE DUP1 DUP7 KECCAK256 PUSH1 0xFF NOT DUP2 SLOAD AND PUSH1 0xFF DUP5 AND OR SWAP1 SSTORE MLOAD SWAP1 DUP2 MSTORE LOG2 DUP1 RETURN JUMPDEST PUSH3 0x461BCD PUSH1 0xE5 SHL DUP3 MSTORE PUSH1 0x20 SWAP1 DUP3 ADD MSTORE PUSH1 0x19 PUSH1 0x24 DUP3 ADD MSTORE PUSH32 0x446973707574654D6F64756C653A206F776E6572206F6E6C7900000000000000 PUSH1 0x44 DUP3 ADD MSTORE PUSH1 0x64 SWAP1 REVERT JUMPDEST DUP4 DUP1 REVERT JUMPDEST PUSH1 0x4 CALLDATALOAD SWAP1 PUSH1 0x1 PUSH1 0x1 PUSH1 0xA0 SHL SUB DUP3 AND DUP3 SUB PUSH2 0xBB2 JUMPI JUMP JUMPDEST PUSH1 0x0 DUP1 REVERT JUMPDEST SWAP2 DUP2 PUSH1 0x1F DUP5 ADD SLT ISZERO PUSH2 0xBB2 JUMPI DUP3 CALLDATALOAD SWAP2 PUSH8 0xFFFFFFFFFFFFFFFF DUP4 GT PUSH2 0xBB2 JUMPI PUSH1 0x20 DUP4 DUP2 DUP7 ADD SWAP6 ADD ADD GT PUSH2 0xBB2 JUMPI JUMP JUMPDEST SWAP1 PUSH1 0x1 DUP3 DUP2 SHR SWAP3 AND DUP1 ISZERO PUSH2 0xC15 JUMPI JUMPDEST PUSH1 0x20 DUP4 LT EQ PUSH2 0xBFF JUMPI JUMP JUMPDEST PUSH4 0x4E487B71 PUSH1 0xE0 SHL PUSH1 0x0 MSTORE PUSH1 0x22 PUSH1 0x4 MSTORE PUSH1 0x24 PUSH1 0x0 REVERT JUMPDEST SWAP2 PUSH1 0x7F AND SWAP2 PUSH2 0xBF4 JUMP JUMPDEST PUSH8 0xFFFFFFFFFFFFFFFF DUP2 GT PUSH2 0xC33 JUMPI PUSH1 0x40 MSTORE JUMP JUMPDEST PUSH4 0x4E487B71 PUSH1 0xE0 SHL PUSH1 0x0 MSTORE PUSH1 0x41 PUSH1 0x4 MSTORE PUSH1 0x24 PUSH1 0x0 REVERT JUMPDEST SWAP1 PUSH1 0x1F DUP1 NOT SWAP2 ADD AND DUP2 ADD SWAP1 DUP2 LT PUSH8 0xFFFFFFFFFFFFFFFF DUP3 GT OR PUSH2 0xC33 JUMPI PUSH1 0x40 MSTORE JUMP JUMPDEST SWAP1 PUSH1 0x40 MLOAD SWAP2 DUP3 PUSH1 0x0 DUP3 SLOAD PUSH2 0xC7E DUP2 PUSH2 0xBE5 JUMP JUMPDEST SWAP1 DUP2 DUP5 MSTORE PUSH1 0x20 SWAP5 PUSH1 0x1 SWAP2 PUSH1 0x1 DUP2 AND SWAP1 DUP2 PUSH1 0x0 EQ PUSH2 0xCEE JUMPI POP PUSH1 0x1 EQ PUSH2 0xCAF JUMPI JUMPDEST POP POP POP PUSH2 0xCAD SWAP3 POP SUB DUP4 PUSH2 0xC49 JUMP JUMPDEST JUMP JUMPDEST PUSH1 0x0 SWAP1 DUP2 MSTORE DUP6 DUP2 KECCAK256 SWAP6 SWAP4 POP SWAP2 SWAP1 JUMPDEST DUP2 DUP4 LT PUSH2 0xCD6 JUMPI POP POP PUSH2 0xCAD SWAP4 POP DUP3 ADD ADD CODESIZE DUP1 DUP1 PUSH2 0xC9E JUMP JUMPDEST DUP6 SLOAD DUP9 DUP5 ADD DUP6 ADD MSTORE SWAP5 DUP6 ADD SWAP5 DUP8 SWAP5 POP SWAP2 DUP4 ADD SWAP2 PUSH2 0xCBD JUMP JUMPDEST SWAP3 POP POP POP PUSH2 0xCAD SWAP5 SWAP3 POP PUSH1 0xFF NOT AND DUP3 DUP5 ADD MSTORE ISZERO ISZERO PUSH1 0x5 SHL DUP3 ADD ADD CODESIZE DUP1 DUP1 PUSH2 0xC9E JUMP JUMPDEST PUSH1 0x0 JUMPDEST DUP4 DUP2 LT PUSH2 0xD23 JUMPI POP POP PUSH1 0x0 SWAP2 ADD MSTORE JUMP JUMPDEST DUP2 DUP2 ADD MLOAD DUP4 DUP3 ADD MSTORE PUSH1 0x20 ADD PUSH2 0xD13 JUMP JUMPDEST SWAP1 PUSH1 0x20 SWAP2 PUSH2 0xD4C DUP2 MLOAD DUP1 SWAP3 DUP2 DUP6 MSTORE DUP6 DUP1 DUP7 ADD SWAP2 ADD PUSH2 0xD10 JUMP JUMPDEST PUSH1 0x1F ADD PUSH1 0x1F NOT AND ADD ADD SWAP1 JUMP JUMPDEST SWAP1 PUSH1 0x4 DUP3 LT ISZERO PUSH2 0xD65 JUMPI MSTORE JUMP JUMPDEST PUSH4 0x4E487B71 PUSH1 0xE0 SHL PUSH1 0x0 MSTORE PUSH1 0x21 PUSH1 0x4 MSTORE PUSH1 0x24 PUSH1 0x0 REVERT JUMPDEST MLOAD SWAP1 PUSH1 0x1 PUSH1 0x1 PUSH1 0xA0 SHL SUB DUP3 AND DUP3 SUB PUSH2 0xBB2 JUMPI JUMP JUMPDEST DUP2 PUSH1 0x1F DUP3 ADD SLT ISZERO PUSH2 0xBB2 JUMPI DUP1 MLOAD PUSH8 0xFFFFFFFFFFFFFFFF DUP2 GT PUSH2 0xC33 JUMPI PUSH1 0x40 MLOAD SWAP3 PUSH2 0xDC3 PUSH1 0x1F DUP4 ADD PUSH1 0x1F NOT AND PUSH1 0x20 ADD DUP6 PUSH2 0xC49 JUMP JUMPDEST DUP2 DUP5 MSTORE PUSH1 0x20 DUP3 DUP5 ADD ADD GT PUSH2 0xBB2 JUMPI PUSH2 0xDE1 SWAP2 PUSH1 0x20 DUP1 DUP6 ADD SWAP2 ADD PUSH2 0xD10 JUMP JUMPDEST SWAP1 JUMP JUMPDEST MLOAD SWAP1 PUSH4 0xFFFFFFFF DUP3 AND DUP3 SUB PUSH2 0xBB2 JUMPI JUMP JUMPDEST MLOAD SWAP1 PUSH8 0xFFFFFFFFFFFFFFFF DUP3 AND DUP3 SUB PUSH2 0xBB2 JUMPI JUMP JUMPDEST SWAP1 DUP1 PUSH1 0x20 SWAP4 SWAP3 DUP2 DUP5 MSTORE DUP5 DUP5 ADD CALLDATACOPY PUSH1 0x0 DUP3 DUP3 ADD DUP5 ADD MSTORE PUSH1 0x1F ADD PUSH1 0x1F NOT AND ADD ADD SWAP1 JUMP INVALID LOG2 PUSH5 0x6970667358 0x22 SLT KECCAK256 0xAF LOG1 LOG2 RETURN 0xAF DUP2 PUSH17 0xB778F785421208E55713562CC81428EDC7 DIV EXTCODEHASH 0xE0 MLOAD 0xC6 0xB0 DUP15 POP PUSH5 0x736F6C6343 STOP ADDMOD XOR STOP CALLER "},"methodIdentifiers":{"disputes(uint256)":"564a565d","openDispute(uint256,string)":"36f691c4","owner()":"8da5cb5b","resolveDispute(uint256,uint8,string)":"c316939c","resolvers(address)":"b93793e9","setResolver(address,bool)":"1da6ed7c","taskMarket()":"c01aca0d"}}}}}