{"contracts/TaskMarket.sol":{"TaskMarket":{"abi":[{"inputs":[{"internalType":"address","name":"listingRegistry_","type":"address"},{"internalType":"address","name":"identityRegistry_","type":"address"}],"stateMutability":"nonpayable","type":"constructor"},{"anonymous":false,"inputs":[{"indexed":true,"internalType":"uint256","name":"taskId","type":"uint256"},{"indexed":false,"internalType":"string","name":"artifactURI","type":"string"},{"indexed":false,"internalType":"bytes32","name":"artifactHash","type":"bytes32"}],"name":"DeliverableSubmitted","type":"event"},{"anonymous":false,"inputs":[{"indexed":true,"internalType":"uint256","name":"taskId","type":"uint256"}],"name":"QuoteAccepted","type":"event"},{"anonymous":false,"inputs":[{"indexed":true,"internalType":"uint256","name":"taskId","type":"uint256"},{"indexed":false,"internalType":"uint32","name":"quotedUnits","type":"uint32"},{"indexed":false,"internalType":"uint256","name":"quotedTotalPrice","type":"uint256"},{"indexed":false,"internalType":"uint64","name":"expiry","type":"uint64"}],"name":"QuoteProposed","type":"event"},{"anonymous":false,"inputs":[{"indexed":true,"internalType":"uint256","name":"taskId","type":"uint256"},{"indexed":false,"internalType":"uint256","name":"amount","type":"uint256"}],"name":"SellerBondFunded","type":"event"},{"anonymous":false,"inputs":[{"indexed":true,"internalType":"uint256","name":"taskId","type":"uint256"}],"name":"SubmissionAccepted","type":"event"},{"anonymous":false,"inputs":[{"indexed":true,"internalType":"uint256","name":"taskId","type":"uint256"},{"indexed":false,"internalType":"string","name":"disputeURI","type":"string"}],"name":"SubmissionDisputed","type":"event"},{"anonymous":false,"inputs":[{"indexed":true,"internalType":"uint256","name":"taskId","type":"uint256"}],"name":"TaskAccepted","type":"event"},{"anonymous":false,"inputs":[{"indexed":true,"internalType":"uint256","name":"taskId","type":"uint256"}],"name":"TaskCancelled","type":"event"},{"anonymous":false,"inputs":[{"indexed":true,"internalType":"uint256","name":"taskId","type":"uint256"},{"indexed":false,"internalType":"uint256","name":"amount","type":"uint256"}],"name":"TaskFunded","type":"event"},{"anonymous":false,"inputs":[{"indexed":true,"internalType":"uint256","name":"taskId","type":"uint256"},{"indexed":true,"internalType":"uint256","name":"listingId","type":"uint256"},{"indexed":true,"internalType":"uint256","name":"agentId","type":"uint256"},{"indexed":false,"internalType":"address","name":"buyer","type":"address"},{"indexed":false,"internalType":"string","name":"taskURI","type":"string"},{"indexed":false,"internalType":"uint32","name":"proposedUnits","type":"uint32"}],"name":"TaskPosted","type":"event"},{"anonymous":false,"inputs":[{"indexed":true,"internalType":"uint256","name":"taskId","type":"uint256"},{"indexed":false,"internalType":"uint256","name":"buyerPayout","type":"uint256"},{"indexed":false,"internalType":"uint256","name":"sellerBondRefund","type":"uint256"}],"name":"TaskSettled","type":"event"},{"inputs":[{"internalType":"uint256","name":"taskId","type":"uint256"}],"name":"acceptQuote","outputs":[],"stateMutability":"nonpayable","type":"function"},{"inputs":[{"internalType":"uint256","name":"taskId","type":"uint256"}],"name":"acceptSubmission","outputs":[],"stateMutability":"nonpayable","type":"function"},{"inputs":[{"internalType":"uint256","name":"taskId","type":"uint256"}],"name":"acceptTask","outputs":[],"stateMutability":"nonpayable","type":"function"},{"inputs":[{"internalType":"uint256","name":"taskId","type":"uint256"}],"name":"cancelTask","outputs":[],"stateMutability":"nonpayable","type":"function"},{"inputs":[],"name":"disputeModule","outputs":[{"internalType":"address","name":"","type":"address"}],"stateMutability":"view","type":"function"},{"inputs":[{"internalType":"uint256","name":"taskId","type":"uint256"},{"internalType":"string","name":"disputeURI","type":"string"}],"name":"disputeSubmission","outputs":[],"stateMutability":"nonpayable","type":"function"},{"inputs":[{"internalType":"uint256","name":"taskId","type":"uint256"},{"internalType":"uint256","name":"amount","type":"uint256"}],"name":"fundSellerBond","outputs":[],"stateMutability":"nonpayable","type":"function"},{"inputs":[{"internalType":"uint256","name":"taskId","type":"uint256"},{"internalType":"uint256","name":"amount","type":"uint256"}],"name":"fundTask","outputs":[],"stateMutability":"nonpayable","type":"function"},{"inputs":[{"internalType":"uint256","name":"taskId","type":"uint256"}],"name":"getTask","outputs":[{"components":[{"internalType":"uint256","name":"id","type":"uint256"},{"internalType":"uint256","name":"listingId","type":"uint256"},{"internalType":"uint256","name":"agentId","type":"uint256"},{"internalType":"address","name":"buyer","type":"address"},{"internalType":"address","name":"paymentToken","type":"address"},{"internalType":"string","name":"taskURI","type":"string"},{"internalType":"uint32","name":"proposedUnits","type":"uint32"},{"internalType":"uint32","name":"quotedUnits","type":"uint32"},{"internalType":"uint256","name":"quotedTotalPrice","type":"uint256"},{"internalType":"uint64","name":"quoteExpiry","type":"uint64"},{"internalType":"uint256","name":"fundedAmount","type":"uint256"},{"internalType":"uint256","name":"sellerBond","type":"uint256"},{"internalType":"string","name":"artifactURI","type":"string"},{"internalType":"bytes32","name":"artifactHash","type":"bytes32"},{"internalType":"uint64","name":"submittedAt","type":"uint64"},{"internalType":"enum TaskMarket.TaskStatus","name":"status","type":"uint8"},{"internalType":"bool","name":"settled","type":"bool"}],"internalType":"struct TaskMarket.Task","name":"","type":"tuple"}],"stateMutability":"view","type":"function"},{"inputs":[],"name":"identityRegistry","outputs":[{"internalType":"contract IAgentIdentityRegistry","name":"","type":"address"}],"stateMutability":"view","type":"function"},{"inputs":[],"name":"listingRegistry","outputs":[{"internalType":"contract IListingRegistry","name":"","type":"address"}],"stateMutability":"view","type":"function"},{"inputs":[{"internalType":"uint256","name":"taskId","type":"uint256"},{"internalType":"string","name":"disputeURI","type":"string"}],"name":"markDisputed","outputs":[],"stateMutability":"nonpayable","type":"function"},{"inputs":[],"name":"owner","outputs":[{"internalType":"address","name":"","type":"address"}],"stateMutability":"view","type":"function"},{"inputs":[{"internalType":"uint256","name":"listingId","type":"uint256"},{"internalType":"string","name":"taskURI","type":"string"},{"internalType":"uint32","name":"proposedUnits","type":"uint32"}],"name":"postTask","outputs":[{"internalType":"uint256","name":"taskId","type":"uint256"}],"stateMutability":"nonpayable","type":"function"},{"inputs":[{"internalType":"uint256","name":"taskId","type":"uint256"},{"internalType":"uint32","name":"quotedUnits","type":"uint32"},{"internalType":"uint256","name":"quotedTotalPrice","type":"uint256"},{"internalType":"uint64","name":"expiry","type":"uint64"}],"name":"proposeQuote","outputs":[],"stateMutability":"nonpayable","type":"function"},{"inputs":[{"internalType":"uint256","name":"taskId","type":"uint256"},{"internalType":"enum TaskMarket.DisputeOutcome","name":"outcome","type":"uint8"},{"internalType":"string","name":"","type":"string"}],"name":"resolveDispute","outputs":[],"stateMutability":"nonpayable","type":"function"},{"inputs":[{"internalType":"address","name":"disputeModule_","type":"address"}],"name":"setDisputeModule","outputs":[],"stateMutability":"nonpayable","type":"function"},{"inputs":[{"internalType":"uint256","name":"taskId","type":"uint256"}],"name":"settleAfterTimeout","outputs":[],"stateMutability":"nonpayable","type":"function"},{"inputs":[{"internalType":"uint256","name":"taskId","type":"uint256"},{"internalType":"string","name":"artifactURI","type":"string"},{"internalType":"bytes32","name":"artifactHash","type":"bytes32"}],"name":"submitDeliverable","outputs":[],"stateMutability":"nonpayable","type":"function"}],"evm":{"bytecode":{"linkReferences":{},"object":"60c0346200013557601f62002d5b38819003918201601f19168301916001600160401b038311848410176200013a57808492604094855283398101031262000135576200005a6020620000528362000150565b920162000150565b60016002556001600160a01b03918216801580156200012a575b620000e5576080521660a052600180546001600160a01b03191633179055604051612bf59081620001668239608051818181610429015281816114a80152818161185c01528181611fe0015281816121be01526128e7015260a051818181612134015281816126ee01526129970152f35b60405162461bcd60e51b815260206004820152601960248201527f5461736b4d61726b65743a207a65726f207265676973747279000000000000006044820152606490fd5b508282161562000074565b600080fd5b634e487b7160e01b600052604160045260246000fd5b51906001600160a01b0382168203620001355756fe6080604052600436101561001257600080fd5b6000803560e01c806309c1216214612163578063134e18f41461211e5780631bf6912d14611f795780631d65e77e14611c975780634d4780d814611a2e5780635d7ffe7b1461188b5780635ebf3e9b1461184657806365309ef014611447578063703bc777146111905780637eec20a814610f5a57806383562af014610f335780638da5cb5b14610f0a5780639a28569614610c80578063a36a3f0514610b57578063c316939c146106d5578063d15f10cc14610644578063d53dd2fe14610397578063f8895d03146102a15763fb46e448146100ee57600080fd5b3461029e576100fc36612317565b83549091906001600160a01b0390811690811561025a5761011c8561265f565b60ff600d82015460401c1660078110156102465760030361020157600301541633036101c3578492813b156101bf578361017a9560405196879586948593630dbda47160e21b8552600485015260406024850152604484019161263e565b03925af180156101b45761018c575080f35b6001600160401b0381116101a05760405280f35b634e487b7160e01b82526041600452602482fd5b6040513d84823e3d90fd5b8380fd5b60405162461bcd60e51b81526020600482015260166024820152755461736b4d61726b65743a206275796572206f6e6c7960501b6044820152606490fd5b60405162461bcd60e51b815260206004820152601960248201527f5461736b4d61726b65743a206e6f74207375626d6974746564000000000000006044820152606490fd5b634e487b7160e01b88526021600452602488fd5b606460405162461bcd60e51b815260206004820152602060248201527f5461736b4d61726b65743a2064697370757465206d6f64756c6520756e7365746044820152fd5b80fd5b503461029e576102b036612317565b83549091906001600160a01b0316330361035257600d6102cf8461265f565b019182549260ff8460401c16600781101561033e5760030361020157680400000000000000007fa31322732033276beb48899da1e6866e664256162867c5bb5543f89413bddd489460ff60401b191617905561033860405192839260208452602084019161263e565b0390a280f35b634e487b7160e01b87526021600452602487fd5b60405162461bcd60e51b815260206004820152601f60248201527f5461736b4d61726b65743a2064697370757465206d6f64756c65206f6e6c79006044820152606490fd5b503461029e57608036600319011261029e5760043560243563ffffffff80821680830361064057604435606435906001600160401b03821680920361063c576103df8661265f565b93600d85019060ff825460401c166007811015610628576105ec5761040760028701546126cb565b600186015460405163083d13a560e11b815260048101919091529089826024817f00000000000000000000000000000000000000000000000000000000000000006001600160a01b03165afa80156105e1578a928b916105b5575b5015610570578515918215610560575b8215610550575b505061050b576008856104cf7fcfac2d148a555a2bdaf0b0ca7587b6adbbac290bf1c04c4fdd916085368b9041986006606099019067ffffffff0000000082549160201b169067ffffffff000000001916179055565b83600782015501836001600160401b0319825416179055600160401b60ff60401b1982541617905560405192835260208301526040820152a280f35b60405162461bcd60e51b815260206004820152601960248201527f5461736b4d61726b65743a20696e76616c69642071756f7465000000000000006044820152606490fd5b60a0015116851190503880610479565b6080810151821687109250610472565b60405162461bcd60e51b815260206004820152601c60248201527f5461736b4d61726b65743a206c697374696e6720696e616374697665000000006044820152606490fd5b90506105d49192503d808c833e6105cc818361237c565b8101906123cf565b9493505090509138610462565b6040513d8c823e3d90fd5b60405162461bcd60e51b81526020600482015260146024820152732a30b9b5a6b0b935b2ba1d103737ba1037b832b760611b6044820152606490fd5b634e487b7160e01b8a52602160045260248afd5b8680fd5b8480fd5b503461029e57602036600319011261029e576004356106628161265f565b60ff600d82015460401c1660078110156106c1576003036102015760038101546001600160a01b031633036101c35761069a90612a14565b7fc06839bcad0f42098a40a244b05a3c106c986ea7d726b4ee618475b858eaefb98280a280f35b634e487b7160e01b84526021600452602484fd5b503461029e57606036600319011261029e57602480356004811015610b5357604480356001600160401b038111610640576107149036906004016122ea565b505083546001600160a01b039390841633036103525761073560043561265f565b91600d83019485549460ff8660401c166007811015610b4057600403610afd5780610ac257508687965b60ff8760481c16610a7f57600986015490818311610a2c57600a87015497888a116109db57896107ac856107c096956107ba9561010560401b6107b29661ffff60401b1916179055612a07565b99612a07565b988992612529565b96612529565b90856108f8575b81610804575b87877f06748d41c3bbc7ce6edfac1d0ee8396c063bb3cfa1a9df96375e07137a8170d660408989549382519182526020820152a280f35b6108559160209160048701541661081e600288015461297a565b60405163a9059cbb60e01b81526001600160a01b0390911660048201526024810192909252909283919082908b9082906044820190565b03925af19081156108ed5787916108b3575b50156108745780806107cd565b907815185cdad3585c9ad95d0e881c185e5bdd5d0819985a5b1959603a1b60649260196040519362461bcd60e51b855260206004860152840152820152fd5b90506020813d6020116108e5575b816108ce6020938361237c565b8101031261063c576108df906123c2565b38610867565b3d91506108c1565b6040513d89823e3d90fd5b600485810154600387015460405163a9059cbb60e01b81529084166001600160a01b0316928101929092526024820188905260209082908416818c816044810103925af19081156109d0578991610992575b506107c75760405162461bcd60e51b815260206004820152601f818601527f5461736b4d61726b65743a206275796572207061796f7574206661696c65640081850152606490fd5b90506020813d6020116109c8575b816109ad6020938361237c565b810103126109c4576109be906123c2565b3861094a565b8880fd5b3d91506109a0565b6040513d8b823e3d90fd5b60405162461bcd60e51b8152602060048201526025818901527f5461736b4d61726b65743a206275796572207061796f75742065786365656473818801526408189bdb9960da1b6064820152608490fd5b60405162461bcd60e51b8152602060048201526027818801527f5461736b4d61726b65743a206275796572207061796f75742065786365656473818701526620657363726f7760c81b6064820152608490fd5b60405162461bcd60e51b815260206004820152601b818701527f5461736b4d61726b65743a20616c726561647920736574746c6564000000000081860152606490fd5b60018103610adb57506009840154600a8501549661075f565b600203610af157600984015460011c879661075f565b6009840154879661075f565b60405162461bcd60e51b8152602060048201526018818601527f5461736b4d61726b65743a206e6f74206469737075746564000000000000000081850152606490fd5b634e487b7160e01b895260216004528489fd5b8280fd5b503461029e57602036600319011261029e576004356001600160a01b0381811691829003610b535780600154163303610c42578115610bfd578254908116610ba9576001600160a01b03191617815580f35b60405162461bcd60e51b815260206004820152602660248201527f5461736b4d61726b65743a2064697370757465206d6f64756c6520616c726561604482015265191e481cd95d60d21b6064820152608490fd5b60405162461bcd60e51b815260206004820152601f60248201527f5461736b4d61726b65743a207a65726f2064697370757465206d6f64756c65006044820152606490fd5b60405162461bcd60e51b81526020600482015260166024820152755461736b4d61726b65743a206f776e6572206f6e6c7960501b6044820152606490fd5b503461029e57610c8f366122cf565b610c988261265f565b60ff600d82015460401c166007811015610ef657600103610eb857610cc060028201546126cb565b610cc9816128c5565b8015610e7357600a8201908154610e2e578303610dea578290556004908101546040516323b872dd60e01b8152339281019290925230602483015260448201839052602092919083908290606490829089906001600160a01b03165af1908115610ddf578591610daa575b5015610d6757907f03e157917fabbe1d418840c96b6bcc52532d3126409c286c11a4b2713d5afc0291604051908152a280f35b6064826040519062461bcd60e51b825280600483015260248201527f5461736b4d61726b65743a20626f6e64207472616e73666572206661696c65646044820152fd5b90508281813d8311610dd8575b610dc1818361237c565b8101031261064057610dd2906123c2565b38610d34565b503d610db7565b6040513d87823e3d90fd5b606460405162461bcd60e51b815260206004820152602060248201527f5461736b4d61726b65743a20626f6e6420616d6f756e74206d69736d617463686044820152fd5b60405162461bcd60e51b815260206004820152601f60248201527f5461736b4d61726b65743a20626f6e6420616c72656164792066756e646564006044820152606490fd5b60405162461bcd60e51b815260206004820152601960248201527f5461736b4d61726b65743a20626f6e642064697361626c6564000000000000006044820152606490fd5b60405162461bcd60e51b815260206004820152601660248201527515185cdad3585c9ad95d0e881b9bdd081c5d5bdd195960521b6044820152606490fd5b634e487b7160e01b85526021600452602485fd5b503461029e578060031936011261029e576001546040516001600160a01b039091168152602090f35b503461029e578060031936011261029e57546040516001600160a01b039091168152602090f35b503461029e5760208060031936011261118c5760043590610f7a8261265f565b60038101546001600160a01b0390811633036101c357600d8201805460ff8160401c166007811015610246578015159081611180575b5061113b5760098401546111015760ff60401b191668060000000000000000179055600a8201805490928682611009575b867fc6eacc3aa5b2aa77b5a826b832a804ca0b71830ec74f9aa57a15edd978c31ed68280a280f35b600286946110249261105b975560048401541692015461297a565b60405163a9059cbb60e01b81526001600160a01b039091166004820152602481019290925290928391908290889082906044820190565b03925af19081156110f65784916110c1575b501561107d578080808086610fe1565b6064906040519062461bcd60e51b82526004820152601e60248201527f5461736b4d61726b65743a20626f6e6420726566756e64206661696c656400006044820152fd5b90508181813d83116110ef575b6110d8818361237c565b810103126101bf576110e9906123c2565b3861106d565b503d6110ce565b6040513d86823e3d90fd5b60405162461bcd60e51b815260048101869052601260248201527115185cdad3585c9ad95d0e88199d5b99195960721b6044820152606490fd5b60405162461bcd60e51b815260048101869052601960248201527f5461736b4d61726b65743a2063616e6e6f742063616e63656c000000000000006044820152606490fd5b60019150141538610fb0565b5080fd5b503461029e57606036600319011261029e576004356001600160401b036024358181116101bf576111c59036906004016122ea565b9091604435906111d48561265f565b90600d82019160ff835460401c166007811015611433576002036113f5576111ff60028201546126cb565b6009810154156113b757600b81018286116113a35761121e815461255f565b601f811161135e575b508889601f88116001146112c657600360401b9387969593897f54e44868bdd954b3adcac5c4db169a94e6e0dbbf6db6a6f839f4907ffe70e20c9b9a9994600c94916112bb575b508960011b906000198b60031b1c19161790555b0155421668ffffffffffffffffff19835416171790556112af60405193849360408552604085019161263e565b9060208301520390a280f35b90508a01353861126e565b50818a526020808b209190601f198916908c905b8282106113465750509387969593899893600c937f54e44868bdd954b3adcac5c4db169a94e6e0dbbf6db6a6f839f4907ffe70e20c9c9b600360401b981061132c575b5050600189811b019055611282565b8b013560001960038c901b60f8161c19169055388061131d565b80600185968294968f013581550195019301906112da565b818a5260208a20601f880160051c81019160208910611399575b601f0160051c01905b81811061138e5750611227565b8a8155600101611381565b9091508190611378565b634e487b7160e01b89526041600452602489fd5b60405162461bcd60e51b815260206004820152601660248201527515185cdad3585c9ad95d0e881b9bdd08199d5b99195960521b6044820152606490fd5b60405162461bcd60e51b81526020600482015260166024820152755461736b4d61726b65743a206e6f742061637469766560501b6044820152606490fd5b634e487b7160e01b89526021600452602489fd5b503461029e57606036600319011261029e576024356001600160401b03811161118c576114789036906004016122ea565b9060443563ffffffff9283821682036106405760405163083d13a560e11b815260048035908201529385856024817f00000000000000000000000000000000000000000000000000000000000000006001600160a01b03165afa93841561183b57869487968891611814575b50156105705781608087015116828516108015611803575b6117be5785516001600160a01b03161561176e5760025495600019871461175a576001870160025586885260036020526040882090878255600435600183015586600283015560038201906bffffffffffffffffffffffff60a01b91338382541617905560018060a01b0390511660048301918254161790556001600160401b03841161174657611590600582015461255f565b601f81116116fe575b50918793918793602099601f85116001146116655786600d6116439493876040947f8d3a30e3561852057fd443ed411e87bb28f1060b9362a8bbc54c3473226fc04a9a9b9161165a575b508860011b906000198a60031b1c19161760058201555b60068101878c1663ffffffff198254161790550160ff60401b19815416905587815260048c5220600160ff198254161790556040519333855260608b860152606085019161263e565b9416604082015280600435940390a4604051908152f35b9050850135386115e3565b95906005810182528a8220825b601f19871681106116e4575091600d60409261164395947f8d3a30e3561852057fd443ed411e87bb28f1060b9362a8bbc54c3473226fc04a999a89601f198116106116ca575b5050600188811b0160058201556115fa565b86013560001960038b901b60f8161c1916905538806116b8565b848901358255978c01978b97506001909101908c01611672565b60058201895260208920601f860160051c8101916020871061173c575b601f0160051c01905b8181106117315750611599565b898155600101611724565b909150819061171b565b634e487b7160e01b88526041600452602488fd5b634e487b7160e01b88526011600452602488fd5b60405162461bcd60e51b815260206004820152602260248201527f5461736b4d61726b65743a207061796d656e7420746f6b656e20726571756972604482015261195960f21b6064820152608490fd5b60405162461bcd60e51b815260206004820152601e60248201527f5461736b4d61726b65743a20756e697473206f7574206f662072616e676500006044820152606490fd5b508160a087015116828516116114fc565b9195505061182d9195503d8088833e6105cc818361237c565b9197939692503890506114e4565b6040513d88823e3d90fd5b503461029e578060031936011261029e576040517f00000000000000000000000000000000000000000000000000000000000000006001600160a01b03168152602090f35b503461029e57602036600319011261029e576004356118a98161265f565b600d81019081549060ff8260401c166007811015611a1a57600103610eb85760038101546001600160a01b031633036101c3576001600160401b036008820154168015159081611a10575b506119cb57600981015480159081156119bc575b506113b757611916816128c5565b151590816119a4575b5061195f5760ff60401b1916680200000000000000001790557fcb5dabd033280bd65c614e3d9f2642181eb14366a70c3a04aab8bfb09696dbcf8280a280f35b60405162461bcd60e51b815260206004820152601b60248201527f5461736b4d61726b65743a20626f6e64206e6f742066756e64656400000000006044820152606490fd5b90506119b4600a820154916128c5565b14153861191f565b90506007820154141538611908565b60405162461bcd60e51b815260206004820152601960248201527f5461736b4d61726b65743a2071756f74652065787069726564000000000000006044820152606490fd5b90504211386118f4565b634e487b7160e01b86526021600452602486fd5b503461029e57611a3d366122cf565b611a468261265f565b60038101546001600160a01b039190821633036101c35760ff600d82015460401c166007811015611a1a57600103610eb8578215611c525760098101908154611c0d5760078101548015908115611c02575b50611bbd576001600160401b036008820154168015159081611bb3575b506119cb57908390556004908101546040516323b872dd60e01b8152339281019290925230602483015260448201849052602093928491839160649183918a91165af1908115610ddf578591611b7e575b5015611b3957907f9173a7ae2321b61f50303df6b321c38912ca2a1079fc80645cf01202be566c7691604051908152a280f35b60405162461bcd60e51b815260048101839052601b60248201527f5461736b4d61726b65743a207472616e73666572206661696c656400000000006044820152606490fd5b90508281813d8311611bac575b611b95818361237c565b8101031261064057611ba6906123c2565b38611b06565b503d611b8b565b9050421138611ab5565b60405162461bcd60e51b815260206004820152601b60248201527f5461736b4d61726b65743a20616d6f756e74206d69736d6174636800000000006044820152606490fd5b905084141538611a98565b60405162461bcd60e51b815260206004820152601a60248201527f5461736b4d61726b65743a20616c72656164792066756e6465640000000000006044820152606490fd5b60405162461bcd60e51b815260206004820152601760248201527f5461736b4d61726b65743a20616d6f756e74207a65726f0000000000000000006044820152606490fd5b503461029e57602036600319011261029e5780610200604051611cb98161234a565b828152826020820152826040820152826060820152826080820152606060a08201528260c08201528260e0820152826101008201528261012082015282610140820152826101608201526060610180820152826101a0820152826101c0820152826101e08201520152611d2d60043561265f565b90600d60405192611d3d8461234a565b80548452600181015460208501526002810154604085015260038101546001600160a01b0390811660608601526004820154166080850152611d8160058201612599565b60a085015263ffffffff600682015481811660c087015260201c1660e085015260078101546101008501526001600160401b036008820154166101208501526009810154610140850152600a810154610160850152611de2600b8201612599565b610180850152600c8101546101a085015201546001600160401b0381166101c0840152600760ff8260401c161015611f65578060ff809260401c166101e085015260481c161515610200830152604051906020825282516020830152602083015160408301526040830151606083015260018060a01b03606084015116608083015260018060a01b0360808401511660a0830152611f06611e9460a085015161022060c08601526102408501906122aa565b63ffffffff60c08601511660e085015263ffffffff60e0860151166101008501526101008501516101208501526001600160401b0361012086015116610140850152610140850151610160850152610160850151610180850152610180850151601f19858303016101a08601526122aa565b906101a08401516101c08401526001600160401b036101c0850151166101e08401526101e0840151906007821015611f51575082936102009182850152015115156102208301520390f35b634e487b7160e01b81526021600452602490fd5b634e487b7160e01b82526021600452602482fd5b503461029e57602036600319011261029e57600435611f978161265f565b600d81019060ff825460401c166007811015610ef6576105ec57611fbe60028201546126cb565b600181015460405163083d13a560e11b815260048101919091529084826024817f00000000000000000000000000000000000000000000000000000000000000006001600160a01b03165afa8015610ddf57859286916120fa575b50156105705760c08201516120b55760079061207b6020840151936120586006840195612052606063ffffffff8954169401518461254c565b90612529565b949067ffffffff0000000082549160201b169067ffffffff000000001916179055565b0155805460ff60401b1916600160401b1790557fb151e78b903fc62654c96f6bd667fc1b7a3230cc2345b2fc441ad60a885e032a8280a280f35b60405162461bcd60e51b815260206004820152601a60248201527f5461736b4d61726b65743a2071756f74652072657175697265640000000000006044820152606490fd5b90506121119192503d8087833e6105cc818361237c565b9493505090509138612019565b503461029e578060031936011261029e576040517f00000000000000000000000000000000000000000000000000000000000000006001600160a01b03168152602090f35b503461029e57602036600319011261029e5761218060043561265f565b600d81015460ff8160401c1660078110156106c15760030361020157600182015460405163083d13a560e11b815260048101919091529083826024817f00000000000000000000000000000000000000000000000000000000000000006001600160a01b03165afa80156110f65763ffffffff6001600160401b0391612211948791612268575b5051169116612529565b42106122235761222090612a14565b80f35b60405162461bcd60e51b815260206004820152601c60248201527f5461736b4d61726b65743a206368616c6c656e67652077696e646f77000000006044820152606490fd5b61227c91503d8089833e6105cc818361237c565b509250505038612207565b60005b83811061229a5750506000910152565b818101518382015260200161228a565b906020916122c381518092818552858086019101612287565b601f01601f1916010190565b60409060031901126122e5576004359060243590565b600080fd5b9181601f840112156122e5578235916001600160401b0383116122e557602083818601950101116122e557565b9060406003198301126122e55760043591602435906001600160401b0382116122e557612346916004016122ea565b9091565b61022081019081106001600160401b0382111761236657604052565b634e487b7160e01b600052604160045260246000fd5b90601f801991011681019081106001600160401b0382111761236657604052565b51906001600160a01b03821682036122e557565b519063ffffffff821682036122e557565b519081151582036122e557565b808203906101a082126122e55780519360209384830151906001600160401b03918281116122e55784019080601f830112156122e557815191838311612366576040928351926124288a601f19601f850116018561237c565b8184528982840101116122e55761244491898085019101612287565b9560e0603f198701126122e557815160e08101908082108583111761236657606091845261247384880161239d565b8152818701518382015260808701518482015260a08701518282015261249b60c088016123b1565b60808201526124ac60e088016123b1565b60a08201526124be61010088016123c2565b60c08201529661011f1901126122e55781519260608401908111848210176123665782526124ef61012086016123b1565b83526124fe61014086016123b1565b908301526101608401519161ffff831683036122e557612526926101809282015293016123c2565b90565b9190820180921161253657565b634e487b7160e01b600052601160045260246000fd5b8181029291811591840414171561253657565b90600182811c9216801561258f575b602083101461257957565b634e487b7160e01b600052602260045260246000fd5b91607f169161256e565b906040519182600082546125ac8161255f565b9081845260209460019160018116908160001461261c57506001146125dd575b5050506125db9250038361237c565b565b600090815285812095935091905b8183106126045750506125db93508201013880806125cc565b855488840185015294850194879450918301916125eb565b925050506125db94925060ff191682840152151560051b8201013880806125cc565b908060209392818452848401376000828201840152601f01601f1916010190565b80600052600460205260ff6040600020541615612686576000526003602052604060002090565b60405162461bcd60e51b815260206004820152601a60248201527f5461736b4d61726b65743a207461736b206e6f7420666f756e640000000000006044820152606490fd5b604080516331a9108f60e11b815260048101839052602092906001600160a01b037f00000000000000000000000000000000000000000000000000000000000000008116918581602481865afa908115612881578691839160009161288c575b50169384331415948561280c575b508461278f575b5050505061274c575050565b60649250519062461bcd60e51b82526004820152601a60248201527f5461736b4d61726b65743a206e6f7420617574686f72697a65640000000000006044820152fd5b9091929350602485518095819363020604bf60e21b835260048301525afa918215612801576000926127ca575b501633141538808481612740565b9091508381813d83116127fa575b6127e2818361237c565b810103126122e5576127f39061239d565b90386127bc565b503d6127d8565b83513d6000823e3d90fd5b9150935084519063e985e9c560e01b825260048201523360248201528581604481865afa9081156128815790869160009161284b575b50159338612739565b82819392503d831161287a575b612862818361237c565b810103126122e55761287486916123c2565b38612842565b503d612858565b85513d6000823e3d90fd5b928092508391503d83116128be575b6128a5818361237c565b810103126122e557816128b8879261239d565b3861272b565b503d61289b565b600181015460405163083d13a560e11b815260048101919091526000816024817f00000000000000000000000000000000000000000000000000000000000000006001600160a01b03165afa90811561296e5761ffff9160409160009161294e575b500151169081156129475761271091600761294392015461254c565b0490565b5050600090565b61296391503d806000833e6105cc818361237c565b509250505038612927565b6040513d6000823e3d90fd5b6040516331a9108f60e11b815260048101919091526020816024817f00000000000000000000000000000000000000000000000000000000000000006001600160a01b03165afa90811561296e576000916129d3575090565b90506020813d6020116129ff575b816129ee6020938361237c565b810103126122e5576125269061239d565b3d91506129e1565b9190820391821161253657565b600d8101805460ff8160481c16612b7a5761010560401b9061ffff60401b1916179055600981015490612a4c600a8201548093612529565b80612a88575b5060407f06748d41c3bbc7ce6edfac1d0ee8396c063bb3cfa1a9df96375e07137a8170d6915492815190600082526020820152a2565b6020612ae09160018060a01b03600485015416612aa8600286015461297a565b60405163a9059cbb60e01b81526001600160a01b03909116600482015260248101929092529092839190829060009082906044820190565b03925af190811561296e57600091612b40575b5015612aff5738612a52565b60405162461bcd60e51b815260206004820152601960248201527815185cdad3585c9ad95d0e881c185e5bdd5d0819985a5b1959603a1b6044820152606490fd5b90506020813d602011612b72575b81612b5b6020938361237c565b810103126122e557612b6c906123c2565b38612af3565b3d9150612b4e565b60405162461bcd60e51b815260206004820152601b60248201527f5461736b4d61726b65743a20616c726561647920736574746c656400000000006044820152606490fdfea2646970667358221220f6fd88418494686cb7dd753c0fe8a38c99d984c28361d6101636ac75941098ac64736f6c63430008180033","opcodes":"PUSH1 0xC0 CALLVALUE PUSH3 0x135 JUMPI PUSH1 0x1F PUSH3 0x2D5B CODESIZE DUP2 SWAP1 SUB SWAP2 DUP3 ADD PUSH1 0x1F NOT AND DUP4 ADD SWAP2 PUSH1 0x1 PUSH1 0x1 PUSH1 0x40 SHL SUB DUP4 GT DUP5 DUP5 LT OR PUSH3 0x13A JUMPI DUP1 DUP5 SWAP3 PUSH1 0x40 SWAP5 DUP6 MSTORE DUP4 CODECOPY DUP2 ADD SUB SLT PUSH3 0x135 JUMPI PUSH3 0x5A PUSH1 0x20 PUSH3 0x52 DUP4 PUSH3 0x150 JUMP JUMPDEST SWAP3 ADD PUSH3 0x150 JUMP JUMPDEST PUSH1 0x1 PUSH1 0x2 SSTORE PUSH1 0x1 PUSH1 0x1 PUSH1 0xA0 SHL SUB SWAP2 DUP3 AND DUP1 ISZERO DUP1 ISZERO PUSH3 0x12A JUMPI JUMPDEST PUSH3 0xE5 JUMPI PUSH1 0x80 MSTORE AND PUSH1 0xA0 MSTORE PUSH1 0x1 DUP1 SLOAD PUSH1 0x1 PUSH1 0x1 PUSH1 0xA0 SHL SUB NOT AND CALLER OR SWAP1 SSTORE PUSH1 0x40 MLOAD PUSH2 0x2BF5 SWAP1 DUP2 PUSH3 0x166 DUP3 CODECOPY PUSH1 0x80 MLOAD DUP2 DUP2 DUP2 PUSH2 0x429 ADD MSTORE DUP2 DUP2 PUSH2 0x14A8 ADD MSTORE DUP2 DUP2 PUSH2 0x185C ADD MSTORE DUP2 DUP2 PUSH2 0x1FE0 ADD MSTORE DUP2 DUP2 PUSH2 0x21BE ADD MSTORE PUSH2 0x28E7 ADD MSTORE PUSH1 0xA0 MLOAD DUP2 DUP2 DUP2 PUSH2 0x2134 ADD MSTORE DUP2 DUP2 PUSH2 0x26EE ADD MSTORE PUSH2 0x2997 ADD MSTORE RETURN JUMPDEST PUSH1 0x40 MLOAD PUSH3 0x461BCD PUSH1 0xE5 SHL DUP2 MSTORE PUSH1 0x20 PUSH1 0x4 DUP3 ADD MSTORE PUSH1 0x19 PUSH1 0x24 DUP3 ADD MSTORE PUSH32 0x5461736B4D61726B65743A207A65726F20726567697374727900000000000000 PUSH1 0x44 DUP3 ADD MSTORE PUSH1 0x64 SWAP1 REVERT JUMPDEST POP DUP3 DUP3 AND ISZERO PUSH3 0x74 JUMP JUMPDEST PUSH1 0x0 DUP1 REVERT JUMPDEST PUSH4 0x4E487B71 PUSH1 0xE0 SHL PUSH1 0x0 MSTORE PUSH1 0x41 PUSH1 0x4 MSTORE PUSH1 0x24 PUSH1 0x0 REVERT JUMPDEST MLOAD SWAP1 PUSH1 0x1 PUSH1 0x1 PUSH1 0xA0 SHL SUB DUP3 AND DUP3 SUB PUSH3 0x135 JUMPI JUMP INVALID PUSH1 0x80 PUSH1 0x40 MSTORE PUSH1 0x4 CALLDATASIZE LT ISZERO PUSH2 0x12 JUMPI PUSH1 0x0 DUP1 REVERT JUMPDEST PUSH1 0x0 DUP1 CALLDATALOAD PUSH1 0xE0 SHR DUP1 PUSH4 0x9C12162 EQ PUSH2 0x2163 JUMPI DUP1 PUSH4 0x134E18F4 EQ PUSH2 0x211E JUMPI DUP1 PUSH4 0x1BF6912D EQ PUSH2 0x1F79 JUMPI DUP1 PUSH4 0x1D65E77E EQ PUSH2 0x1C97 JUMPI DUP1 PUSH4 0x4D4780D8 EQ PUSH2 0x1A2E JUMPI DUP1 PUSH4 0x5D7FFE7B EQ PUSH2 0x188B JUMPI DUP1 PUSH4 0x5EBF3E9B EQ PUSH2 0x1846 JUMPI DUP1 PUSH4 0x65309EF0 EQ PUSH2 0x1447 JUMPI DUP1 PUSH4 0x703BC777 EQ PUSH2 0x1190 JUMPI DUP1 PUSH4 0x7EEC20A8 EQ PUSH2 0xF5A JUMPI DUP1 PUSH4 0x83562AF0 EQ PUSH2 0xF33 JUMPI DUP1 PUSH4 0x8DA5CB5B EQ PUSH2 0xF0A JUMPI DUP1 PUSH4 0x9A285696 EQ PUSH2 0xC80 JUMPI DUP1 PUSH4 0xA36A3F05 EQ PUSH2 0xB57 JUMPI DUP1 PUSH4 0xC316939C EQ PUSH2 0x6D5 JUMPI DUP1 PUSH4 0xD15F10CC EQ PUSH2 0x644 JUMPI DUP1 PUSH4 0xD53DD2FE EQ PUSH2 0x397 JUMPI DUP1 PUSH4 0xF8895D03 EQ PUSH2 0x2A1 JUMPI PUSH4 0xFB46E448 EQ PUSH2 0xEE JUMPI PUSH1 0x0 DUP1 REVERT JUMPDEST CALLVALUE PUSH2 0x29E JUMPI PUSH2 0xFC CALLDATASIZE PUSH2 0x2317 JUMP JUMPDEST DUP4 SLOAD SWAP1 SWAP2 SWAP1 PUSH1 0x1 PUSH1 0x1 PUSH1 0xA0 SHL SUB SWAP1 DUP2 AND SWAP1 DUP2 ISZERO PUSH2 0x25A JUMPI PUSH2 0x11C DUP6 PUSH2 0x265F JUMP JUMPDEST PUSH1 0xFF PUSH1 0xD DUP3 ADD SLOAD PUSH1 0x40 SHR AND PUSH1 0x7 DUP2 LT ISZERO PUSH2 0x246 JUMPI PUSH1 0x3 SUB PUSH2 0x201 JUMPI PUSH1 0x3 ADD SLOAD AND CALLER SUB PUSH2 0x1C3 JUMPI DUP5 SWAP3 DUP2 EXTCODESIZE ISZERO PUSH2 0x1BF JUMPI DUP4 PUSH2 0x17A SWAP6 PUSH1 0x40 MLOAD SWAP7 DUP8 SWAP6 DUP7 SWAP5 DUP6 SWAP4 PUSH4 0xDBDA471 PUSH1 0xE2 SHL DUP6 MSTORE PUSH1 0x4 DUP6 ADD MSTORE PUSH1 0x40 PUSH1 0x24 DUP6 ADD MSTORE PUSH1 0x44 DUP5 ADD SWAP2 PUSH2 0x263E JUMP JUMPDEST SUB SWAP3 GAS CALL DUP1 ISZERO PUSH2 0x1B4 JUMPI PUSH2 0x18C JUMPI POP DUP1 RETURN JUMPDEST PUSH1 0x1 PUSH1 0x1 PUSH1 0x40 SHL SUB DUP2 GT PUSH2 0x1A0 JUMPI PUSH1 0x40 MSTORE DUP1 RETURN JUMPDEST PUSH4 0x4E487B71 PUSH1 0xE0 SHL DUP3 MSTORE PUSH1 0x41 PUSH1 0x4 MSTORE PUSH1 0x24 DUP3 REVERT JUMPDEST PUSH1 0x40 MLOAD RETURNDATASIZE DUP5 DUP3 RETURNDATACOPY RETURNDATASIZE SWAP1 REVERT JUMPDEST DUP4 DUP1 REVERT JUMPDEST PUSH1 0x40 MLOAD PUSH3 0x461BCD PUSH1 0xE5 SHL DUP2 MSTORE PUSH1 0x20 PUSH1 0x4 DUP3 ADD MSTORE PUSH1 0x16 PUSH1 0x24 DUP3 ADD MSTORE PUSH22 0x5461736B4D61726B65743A206275796572206F6E6C79 PUSH1 0x50 SHL PUSH1 0x44 DUP3 ADD MSTORE PUSH1 0x64 SWAP1 REVERT JUMPDEST PUSH1 0x40 MLOAD PUSH3 0x461BCD PUSH1 0xE5 SHL DUP2 MSTORE PUSH1 0x20 PUSH1 0x4 DUP3 ADD MSTORE PUSH1 0x19 PUSH1 0x24 DUP3 ADD MSTORE PUSH32 0x5461736B4D61726B65743A206E6F74207375626D697474656400000000000000 PUSH1 0x44 DUP3 ADD MSTORE PUSH1 0x64 SWAP1 REVERT JUMPDEST PUSH4 0x4E487B71 PUSH1 0xE0 SHL DUP9 MSTORE PUSH1 0x21 PUSH1 0x4 MSTORE PUSH1 0x24 DUP9 REVERT JUMPDEST PUSH1 0x64 PUSH1 0x40 MLOAD PUSH3 0x461BCD PUSH1 0xE5 SHL DUP2 MSTORE PUSH1 0x20 PUSH1 0x4 DUP3 ADD MSTORE PUSH1 0x20 PUSH1 0x24 DUP3 ADD MSTORE PUSH32 0x5461736B4D61726B65743A2064697370757465206D6F64756C6520756E736574 PUSH1 0x44 DUP3 ADD MSTORE REVERT JUMPDEST DUP1 REVERT JUMPDEST POP CALLVALUE PUSH2 0x29E JUMPI PUSH2 0x2B0 CALLDATASIZE PUSH2 0x2317 JUMP JUMPDEST DUP4 SLOAD SWAP1 SWAP2 SWAP1 PUSH1 0x1 PUSH1 0x1 PUSH1 0xA0 SHL SUB AND CALLER SUB PUSH2 0x352 JUMPI PUSH1 0xD PUSH2 0x2CF DUP5 PUSH2 0x265F JUMP JUMPDEST ADD SWAP2 DUP3 SLOAD SWAP3 PUSH1 0xFF DUP5 PUSH1 0x40 SHR AND PUSH1 0x7 DUP2 LT ISZERO PUSH2 0x33E JUMPI PUSH1 0x3 SUB PUSH2 0x201 JUMPI PUSH9 0x40000000000000000 PUSH32 0xA31322732033276BEB48899DA1E6866E664256162867C5BB5543F89413BDDD48 SWAP5 PUSH1 0xFF PUSH1 0x40 SHL NOT AND OR SWAP1 SSTORE PUSH2 0x338 PUSH1 0x40 MLOAD SWAP3 DUP4 SWAP3 PUSH1 0x20 DUP5 MSTORE PUSH1 0x20 DUP5 ADD SWAP2 PUSH2 0x263E JUMP JUMPDEST SUB SWAP1 LOG2 DUP1 RETURN JUMPDEST PUSH4 0x4E487B71 PUSH1 0xE0 SHL DUP8 MSTORE PUSH1 0x21 PUSH1 0x4 MSTORE PUSH1 0x24 DUP8 REVERT JUMPDEST PUSH1 0x40 MLOAD PUSH3 0x461BCD PUSH1 0xE5 SHL DUP2 MSTORE PUSH1 0x20 PUSH1 0x4 DUP3 ADD MSTORE PUSH1 0x1F PUSH1 0x24 DUP3 ADD MSTORE PUSH32 0x5461736B4D61726B65743A2064697370757465206D6F64756C65206F6E6C7900 PUSH1 0x44 DUP3 ADD MSTORE PUSH1 0x64 SWAP1 REVERT JUMPDEST POP CALLVALUE PUSH2 0x29E JUMPI PUSH1 0x80 CALLDATASIZE PUSH1 0x3 NOT ADD SLT PUSH2 0x29E JUMPI PUSH1 0x4 CALLDATALOAD PUSH1 0x24 CALLDATALOAD PUSH4 0xFFFFFFFF DUP1 DUP3 AND DUP1 DUP4 SUB PUSH2 0x640 JUMPI PUSH1 0x44 CALLDATALOAD PUSH1 0x64 CALLDATALOAD SWAP1 PUSH1 0x1 PUSH1 0x1 PUSH1 0x40 SHL SUB DUP3 AND DUP1 SWAP3 SUB PUSH2 0x63C JUMPI PUSH2 0x3DF DUP7 PUSH2 0x265F JUMP JUMPDEST SWAP4 PUSH1 0xD DUP6 ADD SWAP1 PUSH1 0xFF DUP3 SLOAD PUSH1 0x40 SHR AND PUSH1 0x7 DUP2 LT ISZERO PUSH2 0x628 JUMPI PUSH2 0x5EC JUMPI PUSH2 0x407 PUSH1 0x2 DUP8 ADD SLOAD PUSH2 0x26CB JUMP JUMPDEST PUSH1 0x1 DUP7 ADD SLOAD PUSH1 0x40 MLOAD PUSH4 0x83D13A5 PUSH1 0xE1 SHL DUP2 MSTORE PUSH1 0x4 DUP2 ADD SWAP2 SWAP1 SWAP2 MSTORE SWAP1 DUP10 DUP3 PUSH1 0x24 DUP2 PUSH32 0x0 PUSH1 0x1 PUSH1 0x1 PUSH1 0xA0 SHL SUB AND GAS STATICCALL DUP1 ISZERO PUSH2 0x5E1 JUMPI DUP11 SWAP3 DUP12 SWAP2 PUSH2 0x5B5 JUMPI JUMPDEST POP ISZERO PUSH2 0x570 JUMPI DUP6 ISZERO SWAP2 DUP3 ISZERO PUSH2 0x560 JUMPI JUMPDEST DUP3 ISZERO PUSH2 0x550 JUMPI JUMPDEST POP POP PUSH2 0x50B JUMPI PUSH1 0x8 DUP6 PUSH2 0x4CF PUSH32 0xCFAC2D148A555A2BDAF0B0CA7587B6ADBBAC290BF1C04C4FDD916085368B9041 SWAP9 PUSH1 0x6 PUSH1 0x60 SWAP10 ADD SWAP1 PUSH8 0xFFFFFFFF00000000 DUP3 SLOAD SWAP2 PUSH1 0x20 SHL AND SWAP1 PUSH8 0xFFFFFFFF00000000 NOT AND OR SWAP1 SSTORE JUMP JUMPDEST DUP4 PUSH1 0x7 DUP3 ADD SSTORE ADD DUP4 PUSH1 0x1 PUSH1 0x1 PUSH1 0x40 SHL SUB NOT DUP3 SLOAD AND OR SWAP1 SSTORE PUSH1 0x1 PUSH1 0x40 SHL PUSH1 0xFF PUSH1 0x40 SHL NOT DUP3 SLOAD AND OR SWAP1 SSTORE PUSH1 0x40 MLOAD SWAP3 DUP4 MSTORE PUSH1 0x20 DUP4 ADD MSTORE PUSH1 0x40 DUP3 ADD MSTORE LOG2 DUP1 RETURN JUMPDEST PUSH1 0x40 MLOAD PUSH3 0x461BCD PUSH1 0xE5 SHL DUP2 MSTORE PUSH1 0x20 PUSH1 0x4 DUP3 ADD MSTORE PUSH1 0x19 PUSH1 0x24 DUP3 ADD MSTORE PUSH32 0x5461736B4D61726B65743A20696E76616C69642071756F746500000000000000 PUSH1 0x44 DUP3 ADD MSTORE PUSH1 0x64 SWAP1 REVERT JUMPDEST PUSH1 0xA0 ADD MLOAD AND DUP6 GT SWAP1 POP CODESIZE DUP1 PUSH2 0x479 JUMP JUMPDEST PUSH1 0x80 DUP2 ADD MLOAD DUP3 AND DUP8 LT SWAP3 POP PUSH2 0x472 JUMP JUMPDEST PUSH1 0x40 MLOAD PUSH3 0x461BCD PUSH1 0xE5 SHL DUP2 MSTORE PUSH1 0x20 PUSH1 0x4 DUP3 ADD MSTORE PUSH1 0x1C PUSH1 0x24 DUP3 ADD MSTORE PUSH32 0x5461736B4D61726B65743A206C697374696E6720696E61637469766500000000 PUSH1 0x44 DUP3 ADD MSTORE PUSH1 0x64 SWAP1 REVERT JUMPDEST SWAP1 POP PUSH2 0x5D4 SWAP2 SWAP3 POP RETURNDATASIZE DUP1 DUP13 DUP4 RETURNDATACOPY PUSH2 0x5CC DUP2 DUP4 PUSH2 0x237C JUMP JUMPDEST DUP2 ADD SWAP1 PUSH2 0x23CF JUMP JUMPDEST SWAP5 SWAP4 POP POP SWAP1 POP SWAP2 CODESIZE PUSH2 0x462 JUMP JUMPDEST PUSH1 0x40 MLOAD RETURNDATASIZE DUP13 DUP3 RETURNDATACOPY RETURNDATASIZE SWAP1 REVERT JUMPDEST PUSH1 0x40 MLOAD PUSH3 0x461BCD PUSH1 0xE5 SHL DUP2 MSTORE PUSH1 0x20 PUSH1 0x4 DUP3 ADD MSTORE PUSH1 0x14 PUSH1 0x24 DUP3 ADD MSTORE PUSH20 0x2A30B9B5A6B0B935B2BA1D103737BA1037B832B7 PUSH1 0x61 SHL PUSH1 0x44 DUP3 ADD MSTORE PUSH1 0x64 SWAP1 REVERT JUMPDEST PUSH4 0x4E487B71 PUSH1 0xE0 SHL DUP11 MSTORE PUSH1 0x21 PUSH1 0x4 MSTORE PUSH1 0x24 DUP11 REVERT JUMPDEST DUP7 DUP1 REVERT JUMPDEST DUP5 DUP1 REVERT JUMPDEST POP CALLVALUE PUSH2 0x29E JUMPI PUSH1 0x20 CALLDATASIZE PUSH1 0x3 NOT ADD SLT PUSH2 0x29E JUMPI PUSH1 0x4 CALLDATALOAD PUSH2 0x662 DUP2 PUSH2 0x265F JUMP JUMPDEST PUSH1 0xFF PUSH1 0xD DUP3 ADD SLOAD PUSH1 0x40 SHR AND PUSH1 0x7 DUP2 LT ISZERO PUSH2 0x6C1 JUMPI PUSH1 0x3 SUB PUSH2 0x201 JUMPI PUSH1 0x3 DUP2 ADD SLOAD PUSH1 0x1 PUSH1 0x1 PUSH1 0xA0 SHL SUB AND CALLER SUB PUSH2 0x1C3 JUMPI PUSH2 0x69A SWAP1 PUSH2 0x2A14 JUMP JUMPDEST PUSH32 0xC06839BCAD0F42098A40A244B05A3C106C986EA7D726B4EE618475B858EAEFB9 DUP3 DUP1 LOG2 DUP1 RETURN JUMPDEST PUSH4 0x4E487B71 PUSH1 0xE0 SHL DUP5 MSTORE PUSH1 0x21 PUSH1 0x4 MSTORE PUSH1 0x24 DUP5 REVERT JUMPDEST POP CALLVALUE PUSH2 0x29E JUMPI PUSH1 0x60 CALLDATASIZE PUSH1 0x3 NOT ADD SLT PUSH2 0x29E JUMPI PUSH1 0x24 DUP1 CALLDATALOAD PUSH1 0x4 DUP2 LT ISZERO PUSH2 0xB53 JUMPI PUSH1 0x44 DUP1 CALLDATALOAD PUSH1 0x1 PUSH1 0x1 PUSH1 0x40 SHL SUB DUP2 GT PUSH2 0x640 JUMPI PUSH2 0x714 SWAP1 CALLDATASIZE SWAP1 PUSH1 0x4 ADD PUSH2 0x22EA JUMP JUMPDEST POP POP DUP4 SLOAD PUSH1 0x1 PUSH1 0x1 PUSH1 0xA0 SHL SUB SWAP4 SWAP1 DUP5 AND CALLER SUB PUSH2 0x352 JUMPI PUSH2 0x735 PUSH1 0x4 CALLDATALOAD PUSH2 0x265F JUMP JUMPDEST SWAP2 PUSH1 0xD DUP4 ADD SWAP5 DUP6 SLOAD SWAP5 PUSH1 0xFF DUP7 PUSH1 0x40 SHR AND PUSH1 0x7 DUP2 LT ISZERO PUSH2 0xB40 JUMPI PUSH1 0x4 SUB PUSH2 0xAFD JUMPI DUP1 PUSH2 0xAC2 JUMPI POP DUP7 DUP8 SWAP7 JUMPDEST PUSH1 0xFF DUP8 PUSH1 0x48 SHR AND PUSH2 0xA7F JUMPI PUSH1 0x9 DUP7 ADD SLOAD SWAP1 DUP2 DUP4 GT PUSH2 0xA2C JUMPI PUSH1 0xA DUP8 ADD SLOAD SWAP8 DUP9 DUP11 GT PUSH2 0x9DB JUMPI DUP10 PUSH2 0x7AC DUP6 PUSH2 0x7C0 SWAP7 SWAP6 PUSH2 0x7BA SWAP6 PUSH2 0x105 PUSH1 0x40 SHL PUSH2 0x7B2 SWAP7 PUSH2 0xFFFF PUSH1 0x40 SHL NOT AND OR SWAP1 SSTORE PUSH2 0x2A07 JUMP JUMPDEST SWAP10 PUSH2 0x2A07 JUMP JUMPDEST SWAP9 DUP10 SWAP3 PUSH2 0x2529 JUMP JUMPDEST SWAP7 PUSH2 0x2529 JUMP JUMPDEST SWAP1 DUP6 PUSH2 0x8F8 JUMPI JUMPDEST DUP2 PUSH2 0x804 JUMPI JUMPDEST DUP8 DUP8 PUSH32 0x6748D41C3BBC7CE6EDFAC1D0EE8396C063BB3CFA1A9DF96375E07137A8170D6 PUSH1 0x40 DUP10 DUP10 SLOAD SWAP4 DUP3 MLOAD SWAP2 DUP3 MSTORE PUSH1 0x20 DUP3 ADD MSTORE LOG2 DUP1 RETURN JUMPDEST PUSH2 0x855 SWAP2 PUSH1 0x20 SWAP2 PUSH1 0x4 DUP8 ADD SLOAD AND PUSH2 0x81E PUSH1 0x2 DUP9 ADD SLOAD PUSH2 0x297A JUMP JUMPDEST PUSH1 0x40 MLOAD PUSH4 0xA9059CBB PUSH1 0xE0 SHL DUP2 MSTORE PUSH1 0x1 PUSH1 0x1 PUSH1 0xA0 SHL SUB SWAP1 SWAP2 AND PUSH1 0x4 DUP3 ADD MSTORE PUSH1 0x24 DUP2 ADD SWAP3 SWAP1 SWAP3 MSTORE SWAP1 SWAP3 DUP4 SWAP2 SWAP1 DUP3 SWAP1 DUP12 SWAP1 DUP3 SWAP1 PUSH1 0x44 DUP3 ADD SWAP1 JUMP JUMPDEST SUB SWAP3 GAS CALL SWAP1 DUP2 ISZERO PUSH2 0x8ED JUMPI DUP8 SWAP2 PUSH2 0x8B3 JUMPI JUMPDEST POP ISZERO PUSH2 0x874 JUMPI DUP1 DUP1 PUSH2 0x7CD JUMP JUMPDEST SWAP1 PUSH25 0x15185CDAD3585C9AD95D0E881C185E5BDD5D0819985A5B1959 PUSH1 0x3A SHL PUSH1 0x64 SWAP3 PUSH1 0x19 PUSH1 0x40 MLOAD SWAP4 PUSH3 0x461BCD PUSH1 0xE5 SHL DUP6 MSTORE PUSH1 0x20 PUSH1 0x4 DUP7 ADD MSTORE DUP5 ADD MSTORE DUP3 ADD MSTORE REVERT JUMPDEST SWAP1 POP PUSH1 0x20 DUP2 RETURNDATASIZE PUSH1 0x20 GT PUSH2 0x8E5 JUMPI JUMPDEST DUP2 PUSH2 0x8CE PUSH1 0x20 SWAP4 DUP4 PUSH2 0x237C JUMP JUMPDEST DUP2 ADD SUB SLT PUSH2 0x63C JUMPI PUSH2 0x8DF SWAP1 PUSH2 0x23C2 JUMP JUMPDEST CODESIZE PUSH2 0x867 JUMP JUMPDEST RETURNDATASIZE SWAP2 POP PUSH2 0x8C1 JUMP JUMPDEST PUSH1 0x40 MLOAD RETURNDATASIZE DUP10 DUP3 RETURNDATACOPY RETURNDATASIZE SWAP1 REVERT JUMPDEST PUSH1 0x4 DUP6 DUP2 ADD SLOAD PUSH1 0x3 DUP8 ADD SLOAD PUSH1 0x40 MLOAD PUSH4 0xA9059CBB PUSH1 0xE0 SHL DUP2 MSTORE SWAP1 DUP5 AND PUSH1 0x1 PUSH1 0x1 PUSH1 0xA0 SHL SUB AND SWAP3 DUP2 ADD SWAP3 SWAP1 SWAP3 MSTORE PUSH1 0x24 DUP3 ADD DUP9 SWAP1 MSTORE PUSH1 0x20 SWAP1 DUP3 SWAP1 DUP5 AND DUP2 DUP13 DUP2 PUSH1 0x44 DUP2 ADD SUB SWAP3 GAS CALL SWAP1 DUP2 ISZERO PUSH2 0x9D0 JUMPI DUP10 SWAP2 PUSH2 0x992 JUMPI JUMPDEST POP PUSH2 0x7C7 JUMPI PUSH1 0x40 MLOAD PUSH3 0x461BCD PUSH1 0xE5 SHL DUP2 MSTORE PUSH1 0x20 PUSH1 0x4 DUP3 ADD MSTORE PUSH1 0x1F DUP2 DUP7 ADD MSTORE PUSH32 0x5461736B4D61726B65743A206275796572207061796F7574206661696C656400 DUP2 DUP6 ADD MSTORE PUSH1 0x64 SWAP1 REVERT JUMPDEST SWAP1 POP PUSH1 0x20 DUP2 RETURNDATASIZE PUSH1 0x20 GT PUSH2 0x9C8 JUMPI JUMPDEST DUP2 PUSH2 0x9AD PUSH1 0x20 SWAP4 DUP4 PUSH2 0x237C JUMP JUMPDEST DUP2 ADD SUB SLT PUSH2 0x9C4 JUMPI PUSH2 0x9BE SWAP1 PUSH2 0x23C2 JUMP JUMPDEST CODESIZE PUSH2 0x94A JUMP JUMPDEST DUP9 DUP1 REVERT JUMPDEST RETURNDATASIZE SWAP2 POP PUSH2 0x9A0 JUMP JUMPDEST PUSH1 0x40 MLOAD RETURNDATASIZE DUP12 DUP3 RETURNDATACOPY RETURNDATASIZE SWAP1 REVERT JUMPDEST PUSH1 0x40 MLOAD PUSH3 0x461BCD PUSH1 0xE5 SHL DUP2 MSTORE PUSH1 0x20 PUSH1 0x4 DUP3 ADD MSTORE PUSH1 0x25 DUP2 DUP10 ADD MSTORE PUSH32 0x5461736B4D61726B65743A206275796572207061796F75742065786365656473 DUP2 DUP9 ADD MSTORE PUSH5 0x8189BDB99 PUSH1 0xDA SHL PUSH1 0x64 DUP3 ADD MSTORE PUSH1 0x84 SWAP1 REVERT JUMPDEST PUSH1 0x40 MLOAD PUSH3 0x461BCD PUSH1 0xE5 SHL DUP2 MSTORE PUSH1 0x20 PUSH1 0x4 DUP3 ADD MSTORE PUSH1 0x27 DUP2 DUP9 ADD MSTORE PUSH32 0x5461736B4D61726B65743A206275796572207061796F75742065786365656473 DUP2 DUP8 ADD MSTORE PUSH7 0x20657363726F77 PUSH1 0xC8 SHL PUSH1 0x64 DUP3 ADD MSTORE PUSH1 0x84 SWAP1 REVERT JUMPDEST PUSH1 0x40 MLOAD PUSH3 0x461BCD PUSH1 0xE5 SHL DUP2 MSTORE PUSH1 0x20 PUSH1 0x4 DUP3 ADD MSTORE PUSH1 0x1B DUP2 DUP8 ADD MSTORE PUSH32 0x5461736B4D61726B65743A20616C726561647920736574746C65640000000000 DUP2 DUP7 ADD MSTORE PUSH1 0x64 SWAP1 REVERT JUMPDEST PUSH1 0x1 DUP2 SUB PUSH2 0xADB JUMPI POP PUSH1 0x9 DUP5 ADD SLOAD PUSH1 0xA DUP6 ADD SLOAD SWAP7 PUSH2 0x75F JUMP JUMPDEST PUSH1 0x2 SUB PUSH2 0xAF1 JUMPI PUSH1 0x9 DUP5 ADD SLOAD PUSH1 0x1 SHR DUP8 SWAP7 PUSH2 0x75F JUMP JUMPDEST PUSH1 0x9 DUP5 ADD SLOAD DUP8 SWAP7 PUSH2 0x75F JUMP JUMPDEST PUSH1 0x40 MLOAD PUSH3 0x461BCD PUSH1 0xE5 SHL DUP2 MSTORE PUSH1 0x20 PUSH1 0x4 DUP3 ADD MSTORE PUSH1 0x18 DUP2 DUP7 ADD MSTORE PUSH32 0x5461736B4D61726B65743A206E6F742064697370757465640000000000000000 DUP2 DUP6 ADD MSTORE PUSH1 0x64 SWAP1 REVERT JUMPDEST PUSH4 0x4E487B71 PUSH1 0xE0 SHL DUP10 MSTORE PUSH1 0x21 PUSH1 0x4 MSTORE DUP5 DUP10 REVERT JUMPDEST DUP3 DUP1 REVERT JUMPDEST POP CALLVALUE PUSH2 0x29E JUMPI PUSH1 0x20 CALLDATASIZE PUSH1 0x3 NOT ADD SLT PUSH2 0x29E JUMPI PUSH1 0x4 CALLDATALOAD PUSH1 0x1 PUSH1 0x1 PUSH1 0xA0 SHL SUB DUP2 DUP2 AND SWAP2 DUP3 SWAP1 SUB PUSH2 0xB53 JUMPI DUP1 PUSH1 0x1 SLOAD AND CALLER SUB PUSH2 0xC42 JUMPI DUP2 ISZERO PUSH2 0xBFD JUMPI DUP3 SLOAD SWAP1 DUP2 AND PUSH2 0xBA9 JUMPI PUSH1 0x1 PUSH1 0x1 PUSH1 0xA0 SHL SUB NOT AND OR DUP2 SSTORE DUP1 RETURN JUMPDEST PUSH1 0x40 MLOAD PUSH3 0x461BCD PUSH1 0xE5 SHL DUP2 MSTORE PUSH1 0x20 PUSH1 0x4 DUP3 ADD MSTORE PUSH1 0x26 PUSH1 0x24 DUP3 ADD MSTORE PUSH32 0x5461736B4D61726B65743A2064697370757465206D6F64756C6520616C726561 PUSH1 0x44 DUP3 ADD MSTORE PUSH6 0x191E481CD95D PUSH1 0xD2 SHL PUSH1 0x64 DUP3 ADD MSTORE PUSH1 0x84 SWAP1 REVERT JUMPDEST PUSH1 0x40 MLOAD PUSH3 0x461BCD PUSH1 0xE5 SHL DUP2 MSTORE PUSH1 0x20 PUSH1 0x4 DUP3 ADD MSTORE PUSH1 0x1F PUSH1 0x24 DUP3 ADD MSTORE PUSH32 0x5461736B4D61726B65743A207A65726F2064697370757465206D6F64756C6500 PUSH1 0x44 DUP3 ADD MSTORE PUSH1 0x64 SWAP1 REVERT JUMPDEST PUSH1 0x40 MLOAD PUSH3 0x461BCD PUSH1 0xE5 SHL DUP2 MSTORE PUSH1 0x20 PUSH1 0x4 DUP3 ADD MSTORE PUSH1 0x16 PUSH1 0x24 DUP3 ADD MSTORE PUSH22 0x5461736B4D61726B65743A206F776E6572206F6E6C79 PUSH1 0x50 SHL PUSH1 0x44 DUP3 ADD MSTORE PUSH1 0x64 SWAP1 REVERT JUMPDEST POP CALLVALUE PUSH2 0x29E JUMPI PUSH2 0xC8F CALLDATASIZE PUSH2 0x22CF JUMP JUMPDEST PUSH2 0xC98 DUP3 PUSH2 0x265F JUMP JUMPDEST PUSH1 0xFF PUSH1 0xD DUP3 ADD SLOAD PUSH1 0x40 SHR AND PUSH1 0x7 DUP2 LT ISZERO PUSH2 0xEF6 JUMPI PUSH1 0x1 SUB PUSH2 0xEB8 JUMPI PUSH2 0xCC0 PUSH1 0x2 DUP3 ADD SLOAD PUSH2 0x26CB JUMP JUMPDEST PUSH2 0xCC9 DUP2 PUSH2 0x28C5 JUMP JUMPDEST DUP1 ISZERO PUSH2 0xE73 JUMPI PUSH1 0xA DUP3 ADD SWAP1 DUP2 SLOAD PUSH2 0xE2E JUMPI DUP4 SUB PUSH2 0xDEA JUMPI DUP3 SWAP1 SSTORE PUSH1 0x4 SWAP1 DUP2 ADD SLOAD PUSH1 0x40 MLOAD PUSH4 0x23B872DD PUSH1 0xE0 SHL DUP2 MSTORE CALLER SWAP3 DUP2 ADD SWAP3 SWAP1 SWAP3 MSTORE ADDRESS PUSH1 0x24 DUP4 ADD MSTORE PUSH1 0x44 DUP3 ADD DUP4 SWAP1 MSTORE PUSH1 0x20 SWAP3 SWAP2 SWAP1 DUP4 SWAP1 DUP3 SWAP1 PUSH1 0x64 SWAP1 DUP3 SWAP1 DUP10 SWAP1 PUSH1 0x1 PUSH1 0x1 PUSH1 0xA0 SHL SUB AND GAS CALL SWAP1 DUP2 ISZERO PUSH2 0xDDF JUMPI DUP6 SWAP2 PUSH2 0xDAA JUMPI JUMPDEST POP ISZERO PUSH2 0xD67 JUMPI SWAP1 PUSH32 0x3E157917FABBE1D418840C96B6BCC52532D3126409C286C11A4B2713D5AFC02 SWAP2 PUSH1 0x40 MLOAD SWAP1 DUP2 MSTORE LOG2 DUP1 RETURN JUMPDEST PUSH1 0x64 DUP3 PUSH1 0x40 MLOAD SWAP1 PUSH3 0x461BCD PUSH1 0xE5 SHL DUP3 MSTORE DUP1 PUSH1 0x4 DUP4 ADD MSTORE PUSH1 0x24 DUP3 ADD MSTORE PUSH32 0x5461736B4D61726B65743A20626F6E64207472616E73666572206661696C6564 PUSH1 0x44 DUP3 ADD MSTORE REVERT JUMPDEST SWAP1 POP DUP3 DUP2 DUP2 RETURNDATASIZE DUP4 GT PUSH2 0xDD8 JUMPI JUMPDEST PUSH2 0xDC1 DUP2 DUP4 PUSH2 0x237C JUMP JUMPDEST DUP2 ADD SUB SLT PUSH2 0x640 JUMPI PUSH2 0xDD2 SWAP1 PUSH2 0x23C2 JUMP JUMPDEST CODESIZE PUSH2 0xD34 JUMP JUMPDEST POP RETURNDATASIZE PUSH2 0xDB7 JUMP JUMPDEST PUSH1 0x40 MLOAD RETURNDATASIZE DUP8 DUP3 RETURNDATACOPY RETURNDATASIZE SWAP1 REVERT JUMPDEST PUSH1 0x64 PUSH1 0x40 MLOAD PUSH3 0x461BCD PUSH1 0xE5 SHL DUP2 MSTORE PUSH1 0x20 PUSH1 0x4 DUP3 ADD MSTORE PUSH1 0x20 PUSH1 0x24 DUP3 ADD MSTORE PUSH32 0x5461736B4D61726B65743A20626F6E6420616D6F756E74206D69736D61746368 PUSH1 0x44 DUP3 ADD MSTORE REVERT JUMPDEST PUSH1 0x40 MLOAD PUSH3 0x461BCD PUSH1 0xE5 SHL DUP2 MSTORE PUSH1 0x20 PUSH1 0x4 DUP3 ADD MSTORE PUSH1 0x1F PUSH1 0x24 DUP3 ADD MSTORE PUSH32 0x5461736B4D61726B65743A20626F6E6420616C72656164792066756E64656400 PUSH1 0x44 DUP3 ADD MSTORE PUSH1 0x64 SWAP1 REVERT JUMPDEST PUSH1 0x40 MLOAD PUSH3 0x461BCD PUSH1 0xE5 SHL DUP2 MSTORE PUSH1 0x20 PUSH1 0x4 DUP3 ADD MSTORE PUSH1 0x19 PUSH1 0x24 DUP3 ADD MSTORE PUSH32 0x5461736B4D61726B65743A20626F6E642064697361626C656400000000000000 PUSH1 0x44 DUP3 ADD MSTORE PUSH1 0x64 SWAP1 REVERT JUMPDEST PUSH1 0x40 MLOAD PUSH3 0x461BCD PUSH1 0xE5 SHL DUP2 MSTORE PUSH1 0x20 PUSH1 0x4 DUP3 ADD MSTORE PUSH1 0x16 PUSH1 0x24 DUP3 ADD MSTORE PUSH22 0x15185CDAD3585C9AD95D0E881B9BDD081C5D5BDD1959 PUSH1 0x52 SHL PUSH1 0x44 DUP3 ADD MSTORE PUSH1 0x64 SWAP1 REVERT JUMPDEST PUSH4 0x4E487B71 PUSH1 0xE0 SHL DUP6 MSTORE PUSH1 0x21 PUSH1 0x4 MSTORE PUSH1 0x24 DUP6 REVERT JUMPDEST POP CALLVALUE PUSH2 0x29E JUMPI DUP1 PUSH1 0x3 NOT CALLDATASIZE ADD SLT PUSH2 0x29E JUMPI PUSH1 0x1 SLOAD PUSH1 0x40 MLOAD PUSH1 0x1 PUSH1 0x1 PUSH1 0xA0 SHL SUB SWAP1 SWAP2 AND DUP2 MSTORE PUSH1 0x20 SWAP1 RETURN JUMPDEST POP CALLVALUE PUSH2 0x29E JUMPI DUP1 PUSH1 0x3 NOT CALLDATASIZE ADD SLT PUSH2 0x29E JUMPI SLOAD PUSH1 0x40 MLOAD PUSH1 0x1 PUSH1 0x1 PUSH1 0xA0 SHL SUB SWAP1 SWAP2 AND DUP2 MSTORE PUSH1 0x20 SWAP1 RETURN JUMPDEST POP CALLVALUE PUSH2 0x29E JUMPI PUSH1 0x20 DUP1 PUSH1 0x3 NOT CALLDATASIZE ADD SLT PUSH2 0x118C JUMPI PUSH1 0x4 CALLDATALOAD SWAP1 PUSH2 0xF7A DUP3 PUSH2 0x265F JUMP JUMPDEST PUSH1 0x3 DUP2 ADD SLOAD PUSH1 0x1 PUSH1 0x1 PUSH1 0xA0 SHL SUB SWAP1 DUP2 AND CALLER SUB PUSH2 0x1C3 JUMPI PUSH1 0xD DUP3 ADD DUP1 SLOAD PUSH1 0xFF DUP2 PUSH1 0x40 SHR AND PUSH1 0x7 DUP2 LT ISZERO PUSH2 0x246 JUMPI DUP1 ISZERO ISZERO SWAP1 DUP2 PUSH2 0x1180 JUMPI JUMPDEST POP PUSH2 0x113B JUMPI PUSH1 0x9 DUP5 ADD SLOAD PUSH2 0x1101 JUMPI PUSH1 0xFF PUSH1 0x40 SHL NOT AND PUSH9 0x60000000000000000 OR SWAP1 SSTORE PUSH1 0xA DUP3 ADD DUP1 SLOAD SWAP1 SWAP3 DUP7 DUP3 PUSH2 0x1009 JUMPI JUMPDEST DUP7 PUSH32 0xC6EACC3AA5B2AA77B5A826B832A804CA0B71830EC74F9AA57A15EDD978C31ED6 DUP3 DUP1 LOG2 DUP1 RETURN JUMPDEST PUSH1 0x2 DUP7 SWAP5 PUSH2 0x1024 SWAP3 PUSH2 0x105B SWAP8 SSTORE PUSH1 0x4 DUP5 ADD SLOAD AND SWAP3 ADD SLOAD PUSH2 0x297A JUMP JUMPDEST PUSH1 0x40 MLOAD PUSH4 0xA9059CBB PUSH1 0xE0 SHL DUP2 MSTORE PUSH1 0x1 PUSH1 0x1 PUSH1 0xA0 SHL SUB SWAP1 SWAP2 AND PUSH1 0x4 DUP3 ADD MSTORE PUSH1 0x24 DUP2 ADD SWAP3 SWAP1 SWAP3 MSTORE SWAP1 SWAP3 DUP4 SWAP2 SWAP1 DUP3 SWAP1 DUP9 SWAP1 DUP3 SWAP1 PUSH1 0x44 DUP3 ADD SWAP1 JUMP JUMPDEST SUB SWAP3 GAS CALL SWAP1 DUP2 ISZERO PUSH2 0x10F6 JUMPI DUP5 SWAP2 PUSH2 0x10C1 JUMPI JUMPDEST POP ISZERO PUSH2 0x107D JUMPI DUP1 DUP1 DUP1 DUP1 DUP7 PUSH2 0xFE1 JUMP JUMPDEST PUSH1 0x64 SWAP1 PUSH1 0x40 MLOAD SWAP1 PUSH3 0x461BCD PUSH1 0xE5 SHL DUP3 MSTORE PUSH1 0x4 DUP3 ADD MSTORE PUSH1 0x1E PUSH1 0x24 DUP3 ADD MSTORE PUSH32 0x5461736B4D61726B65743A20626F6E6420726566756E64206661696C65640000 PUSH1 0x44 DUP3 ADD MSTORE REVERT JUMPDEST SWAP1 POP DUP2 DUP2 DUP2 RETURNDATASIZE DUP4 GT PUSH2 0x10EF JUMPI JUMPDEST PUSH2 0x10D8 DUP2 DUP4 PUSH2 0x237C JUMP JUMPDEST DUP2 ADD SUB SLT PUSH2 0x1BF JUMPI PUSH2 0x10E9 SWAP1 PUSH2 0x23C2 JUMP JUMPDEST CODESIZE PUSH2 0x106D JUMP JUMPDEST POP RETURNDATASIZE PUSH2 0x10CE JUMP JUMPDEST PUSH1 0x40 MLOAD RETURNDATASIZE DUP7 DUP3 RETURNDATACOPY RETURNDATASIZE SWAP1 REVERT JUMPDEST PUSH1 0x40 MLOAD PUSH3 0x461BCD PUSH1 0xE5 SHL DUP2 MSTORE PUSH1 0x4 DUP2 ADD DUP7 SWAP1 MSTORE PUSH1 0x12 PUSH1 0x24 DUP3 ADD MSTORE PUSH18 0x15185CDAD3585C9AD95D0E88199D5B991959 PUSH1 0x72 SHL PUSH1 0x44 DUP3 ADD MSTORE PUSH1 0x64 SWAP1 REVERT JUMPDEST PUSH1 0x40 MLOAD PUSH3 0x461BCD PUSH1 0xE5 SHL DUP2 MSTORE PUSH1 0x4 DUP2 ADD DUP7 SWAP1 MSTORE PUSH1 0x19 PUSH1 0x24 DUP3 ADD MSTORE PUSH32 0x5461736B4D61726B65743A2063616E6E6F742063616E63656C00000000000000 PUSH1 0x44 DUP3 ADD MSTORE PUSH1 0x64 SWAP1 REVERT JUMPDEST PUSH1 0x1 SWAP2 POP EQ ISZERO CODESIZE PUSH2 0xFB0 JUMP JUMPDEST POP DUP1 REVERT JUMPDEST POP CALLVALUE PUSH2 0x29E JUMPI PUSH1 0x60 CALLDATASIZE PUSH1 0x3 NOT ADD SLT PUSH2 0x29E JUMPI PUSH1 0x4 CALLDATALOAD PUSH1 0x1 PUSH1 0x1 PUSH1 0x40 SHL SUB PUSH1 0x24 CALLDATALOAD DUP2 DUP2 GT PUSH2 0x1BF JUMPI PUSH2 0x11C5 SWAP1 CALLDATASIZE SWAP1 PUSH1 0x4 ADD PUSH2 0x22EA JUMP JUMPDEST SWAP1 SWAP2 PUSH1 0x44 CALLDATALOAD SWAP1 PUSH2 0x11D4 DUP6 PUSH2 0x265F JUMP JUMPDEST SWAP1 PUSH1 0xD DUP3 ADD SWAP2 PUSH1 0xFF DUP4 SLOAD PUSH1 0x40 SHR AND PUSH1 0x7 DUP2 LT ISZERO PUSH2 0x1433 JUMPI PUSH1 0x2 SUB PUSH2 0x13F5 JUMPI PUSH2 0x11FF PUSH1 0x2 DUP3 ADD SLOAD PUSH2 0x26CB JUMP JUMPDEST PUSH1 0x9 DUP2 ADD SLOAD ISZERO PUSH2 0x13B7 JUMPI PUSH1 0xB DUP2 ADD DUP3 DUP7 GT PUSH2 0x13A3 JUMPI PUSH2 0x121E DUP2 SLOAD PUSH2 0x255F JUMP JUMPDEST PUSH1 0x1F DUP2 GT PUSH2 0x135E JUMPI JUMPDEST POP DUP9 DUP10 PUSH1 0x1F DUP9 GT PUSH1 0x1 EQ PUSH2 0x12C6 JUMPI PUSH1 0x3 PUSH1 0x40 SHL SWAP4 DUP8 SWAP7 SWAP6 SWAP4 DUP10 PUSH32 0x54E44868BDD954B3ADCAC5C4DB169A94E6E0DBBF6DB6A6F839F4907FFE70E20C SWAP12 SWAP11 SWAP10 SWAP5 PUSH1 0xC SWAP5 SWAP2 PUSH2 0x12BB JUMPI JUMPDEST POP DUP10 PUSH1 0x1 SHL SWAP1 PUSH1 0x0 NOT DUP12 PUSH1 0x3 SHL SHR NOT AND OR SWAP1 SSTORE JUMPDEST ADD SSTORE TIMESTAMP AND PUSH9 0xFFFFFFFFFFFFFFFFFF NOT DUP4 SLOAD AND OR OR SWAP1 SSTORE PUSH2 0x12AF PUSH1 0x40 MLOAD SWAP4 DUP5 SWAP4 PUSH1 0x40 DUP6 MSTORE PUSH1 0x40 DUP6 ADD SWAP2 PUSH2 0x263E JUMP JUMPDEST SWAP1 PUSH1 0x20 DUP4 ADD MSTORE SUB SWAP1 LOG2 DUP1 RETURN JUMPDEST SWAP1 POP DUP11 ADD CALLDATALOAD CODESIZE PUSH2 0x126E JUMP JUMPDEST POP DUP2 DUP11 MSTORE PUSH1 0x20 DUP1 DUP12 KECCAK256 SWAP2 SWAP1 PUSH1 0x1F NOT DUP10 AND SWAP1 DUP13 SWAP1 JUMPDEST DUP3 DUP3 LT PUSH2 0x1346 JUMPI POP POP SWAP4 DUP8 SWAP7 SWAP6 SWAP4 DUP10 SWAP9 SWAP4 PUSH1 0xC SWAP4 PUSH32 0x54E44868BDD954B3ADCAC5C4DB169A94E6E0DBBF6DB6A6F839F4907FFE70E20C SWAP13 SWAP12 PUSH1 0x3 PUSH1 0x40 SHL SWAP9 LT PUSH2 0x132C JUMPI JUMPDEST POP POP PUSH1 0x1 DUP10 DUP2 SHL ADD SWAP1 SSTORE PUSH2 0x1282 JUMP JUMPDEST DUP12 ADD CALLDATALOAD PUSH1 0x0 NOT PUSH1 0x3 DUP13 SWAP1 SHL PUSH1 0xF8 AND SHR NOT AND SWAP1 SSTORE CODESIZE DUP1 PUSH2 0x131D JUMP JUMPDEST DUP1 PUSH1 0x1 DUP6 SWAP7 DUP3 SWAP5 SWAP7 DUP16 ADD CALLDATALOAD DUP2 SSTORE ADD SWAP6 ADD SWAP4 ADD SWAP1 PUSH2 0x12DA JUMP JUMPDEST DUP2 DUP11 MSTORE PUSH1 0x20 DUP11 KECCAK256 PUSH1 0x1F DUP9 ADD PUSH1 0x5 SHR DUP2 ADD SWAP2 PUSH1 0x20 DUP10 LT PUSH2 0x1399 JUMPI JUMPDEST PUSH1 0x1F ADD PUSH1 0x5 SHR ADD SWAP1 JUMPDEST DUP2 DUP2 LT PUSH2 0x138E JUMPI POP PUSH2 0x1227 JUMP JUMPDEST DUP11 DUP2 SSTORE PUSH1 0x1 ADD PUSH2 0x1381 JUMP JUMPDEST SWAP1 SWAP2 POP DUP2 SWAP1 PUSH2 0x1378 JUMP JUMPDEST PUSH4 0x4E487B71 PUSH1 0xE0 SHL DUP10 MSTORE PUSH1 0x41 PUSH1 0x4 MSTORE PUSH1 0x24 DUP10 REVERT JUMPDEST PUSH1 0x40 MLOAD PUSH3 0x461BCD PUSH1 0xE5 SHL DUP2 MSTORE PUSH1 0x20 PUSH1 0x4 DUP3 ADD MSTORE PUSH1 0x16 PUSH1 0x24 DUP3 ADD MSTORE PUSH22 0x15185CDAD3585C9AD95D0E881B9BDD08199D5B991959 PUSH1 0x52 SHL PUSH1 0x44 DUP3 ADD MSTORE PUSH1 0x64 SWAP1 REVERT JUMPDEST PUSH1 0x40 MLOAD PUSH3 0x461BCD PUSH1 0xE5 SHL DUP2 MSTORE PUSH1 0x20 PUSH1 0x4 DUP3 ADD MSTORE PUSH1 0x16 PUSH1 0x24 DUP3 ADD MSTORE PUSH22 0x5461736B4D61726B65743A206E6F7420616374697665 PUSH1 0x50 SHL PUSH1 0x44 DUP3 ADD MSTORE PUSH1 0x64 SWAP1 REVERT JUMPDEST PUSH4 0x4E487B71 PUSH1 0xE0 SHL DUP10 MSTORE PUSH1 0x21 PUSH1 0x4 MSTORE PUSH1 0x24 DUP10 REVERT JUMPDEST POP CALLVALUE PUSH2 0x29E JUMPI PUSH1 0x60 CALLDATASIZE PUSH1 0x3 NOT ADD SLT PUSH2 0x29E JUMPI PUSH1 0x24 CALLDATALOAD PUSH1 0x1 PUSH1 0x1 PUSH1 0x40 SHL SUB DUP2 GT PUSH2 0x118C JUMPI PUSH2 0x1478 SWAP1 CALLDATASIZE SWAP1 PUSH1 0x4 ADD PUSH2 0x22EA JUMP JUMPDEST SWAP1 PUSH1 0x44 CALLDATALOAD PUSH4 0xFFFFFFFF SWAP3 DUP4 DUP3 AND DUP3 SUB PUSH2 0x640 JUMPI PUSH1 0x40 MLOAD PUSH4 0x83D13A5 PUSH1 0xE1 SHL DUP2 MSTORE PUSH1 0x4 DUP1 CALLDATALOAD SWAP1 DUP3 ADD MSTORE SWAP4 DUP6 DUP6 PUSH1 0x24 DUP2 PUSH32 0x0 PUSH1 0x1 PUSH1 0x1 PUSH1 0xA0 SHL SUB AND GAS STATICCALL SWAP4 DUP5 ISZERO PUSH2 0x183B JUMPI DUP7 SWAP5 DUP8 SWAP7 DUP9 SWAP2 PUSH2 0x1814 JUMPI JUMPDEST POP ISZERO PUSH2 0x570 JUMPI DUP2 PUSH1 0x80 DUP8 ADD MLOAD AND DUP3 DUP6 AND LT DUP1 ISZERO PUSH2 0x1803 JUMPI JUMPDEST PUSH2 0x17BE JUMPI DUP6 MLOAD PUSH1 0x1 PUSH1 0x1 PUSH1 0xA0 SHL SUB AND ISZERO PUSH2 0x176E JUMPI PUSH1 0x2 SLOAD SWAP6 PUSH1 0x0 NOT DUP8 EQ PUSH2 0x175A JUMPI PUSH1 0x1 DUP8 ADD PUSH1 0x2 SSTORE DUP7 DUP9 MSTORE PUSH1 0x3 PUSH1 0x20 MSTORE PUSH1 0x40 DUP9 KECCAK256 SWAP1 DUP8 DUP3 SSTORE PUSH1 0x4 CALLDATALOAD PUSH1 0x1 DUP4 ADD SSTORE DUP7 PUSH1 0x2 DUP4 ADD SSTORE PUSH1 0x3 DUP3 ADD SWAP1 PUSH12 0xFFFFFFFFFFFFFFFFFFFFFFFF PUSH1 0xA0 SHL SWAP2 CALLER DUP4 DUP3 SLOAD AND OR SWAP1 SSTORE PUSH1 0x1 DUP1 PUSH1 0xA0 SHL SUB SWAP1 MLOAD AND PUSH1 0x4 DUP4 ADD SWAP2 DUP3 SLOAD AND OR SWAP1 SSTORE PUSH1 0x1 PUSH1 0x1 PUSH1 0x40 SHL SUB DUP5 GT PUSH2 0x1746 JUMPI PUSH2 0x1590 PUSH1 0x5 DUP3 ADD SLOAD PUSH2 0x255F JUMP JUMPDEST PUSH1 0x1F DUP2 GT PUSH2 0x16FE JUMPI JUMPDEST POP SWAP2 DUP8 SWAP4 SWAP2 DUP8 SWAP4 PUSH1 0x20 SWAP10 PUSH1 0x1F DUP6 GT PUSH1 0x1 EQ PUSH2 0x1665 JUMPI DUP7 PUSH1 0xD PUSH2 0x1643 SWAP5 SWAP4 DUP8 PUSH1 0x40 SWAP5 PUSH32 0x8D3A30E3561852057FD443ED411E87BB28F1060B9362A8BBC54C3473226FC04A SWAP11 SWAP12 SWAP2 PUSH2 0x165A JUMPI JUMPDEST POP DUP9 PUSH1 0x1 SHL SWAP1 PUSH1 0x0 NOT DUP11 PUSH1 0x3 SHL SHR NOT AND OR PUSH1 0x5 DUP3 ADD SSTORE JUMPDEST PUSH1 0x6 DUP2 ADD DUP8 DUP13 AND PUSH4 0xFFFFFFFF NOT DUP3 SLOAD AND OR SWAP1 SSTORE ADD PUSH1 0xFF PUSH1 0x40 SHL NOT DUP2 SLOAD AND SWAP1 SSTORE DUP8 DUP2 MSTORE PUSH1 0x4 DUP13 MSTORE KECCAK256 PUSH1 0x1 PUSH1 0xFF NOT DUP3 SLOAD AND OR SWAP1 SSTORE PUSH1 0x40 MLOAD SWAP4 CALLER DUP6 MSTORE PUSH1 0x60 DUP12 DUP7 ADD MSTORE PUSH1 0x60 DUP6 ADD SWAP2 PUSH2 0x263E JUMP JUMPDEST SWAP5 AND PUSH1 0x40 DUP3 ADD MSTORE DUP1 PUSH1 0x4 CALLDATALOAD SWAP5 SUB SWAP1 LOG4 PUSH1 0x40 MLOAD SWAP1 DUP2 MSTORE RETURN JUMPDEST SWAP1 POP DUP6 ADD CALLDATALOAD CODESIZE PUSH2 0x15E3 JUMP JUMPDEST SWAP6 SWAP1 PUSH1 0x5 DUP2 ADD DUP3 MSTORE DUP11 DUP3 KECCAK256 DUP3 JUMPDEST PUSH1 0x1F NOT DUP8 AND DUP2 LT PUSH2 0x16E4 JUMPI POP SWAP2 PUSH1 0xD PUSH1 0x40 SWAP3 PUSH2 0x1643 SWAP6 SWAP5 PUSH32 0x8D3A30E3561852057FD443ED411E87BB28F1060B9362A8BBC54C3473226FC04A SWAP10 SWAP11 DUP10 PUSH1 0x1F NOT DUP2 AND LT PUSH2 0x16CA JUMPI JUMPDEST POP POP PUSH1 0x1 DUP9 DUP2 SHL ADD PUSH1 0x5 DUP3 ADD SSTORE PUSH2 0x15FA JUMP JUMPDEST DUP7 ADD CALLDATALOAD PUSH1 0x0 NOT PUSH1 0x3 DUP12 SWAP1 SHL PUSH1 0xF8 AND SHR NOT AND SWAP1 SSTORE CODESIZE DUP1 PUSH2 0x16B8 JUMP JUMPDEST DUP5 DUP10 ADD CALLDATALOAD DUP3 SSTORE SWAP8 DUP13 ADD SWAP8 DUP12 SWAP8 POP PUSH1 0x1 SWAP1 SWAP2 ADD SWAP1 DUP13 ADD PUSH2 0x1672 JUMP JUMPDEST PUSH1 0x5 DUP3 ADD DUP10 MSTORE PUSH1 0x20 DUP10 KECCAK256 PUSH1 0x1F DUP7 ADD PUSH1 0x5 SHR DUP2 ADD SWAP2 PUSH1 0x20 DUP8 LT PUSH2 0x173C JUMPI JUMPDEST PUSH1 0x1F ADD PUSH1 0x5 SHR ADD SWAP1 JUMPDEST DUP2 DUP2 LT PUSH2 0x1731 JUMPI POP PUSH2 0x1599 JUMP JUMPDEST DUP10 DUP2 SSTORE PUSH1 0x1 ADD PUSH2 0x1724 JUMP JUMPDEST SWAP1 SWAP2 POP DUP2 SWAP1 PUSH2 0x171B JUMP JUMPDEST PUSH4 0x4E487B71 PUSH1 0xE0 SHL DUP9 MSTORE PUSH1 0x41 PUSH1 0x4 MSTORE PUSH1 0x24 DUP9 REVERT JUMPDEST PUSH4 0x4E487B71 PUSH1 0xE0 SHL DUP9 MSTORE PUSH1 0x11 PUSH1 0x4 MSTORE PUSH1 0x24 DUP9 REVERT JUMPDEST PUSH1 0x40 MLOAD PUSH3 0x461BCD PUSH1 0xE5 SHL DUP2 MSTORE PUSH1 0x20 PUSH1 0x4 DUP3 ADD MSTORE PUSH1 0x22 PUSH1 0x24 DUP3 ADD MSTORE PUSH32 0x5461736B4D61726B65743A207061796D656E7420746F6B656E20726571756972 PUSH1 0x44 DUP3 ADD MSTORE PUSH2 0x1959 PUSH1 0xF2 SHL PUSH1 0x64 DUP3 ADD MSTORE PUSH1 0x84 SWAP1 REVERT JUMPDEST PUSH1 0x40 MLOAD PUSH3 0x461BCD PUSH1 0xE5 SHL DUP2 MSTORE PUSH1 0x20 PUSH1 0x4 DUP3 ADD MSTORE PUSH1 0x1E PUSH1 0x24 DUP3 ADD MSTORE PUSH32 0x5461736B4D61726B65743A20756E697473206F7574206F662072616E67650000 PUSH1 0x44 DUP3 ADD MSTORE PUSH1 0x64 SWAP1 REVERT JUMPDEST POP DUP2 PUSH1 0xA0 DUP8 ADD MLOAD AND DUP3 DUP6 AND GT PUSH2 0x14FC JUMP JUMPDEST SWAP2 SWAP6 POP POP PUSH2 0x182D SWAP2 SWAP6 POP RETURNDATASIZE DUP1 DUP9 DUP4 RETURNDATACOPY PUSH2 0x5CC DUP2 DUP4 PUSH2 0x237C JUMP JUMPDEST SWAP2 SWAP8 SWAP4 SWAP7 SWAP3 POP CODESIZE SWAP1 POP PUSH2 0x14E4 JUMP JUMPDEST PUSH1 0x40 MLOAD RETURNDATASIZE DUP9 DUP3 RETURNDATACOPY RETURNDATASIZE SWAP1 REVERT JUMPDEST POP CALLVALUE PUSH2 0x29E JUMPI DUP1 PUSH1 0x3 NOT CALLDATASIZE ADD SLT PUSH2 0x29E JUMPI PUSH1 0x40 MLOAD PUSH32 0x0 PUSH1 0x1 PUSH1 0x1 PUSH1 0xA0 SHL SUB AND DUP2 MSTORE PUSH1 0x20 SWAP1 RETURN JUMPDEST POP CALLVALUE PUSH2 0x29E JUMPI PUSH1 0x20 CALLDATASIZE PUSH1 0x3 NOT ADD SLT PUSH2 0x29E JUMPI PUSH1 0x4 CALLDATALOAD PUSH2 0x18A9 DUP2 PUSH2 0x265F JUMP JUMPDEST PUSH1 0xD DUP2 ADD SWAP1 DUP2 SLOAD SWAP1 PUSH1 0xFF DUP3 PUSH1 0x40 SHR AND PUSH1 0x7 DUP2 LT ISZERO PUSH2 0x1A1A JUMPI PUSH1 0x1 SUB PUSH2 0xEB8 JUMPI PUSH1 0x3 DUP2 ADD SLOAD PUSH1 0x1 PUSH1 0x1 PUSH1 0xA0 SHL SUB AND CALLER SUB PUSH2 0x1C3 JUMPI PUSH1 0x1 PUSH1 0x1 PUSH1 0x40 SHL SUB PUSH1 0x8 DUP3 ADD SLOAD AND DUP1 ISZERO ISZERO SWAP1 DUP2 PUSH2 0x1A10 JUMPI JUMPDEST POP PUSH2 0x19CB JUMPI PUSH1 0x9 DUP2 ADD SLOAD DUP1 ISZERO SWAP1 DUP2 ISZERO PUSH2 0x19BC JUMPI JUMPDEST POP PUSH2 0x13B7 JUMPI PUSH2 0x1916 DUP2 PUSH2 0x28C5 JUMP JUMPDEST ISZERO ISZERO SWAP1 DUP2 PUSH2 0x19A4 JUMPI JUMPDEST POP PUSH2 0x195F JUMPI PUSH1 0xFF PUSH1 0x40 SHL NOT AND PUSH9 0x20000000000000000 OR SWAP1 SSTORE PUSH32 0xCB5DABD033280BD65C614E3D9F2642181EB14366A70C3A04AAB8BFB09696DBCF DUP3 DUP1 LOG2 DUP1 RETURN JUMPDEST PUSH1 0x40 MLOAD PUSH3 0x461BCD PUSH1 0xE5 SHL DUP2 MSTORE PUSH1 0x20 PUSH1 0x4 DUP3 ADD MSTORE PUSH1 0x1B PUSH1 0x24 DUP3 ADD MSTORE PUSH32 0x5461736B4D61726B65743A20626F6E64206E6F742066756E6465640000000000 PUSH1 0x44 DUP3 ADD MSTORE PUSH1 0x64 SWAP1 REVERT JUMPDEST SWAP1 POP PUSH2 0x19B4 PUSH1 0xA DUP3 ADD SLOAD SWAP2 PUSH2 0x28C5 JUMP JUMPDEST EQ ISZERO CODESIZE PUSH2 0x191F JUMP JUMPDEST SWAP1 POP PUSH1 0x7 DUP3 ADD SLOAD EQ ISZERO CODESIZE PUSH2 0x1908 JUMP JUMPDEST PUSH1 0x40 MLOAD PUSH3 0x461BCD PUSH1 0xE5 SHL DUP2 MSTORE PUSH1 0x20 PUSH1 0x4 DUP3 ADD MSTORE PUSH1 0x19 PUSH1 0x24 DUP3 ADD MSTORE PUSH32 0x5461736B4D61726B65743A2071756F7465206578706972656400000000000000 PUSH1 0x44 DUP3 ADD MSTORE PUSH1 0x64 SWAP1 REVERT JUMPDEST SWAP1 POP TIMESTAMP GT CODESIZE PUSH2 0x18F4 JUMP JUMPDEST PUSH4 0x4E487B71 PUSH1 0xE0 SHL DUP7 MSTORE PUSH1 0x21 PUSH1 0x4 MSTORE PUSH1 0x24 DUP7 REVERT JUMPDEST POP CALLVALUE PUSH2 0x29E JUMPI PUSH2 0x1A3D CALLDATASIZE PUSH2 0x22CF JUMP JUMPDEST PUSH2 0x1A46 DUP3 PUSH2 0x265F JUMP JUMPDEST PUSH1 0x3 DUP2 ADD SLOAD PUSH1 0x1 PUSH1 0x1 PUSH1 0xA0 SHL SUB SWAP2 SWAP1 DUP3 AND CALLER SUB PUSH2 0x1C3 JUMPI PUSH1 0xFF PUSH1 0xD DUP3 ADD SLOAD PUSH1 0x40 SHR AND PUSH1 0x7 DUP2 LT ISZERO PUSH2 0x1A1A JUMPI PUSH1 0x1 SUB PUSH2 0xEB8 JUMPI DUP3 ISZERO PUSH2 0x1C52 JUMPI PUSH1 0x9 DUP2 ADD SWAP1 DUP2 SLOAD PUSH2 0x1C0D JUMPI PUSH1 0x7 DUP2 ADD SLOAD DUP1 ISZERO SWAP1 DUP2 ISZERO PUSH2 0x1C02 JUMPI JUMPDEST POP PUSH2 0x1BBD JUMPI PUSH1 0x1 PUSH1 0x1 PUSH1 0x40 SHL SUB PUSH1 0x8 DUP3 ADD SLOAD AND DUP1 ISZERO ISZERO SWAP1 DUP2 PUSH2 0x1BB3 JUMPI JUMPDEST POP PUSH2 0x19CB JUMPI SWAP1 DUP4 SWAP1 SSTORE PUSH1 0x4 SWAP1 DUP2 ADD SLOAD PUSH1 0x40 MLOAD PUSH4 0x23B872DD PUSH1 0xE0 SHL DUP2 MSTORE CALLER SWAP3 DUP2 ADD SWAP3 SWAP1 SWAP3 MSTORE ADDRESS PUSH1 0x24 DUP4 ADD MSTORE PUSH1 0x44 DUP3 ADD DUP5 SWAP1 MSTORE PUSH1 0x20 SWAP4 SWAP3 DUP5 SWAP2 DUP4 SWAP2 PUSH1 0x64 SWAP2 DUP4 SWAP2 DUP11 SWAP2 AND GAS CALL SWAP1 DUP2 ISZERO PUSH2 0xDDF JUMPI DUP6 SWAP2 PUSH2 0x1B7E JUMPI JUMPDEST POP ISZERO PUSH2 0x1B39 JUMPI SWAP1 PUSH32 0x9173A7AE2321B61F50303DF6B321C38912CA2A1079FC80645CF01202BE566C76 SWAP2 PUSH1 0x40 MLOAD SWAP1 DUP2 MSTORE LOG2 DUP1 RETURN JUMPDEST PUSH1 0x40 MLOAD PUSH3 0x461BCD PUSH1 0xE5 SHL DUP2 MSTORE PUSH1 0x4 DUP2 ADD DUP4 SWAP1 MSTORE PUSH1 0x1B PUSH1 0x24 DUP3 ADD MSTORE PUSH32 0x5461736B4D61726B65743A207472616E73666572206661696C65640000000000 PUSH1 0x44 DUP3 ADD MSTORE PUSH1 0x64 SWAP1 REVERT JUMPDEST SWAP1 POP DUP3 DUP2 DUP2 RETURNDATASIZE DUP4 GT PUSH2 0x1BAC JUMPI JUMPDEST PUSH2 0x1B95 DUP2 DUP4 PUSH2 0x237C JUMP JUMPDEST DUP2 ADD SUB SLT PUSH2 0x640 JUMPI PUSH2 0x1BA6 SWAP1 PUSH2 0x23C2 JUMP JUMPDEST CODESIZE PUSH2 0x1B06 JUMP JUMPDEST POP RETURNDATASIZE PUSH2 0x1B8B JUMP JUMPDEST SWAP1 POP TIMESTAMP GT CODESIZE PUSH2 0x1AB5 JUMP JUMPDEST PUSH1 0x40 MLOAD PUSH3 0x461BCD PUSH1 0xE5 SHL DUP2 MSTORE PUSH1 0x20 PUSH1 0x4 DUP3 ADD MSTORE PUSH1 0x1B PUSH1 0x24 DUP3 ADD MSTORE PUSH32 0x5461736B4D61726B65743A20616D6F756E74206D69736D617463680000000000 PUSH1 0x44 DUP3 ADD MSTORE PUSH1 0x64 SWAP1 REVERT JUMPDEST SWAP1 POP DUP5 EQ ISZERO CODESIZE PUSH2 0x1A98 JUMP JUMPDEST PUSH1 0x40 MLOAD PUSH3 0x461BCD PUSH1 0xE5 SHL DUP2 MSTORE PUSH1 0x20 PUSH1 0x4 DUP3 ADD MSTORE PUSH1 0x1A PUSH1 0x24 DUP3 ADD MSTORE PUSH32 0x5461736B4D61726B65743A20616C72656164792066756E646564000000000000 PUSH1 0x44 DUP3 ADD MSTORE PUSH1 0x64 SWAP1 REVERT JUMPDEST PUSH1 0x40 MLOAD PUSH3 0x461BCD PUSH1 0xE5 SHL DUP2 MSTORE PUSH1 0x20 PUSH1 0x4 DUP3 ADD MSTORE PUSH1 0x17 PUSH1 0x24 DUP3 ADD MSTORE PUSH32 0x5461736B4D61726B65743A20616D6F756E74207A65726F000000000000000000 PUSH1 0x44 DUP3 ADD MSTORE PUSH1 0x64 SWAP1 REVERT JUMPDEST POP CALLVALUE PUSH2 0x29E JUMPI PUSH1 0x20 CALLDATASIZE PUSH1 0x3 NOT ADD SLT PUSH2 0x29E JUMPI DUP1 PUSH2 0x200 PUSH1 0x40 MLOAD PUSH2 0x1CB9 DUP2 PUSH2 0x234A JUMP JUMPDEST DUP3 DUP2 MSTORE DUP3 PUSH1 0x20 DUP3 ADD MSTORE DUP3 PUSH1 0x40 DUP3 ADD MSTORE DUP3 PUSH1 0x60 DUP3 ADD MSTORE DUP3 PUSH1 0x80 DUP3 ADD MSTORE PUSH1 0x60 PUSH1 0xA0 DUP3 ADD MSTORE DUP3 PUSH1 0xC0 DUP3 ADD MSTORE DUP3 PUSH1 0xE0 DUP3 ADD MSTORE DUP3 PUSH2 0x100 DUP3 ADD MSTORE DUP3 PUSH2 0x120 DUP3 ADD MSTORE DUP3 PUSH2 0x140 DUP3 ADD MSTORE DUP3 PUSH2 0x160 DUP3 ADD MSTORE PUSH1 0x60 PUSH2 0x180 DUP3 ADD MSTORE DUP3 PUSH2 0x1A0 DUP3 ADD MSTORE DUP3 PUSH2 0x1C0 DUP3 ADD MSTORE DUP3 PUSH2 0x1E0 DUP3 ADD MSTORE ADD MSTORE PUSH2 0x1D2D PUSH1 0x4 CALLDATALOAD PUSH2 0x265F JUMP JUMPDEST SWAP1 PUSH1 0xD PUSH1 0x40 MLOAD SWAP3 PUSH2 0x1D3D DUP5 PUSH2 0x234A JUMP JUMPDEST DUP1 SLOAD DUP5 MSTORE PUSH1 0x1 DUP2 ADD SLOAD PUSH1 0x20 DUP6 ADD MSTORE PUSH1 0x2 DUP2 ADD SLOAD PUSH1 0x40 DUP6 ADD MSTORE PUSH1 0x3 DUP2 ADD SLOAD PUSH1 0x1 PUSH1 0x1 PUSH1 0xA0 SHL SUB SWAP1 DUP2 AND PUSH1 0x60 DUP7 ADD MSTORE PUSH1 0x4 DUP3 ADD SLOAD AND PUSH1 0x80 DUP6 ADD MSTORE PUSH2 0x1D81 PUSH1 0x5 DUP3 ADD PUSH2 0x2599 JUMP JUMPDEST PUSH1 0xA0 DUP6 ADD MSTORE PUSH4 0xFFFFFFFF PUSH1 0x6 DUP3 ADD SLOAD DUP2 DUP2 AND PUSH1 0xC0 DUP8 ADD MSTORE PUSH1 0x20 SHR AND PUSH1 0xE0 DUP6 ADD MSTORE PUSH1 0x7 DUP2 ADD SLOAD PUSH2 0x100 DUP6 ADD MSTORE PUSH1 0x1 PUSH1 0x1 PUSH1 0x40 SHL SUB PUSH1 0x8 DUP3 ADD SLOAD AND PUSH2 0x120 DUP6 ADD MSTORE PUSH1 0x9 DUP2 ADD SLOAD PUSH2 0x140 DUP6 ADD MSTORE PUSH1 0xA DUP2 ADD SLOAD PUSH2 0x160 DUP6 ADD MSTORE PUSH2 0x1DE2 PUSH1 0xB DUP3 ADD PUSH2 0x2599 JUMP JUMPDEST PUSH2 0x180 DUP6 ADD MSTORE PUSH1 0xC DUP2 ADD SLOAD PUSH2 0x1A0 DUP6 ADD MSTORE ADD SLOAD PUSH1 0x1 PUSH1 0x1 PUSH1 0x40 SHL SUB DUP2 AND PUSH2 0x1C0 DUP5 ADD MSTORE PUSH1 0x7 PUSH1 0xFF DUP3 PUSH1 0x40 SHR AND LT ISZERO PUSH2 0x1F65 JUMPI DUP1 PUSH1 0xFF DUP1 SWAP3 PUSH1 0x40 SHR AND PUSH2 0x1E0 DUP6 ADD MSTORE PUSH1 0x48 SHR AND ISZERO ISZERO PUSH2 0x200 DUP4 ADD MSTORE PUSH1 0x40 MLOAD SWAP1 PUSH1 0x20 DUP3 MSTORE DUP3 MLOAD PUSH1 0x20 DUP4 ADD MSTORE PUSH1 0x20 DUP4 ADD MLOAD PUSH1 0x40 DUP4 ADD MSTORE PUSH1 0x40 DUP4 ADD MLOAD PUSH1 0x60 DUP4 ADD MSTORE PUSH1 0x1 DUP1 PUSH1 0xA0 SHL SUB PUSH1 0x60 DUP5 ADD MLOAD AND PUSH1 0x80 DUP4 ADD MSTORE PUSH1 0x1 DUP1 PUSH1 0xA0 SHL SUB PUSH1 0x80 DUP5 ADD MLOAD AND PUSH1 0xA0 DUP4 ADD MSTORE PUSH2 0x1F06 PUSH2 0x1E94 PUSH1 0xA0 DUP6 ADD MLOAD PUSH2 0x220 PUSH1 0xC0 DUP7 ADD MSTORE PUSH2 0x240 DUP6 ADD SWAP1 PUSH2 0x22AA JUMP JUMPDEST PUSH4 0xFFFFFFFF PUSH1 0xC0 DUP7 ADD MLOAD AND PUSH1 0xE0 DUP6 ADD MSTORE PUSH4 0xFFFFFFFF PUSH1 0xE0 DUP7 ADD MLOAD AND PUSH2 0x100 DUP6 ADD MSTORE PUSH2 0x100 DUP6 ADD MLOAD PUSH2 0x120 DUP6 ADD MSTORE PUSH1 0x1 PUSH1 0x1 PUSH1 0x40 SHL SUB PUSH2 0x120 DUP7 ADD MLOAD AND PUSH2 0x140 DUP6 ADD MSTORE PUSH2 0x140 DUP6 ADD MLOAD PUSH2 0x160 DUP6 ADD MSTORE PUSH2 0x160 DUP6 ADD MLOAD PUSH2 0x180 DUP6 ADD MSTORE PUSH2 0x180 DUP6 ADD MLOAD PUSH1 0x1F NOT DUP6 DUP4 SUB ADD PUSH2 0x1A0 DUP7 ADD MSTORE PUSH2 0x22AA JUMP JUMPDEST SWAP1 PUSH2 0x1A0 DUP5 ADD MLOAD PUSH2 0x1C0 DUP5 ADD MSTORE PUSH1 0x1 PUSH1 0x1 PUSH1 0x40 SHL SUB PUSH2 0x1C0 DUP6 ADD MLOAD AND PUSH2 0x1E0 DUP5 ADD MSTORE PUSH2 0x1E0 DUP5 ADD MLOAD SWAP1 PUSH1 0x7 DUP3 LT ISZERO PUSH2 0x1F51 JUMPI POP DUP3 SWAP4 PUSH2 0x200 SWAP2 DUP3 DUP6 ADD MSTORE ADD MLOAD ISZERO ISZERO PUSH2 0x220 DUP4 ADD MSTORE SUB SWAP1 RETURN JUMPDEST PUSH4 0x4E487B71 PUSH1 0xE0 SHL DUP2 MSTORE PUSH1 0x21 PUSH1 0x4 MSTORE PUSH1 0x24 SWAP1 REVERT JUMPDEST PUSH4 0x4E487B71 PUSH1 0xE0 SHL DUP3 MSTORE PUSH1 0x21 PUSH1 0x4 MSTORE PUSH1 0x24 DUP3 REVERT JUMPDEST POP CALLVALUE PUSH2 0x29E JUMPI PUSH1 0x20 CALLDATASIZE PUSH1 0x3 NOT ADD SLT PUSH2 0x29E JUMPI PUSH1 0x4 CALLDATALOAD PUSH2 0x1F97 DUP2 PUSH2 0x265F JUMP JUMPDEST PUSH1 0xD DUP2 ADD SWAP1 PUSH1 0xFF DUP3 SLOAD PUSH1 0x40 SHR AND PUSH1 0x7 DUP2 LT ISZERO PUSH2 0xEF6 JUMPI PUSH2 0x5EC JUMPI PUSH2 0x1FBE PUSH1 0x2 DUP3 ADD SLOAD PUSH2 0x26CB JUMP JUMPDEST PUSH1 0x1 DUP2 ADD SLOAD PUSH1 0x40 MLOAD PUSH4 0x83D13A5 PUSH1 0xE1 SHL DUP2 MSTORE PUSH1 0x4 DUP2 ADD SWAP2 SWAP1 SWAP2 MSTORE SWAP1 DUP5 DUP3 PUSH1 0x24 DUP2 PUSH32 0x0 PUSH1 0x1 PUSH1 0x1 PUSH1 0xA0 SHL SUB AND GAS STATICCALL DUP1 ISZERO PUSH2 0xDDF JUMPI DUP6 SWAP3 DUP7 SWAP2 PUSH2 0x20FA JUMPI JUMPDEST POP ISZERO PUSH2 0x570 JUMPI PUSH1 0xC0 DUP3 ADD MLOAD PUSH2 0x20B5 JUMPI PUSH1 0x7 SWAP1 PUSH2 0x207B PUSH1 0x20 DUP5 ADD MLOAD SWAP4 PUSH2 0x2058 PUSH1 0x6 DUP5 ADD SWAP6 PUSH2 0x2052 PUSH1 0x60 PUSH4 0xFFFFFFFF DUP10 SLOAD AND SWAP5 ADD MLOAD DUP5 PUSH2 0x254C JUMP JUMPDEST SWAP1 PUSH2 0x2529 JUMP JUMPDEST SWAP5 SWAP1 PUSH8 0xFFFFFFFF00000000 DUP3 SLOAD SWAP2 PUSH1 0x20 SHL AND SWAP1 PUSH8 0xFFFFFFFF00000000 NOT AND OR SWAP1 SSTORE JUMP JUMPDEST ADD SSTORE DUP1 SLOAD PUSH1 0xFF PUSH1 0x40 SHL NOT AND PUSH1 0x1 PUSH1 0x40 SHL OR SWAP1 SSTORE PUSH32 0xB151E78B903FC62654C96F6BD667FC1B7A3230CC2345B2FC441AD60A885E032A DUP3 DUP1 LOG2 DUP1 RETURN JUMPDEST PUSH1 0x40 MLOAD PUSH3 0x461BCD PUSH1 0xE5 SHL DUP2 MSTORE PUSH1 0x20 PUSH1 0x4 DUP3 ADD MSTORE PUSH1 0x1A PUSH1 0x24 DUP3 ADD MSTORE PUSH32 0x5461736B4D61726B65743A2071756F7465207265717569726564000000000000 PUSH1 0x44 DUP3 ADD MSTORE PUSH1 0x64 SWAP1 REVERT JUMPDEST SWAP1 POP PUSH2 0x2111 SWAP2 SWAP3 POP RETURNDATASIZE DUP1 DUP8 DUP4 RETURNDATACOPY PUSH2 0x5CC DUP2 DUP4 PUSH2 0x237C JUMP JUMPDEST SWAP5 SWAP4 POP POP SWAP1 POP SWAP2 CODESIZE PUSH2 0x2019 JUMP JUMPDEST POP CALLVALUE PUSH2 0x29E JUMPI DUP1 PUSH1 0x3 NOT CALLDATASIZE ADD SLT PUSH2 0x29E JUMPI PUSH1 0x40 MLOAD PUSH32 0x0 PUSH1 0x1 PUSH1 0x1 PUSH1 0xA0 SHL SUB AND DUP2 MSTORE PUSH1 0x20 SWAP1 RETURN JUMPDEST POP CALLVALUE PUSH2 0x29E JUMPI PUSH1 0x20 CALLDATASIZE PUSH1 0x3 NOT ADD SLT PUSH2 0x29E JUMPI PUSH2 0x2180 PUSH1 0x4 CALLDATALOAD PUSH2 0x265F JUMP JUMPDEST PUSH1 0xD DUP2 ADD SLOAD PUSH1 0xFF DUP2 PUSH1 0x40 SHR AND PUSH1 0x7 DUP2 LT ISZERO PUSH2 0x6C1 JUMPI PUSH1 0x3 SUB PUSH2 0x201 JUMPI PUSH1 0x1 DUP3 ADD SLOAD PUSH1 0x40 MLOAD PUSH4 0x83D13A5 PUSH1 0xE1 SHL DUP2 MSTORE PUSH1 0x4 DUP2 ADD SWAP2 SWAP1 SWAP2 MSTORE SWAP1 DUP4 DUP3 PUSH1 0x24 DUP2 PUSH32 0x0 PUSH1 0x1 PUSH1 0x1 PUSH1 0xA0 SHL SUB AND GAS STATICCALL DUP1 ISZERO PUSH2 0x10F6 JUMPI PUSH4 0xFFFFFFFF PUSH1 0x1 PUSH1 0x1 PUSH1 0x40 SHL SUB SWAP2 PUSH2 0x2211 SWAP5 DUP8 SWAP2 PUSH2 0x2268 JUMPI JUMPDEST POP MLOAD AND SWAP2 AND PUSH2 0x2529 JUMP JUMPDEST TIMESTAMP LT PUSH2 0x2223 JUMPI PUSH2 0x2220 SWAP1 PUSH2 0x2A14 JUMP JUMPDEST DUP1 RETURN JUMPDEST PUSH1 0x40 MLOAD PUSH3 0x461BCD PUSH1 0xE5 SHL DUP2 MSTORE PUSH1 0x20 PUSH1 0x4 DUP3 ADD MSTORE PUSH1 0x1C PUSH1 0x24 DUP3 ADD MSTORE PUSH32 0x5461736B4D61726B65743A206368616C6C656E67652077696E646F7700000000 PUSH1 0x44 DUP3 ADD MSTORE PUSH1 0x64 SWAP1 REVERT JUMPDEST PUSH2 0x227C SWAP2 POP RETURNDATASIZE DUP1 DUP10 DUP4 RETURNDATACOPY PUSH2 0x5CC DUP2 DUP4 PUSH2 0x237C JUMP JUMPDEST POP SWAP3 POP POP POP CODESIZE PUSH2 0x2207 JUMP JUMPDEST PUSH1 0x0 JUMPDEST DUP4 DUP2 LT PUSH2 0x229A JUMPI POP POP PUSH1 0x0 SWAP2 ADD MSTORE JUMP JUMPDEST DUP2 DUP2 ADD MLOAD DUP4 DUP3 ADD MSTORE PUSH1 0x20 ADD PUSH2 0x228A JUMP JUMPDEST SWAP1 PUSH1 0x20 SWAP2 PUSH2 0x22C3 DUP2 MLOAD DUP1 SWAP3 DUP2 DUP6 MSTORE DUP6 DUP1 DUP7 ADD SWAP2 ADD PUSH2 0x2287 JUMP JUMPDEST PUSH1 0x1F ADD PUSH1 0x1F NOT AND ADD ADD SWAP1 JUMP JUMPDEST PUSH1 0x40 SWAP1 PUSH1 0x3 NOT ADD SLT PUSH2 0x22E5 JUMPI PUSH1 0x4 CALLDATALOAD SWAP1 PUSH1 0x24 CALLDATALOAD SWAP1 JUMP JUMPDEST PUSH1 0x0 DUP1 REVERT JUMPDEST SWAP2 DUP2 PUSH1 0x1F DUP5 ADD SLT ISZERO PUSH2 0x22E5 JUMPI DUP3 CALLDATALOAD SWAP2 PUSH1 0x1 PUSH1 0x1 PUSH1 0x40 SHL SUB DUP4 GT PUSH2 0x22E5 JUMPI PUSH1 0x20 DUP4 DUP2 DUP7 ADD SWAP6 ADD ADD GT PUSH2 0x22E5 JUMPI JUMP JUMPDEST SWAP1 PUSH1 0x40 PUSH1 0x3 NOT DUP4 ADD SLT PUSH2 0x22E5 JUMPI PUSH1 0x4 CALLDATALOAD SWAP2 PUSH1 0x24 CALLDATALOAD SWAP1 PUSH1 0x1 PUSH1 0x1 PUSH1 0x40 SHL SUB DUP3 GT PUSH2 0x22E5 JUMPI PUSH2 0x2346 SWAP2 PUSH1 0x4 ADD PUSH2 0x22EA JUMP JUMPDEST SWAP1 SWAP2 JUMP JUMPDEST PUSH2 0x220 DUP2 ADD SWAP1 DUP2 LT PUSH1 0x1 PUSH1 0x1 PUSH1 0x40 SHL SUB DUP3 GT OR PUSH2 0x2366 JUMPI PUSH1 0x40 MSTORE JUMP JUMPDEST PUSH4 0x4E487B71 PUSH1 0xE0 SHL PUSH1 0x0 MSTORE PUSH1 0x41 PUSH1 0x4 MSTORE PUSH1 0x24 PUSH1 0x0 REVERT JUMPDEST SWAP1 PUSH1 0x1F DUP1 NOT SWAP2 ADD AND DUP2 ADD SWAP1 DUP2 LT PUSH1 0x1 PUSH1 0x1 PUSH1 0x40 SHL SUB DUP3 GT OR PUSH2 0x2366 JUMPI PUSH1 0x40 MSTORE JUMP JUMPDEST MLOAD SWAP1 PUSH1 0x1 PUSH1 0x1 PUSH1 0xA0 SHL SUB DUP3 AND DUP3 SUB PUSH2 0x22E5 JUMPI JUMP JUMPDEST MLOAD SWAP1 PUSH4 0xFFFFFFFF DUP3 AND DUP3 SUB PUSH2 0x22E5 JUMPI JUMP JUMPDEST MLOAD SWAP1 DUP2 ISZERO ISZERO DUP3 SUB PUSH2 0x22E5 JUMPI JUMP JUMPDEST DUP1 DUP3 SUB SWAP1 PUSH2 0x1A0 DUP3 SLT PUSH2 0x22E5 JUMPI DUP1 MLOAD SWAP4 PUSH1 0x20 SWAP4 DUP5 DUP4 ADD MLOAD SWAP1 PUSH1 0x1 PUSH1 0x1 PUSH1 0x40 SHL SUB SWAP2 DUP3 DUP2 GT PUSH2 0x22E5 JUMPI DUP5 ADD SWAP1 DUP1 PUSH1 0x1F DUP4 ADD SLT ISZERO PUSH2 0x22E5 JUMPI DUP2 MLOAD SWAP2 DUP4 DUP4 GT PUSH2 0x2366 JUMPI PUSH1 0x40 SWAP3 DUP4 MLOAD SWAP3 PUSH2 0x2428 DUP11 PUSH1 0x1F NOT PUSH1 0x1F DUP6 ADD AND ADD DUP6 PUSH2 0x237C JUMP JUMPDEST DUP2 DUP5 MSTORE DUP10 DUP3 DUP5 ADD ADD GT PUSH2 0x22E5 JUMPI PUSH2 0x2444 SWAP2 DUP10 DUP1 DUP6 ADD SWAP2 ADD PUSH2 0x2287 JUMP JUMPDEST SWAP6 PUSH1 0xE0 PUSH1 0x3F NOT DUP8 ADD SLT PUSH2 0x22E5 JUMPI DUP2 MLOAD PUSH1 0xE0 DUP2 ADD SWAP1 DUP1 DUP3 LT DUP6 DUP4 GT OR PUSH2 0x2366 JUMPI PUSH1 0x60 SWAP2 DUP5 MSTORE PUSH2 0x2473 DUP5 DUP9 ADD PUSH2 0x239D JUMP JUMPDEST DUP2 MSTORE DUP2 DUP8 ADD MLOAD DUP4 DUP3 ADD MSTORE PUSH1 0x80 DUP8 ADD MLOAD DUP5 DUP3 ADD MSTORE PUSH1 0xA0 DUP8 ADD MLOAD DUP3 DUP3 ADD MSTORE PUSH2 0x249B PUSH1 0xC0 DUP9 ADD PUSH2 0x23B1 JUMP JUMPDEST PUSH1 0x80 DUP3 ADD MSTORE PUSH2 0x24AC PUSH1 0xE0 DUP9 ADD PUSH2 0x23B1 JUMP JUMPDEST PUSH1 0xA0 DUP3 ADD MSTORE PUSH2 0x24BE PUSH2 0x100 DUP9 ADD PUSH2 0x23C2 JUMP JUMPDEST PUSH1 0xC0 DUP3 ADD MSTORE SWAP7 PUSH2 0x11F NOT ADD SLT PUSH2 0x22E5 JUMPI DUP2 MLOAD SWAP3 PUSH1 0x60 DUP5 ADD SWAP1 DUP2 GT DUP5 DUP3 LT OR PUSH2 0x2366 JUMPI DUP3 MSTORE PUSH2 0x24EF PUSH2 0x120 DUP7 ADD PUSH2 0x23B1 JUMP JUMPDEST DUP4 MSTORE PUSH2 0x24FE PUSH2 0x140 DUP7 ADD PUSH2 0x23B1 JUMP JUMPDEST SWAP1 DUP4 ADD MSTORE PUSH2 0x160 DUP5 ADD MLOAD SWAP2 PUSH2 0xFFFF DUP4 AND DUP4 SUB PUSH2 0x22E5 JUMPI PUSH2 0x2526 SWAP3 PUSH2 0x180 SWAP3 DUP3 ADD MSTORE SWAP4 ADD PUSH2 0x23C2 JUMP JUMPDEST SWAP1 JUMP JUMPDEST SWAP2 SWAP1 DUP3 ADD DUP1 SWAP3 GT PUSH2 0x2536 JUMPI JUMP JUMPDEST PUSH4 0x4E487B71 PUSH1 0xE0 SHL PUSH1 0x0 MSTORE PUSH1 0x11 PUSH1 0x4 MSTORE PUSH1 0x24 PUSH1 0x0 REVERT JUMPDEST DUP2 DUP2 MUL SWAP3 SWAP2 DUP2 ISZERO SWAP2 DUP5 DIV EQ OR ISZERO PUSH2 0x2536 JUMPI JUMP JUMPDEST SWAP1 PUSH1 0x1 DUP3 DUP2 SHR SWAP3 AND DUP1 ISZERO PUSH2 0x258F JUMPI JUMPDEST PUSH1 0x20 DUP4 LT EQ PUSH2 0x2579 JUMPI JUMP JUMPDEST PUSH4 0x4E487B71 PUSH1 0xE0 SHL PUSH1 0x0 MSTORE PUSH1 0x22 PUSH1 0x4 MSTORE PUSH1 0x24 PUSH1 0x0 REVERT JUMPDEST SWAP2 PUSH1 0x7F AND SWAP2 PUSH2 0x256E JUMP JUMPDEST SWAP1 PUSH1 0x40 MLOAD SWAP2 DUP3 PUSH1 0x0 DUP3 SLOAD PUSH2 0x25AC DUP2 PUSH2 0x255F JUMP JUMPDEST SWAP1 DUP2 DUP5 MSTORE PUSH1 0x20 SWAP5 PUSH1 0x1 SWAP2 PUSH1 0x1 DUP2 AND SWAP1 DUP2 PUSH1 0x0 EQ PUSH2 0x261C JUMPI POP PUSH1 0x1 EQ PUSH2 0x25DD JUMPI JUMPDEST POP POP POP PUSH2 0x25DB SWAP3 POP SUB DUP4 PUSH2 0x237C JUMP JUMPDEST JUMP JUMPDEST PUSH1 0x0 SWAP1 DUP2 MSTORE DUP6 DUP2 KECCAK256 SWAP6 SWAP4 POP SWAP2 SWAP1 JUMPDEST DUP2 DUP4 LT PUSH2 0x2604 JUMPI POP POP PUSH2 0x25DB SWAP4 POP DUP3 ADD ADD CODESIZE DUP1 DUP1 PUSH2 0x25CC JUMP JUMPDEST DUP6 SLOAD DUP9 DUP5 ADD DUP6 ADD MSTORE SWAP5 DUP6 ADD SWAP5 DUP8 SWAP5 POP SWAP2 DUP4 ADD SWAP2 PUSH2 0x25EB JUMP JUMPDEST SWAP3 POP POP POP PUSH2 0x25DB SWAP5 SWAP3 POP PUSH1 0xFF NOT AND DUP3 DUP5 ADD MSTORE ISZERO ISZERO PUSH1 0x5 SHL DUP3 ADD ADD CODESIZE DUP1 DUP1 PUSH2 0x25CC JUMP JUMPDEST SWAP1 DUP1 PUSH1 0x20 SWAP4 SWAP3 DUP2 DUP5 MSTORE DUP5 DUP5 ADD CALLDATACOPY PUSH1 0x0 DUP3 DUP3 ADD DUP5 ADD MSTORE PUSH1 0x1F ADD PUSH1 0x1F NOT AND ADD ADD SWAP1 JUMP JUMPDEST DUP1 PUSH1 0x0 MSTORE PUSH1 0x4 PUSH1 0x20 MSTORE PUSH1 0xFF PUSH1 0x40 PUSH1 0x0 KECCAK256 SLOAD AND ISZERO PUSH2 0x2686 JUMPI PUSH1 0x0 MSTORE PUSH1 0x3 PUSH1 0x20 MSTORE PUSH1 0x40 PUSH1 0x0 KECCAK256 SWAP1 JUMP JUMPDEST PUSH1 0x40 MLOAD PUSH3 0x461BCD PUSH1 0xE5 SHL DUP2 MSTORE PUSH1 0x20 PUSH1 0x4 DUP3 ADD MSTORE PUSH1 0x1A PUSH1 0x24 DUP3 ADD MSTORE PUSH32 0x5461736B4D61726B65743A207461736B206E6F7420666F756E64000000000000 PUSH1 0x44 DUP3 ADD MSTORE PUSH1 0x64 SWAP1 REVERT JUMPDEST PUSH1 0x40 DUP1 MLOAD PUSH4 0x31A9108F PUSH1 0xE1 SHL DUP2 MSTORE PUSH1 0x4 DUP2 ADD DUP4 SWAP1 MSTORE PUSH1 0x20 SWAP3 SWAP1 PUSH1 0x1 PUSH1 0x1 PUSH1 0xA0 SHL SUB PUSH32 0x0 DUP2 AND SWAP2 DUP6 DUP2 PUSH1 0x24 DUP2 DUP7 GAS STATICCALL SWAP1 DUP2 ISZERO PUSH2 0x2881 JUMPI DUP7 SWAP2 DUP4 SWAP2 PUSH1 0x0 SWAP2 PUSH2 0x288C JUMPI JUMPDEST POP AND SWAP4 DUP5 CALLER EQ ISZERO SWAP5 DUP6 PUSH2 0x280C JUMPI JUMPDEST POP DUP5 PUSH2 0x278F JUMPI JUMPDEST POP POP POP POP PUSH2 0x274C JUMPI POP POP JUMP JUMPDEST PUSH1 0x64 SWAP3 POP MLOAD SWAP1 PUSH3 0x461BCD PUSH1 0xE5 SHL DUP3 MSTORE PUSH1 0x4 DUP3 ADD MSTORE PUSH1 0x1A PUSH1 0x24 DUP3 ADD MSTORE PUSH32 0x5461736B4D61726B65743A206E6F7420617574686F72697A6564000000000000 PUSH1 0x44 DUP3 ADD MSTORE REVERT JUMPDEST SWAP1 SWAP2 SWAP3 SWAP4 POP PUSH1 0x24 DUP6 MLOAD DUP1 SWAP6 DUP2 SWAP4 PUSH4 0x20604BF PUSH1 0xE2 SHL DUP4 MSTORE PUSH1 0x4 DUP4 ADD MSTORE GAS STATICCALL SWAP2 DUP3 ISZERO PUSH2 0x2801 JUMPI PUSH1 0x0 SWAP3 PUSH2 0x27CA JUMPI JUMPDEST POP AND CALLER EQ ISZERO CODESIZE DUP1 DUP5 DUP2 PUSH2 0x2740 JUMP JUMPDEST SWAP1 SWAP2 POP DUP4 DUP2 DUP2 RETURNDATASIZE DUP4 GT PUSH2 0x27FA JUMPI JUMPDEST PUSH2 0x27E2 DUP2 DUP4 PUSH2 0x237C JUMP JUMPDEST DUP2 ADD SUB SLT PUSH2 0x22E5 JUMPI PUSH2 0x27F3 SWAP1 PUSH2 0x239D JUMP JUMPDEST SWAP1 CODESIZE PUSH2 0x27BC JUMP JUMPDEST POP RETURNDATASIZE PUSH2 0x27D8 JUMP JUMPDEST DUP4 MLOAD RETURNDATASIZE PUSH1 0x0 DUP3 RETURNDATACOPY RETURNDATASIZE SWAP1 REVERT JUMPDEST SWAP2 POP SWAP4 POP DUP5 MLOAD SWAP1 PUSH4 0xE985E9C5 PUSH1 0xE0 SHL DUP3 MSTORE PUSH1 0x4 DUP3 ADD MSTORE CALLER PUSH1 0x24 DUP3 ADD MSTORE DUP6 DUP2 PUSH1 0x44 DUP2 DUP7 GAS STATICCALL SWAP1 DUP2 ISZERO PUSH2 0x2881 JUMPI SWAP1 DUP7 SWAP2 PUSH1 0x0 SWAP2 PUSH2 0x284B JUMPI JUMPDEST POP ISZERO SWAP4 CODESIZE PUSH2 0x2739 JUMP JUMPDEST DUP3 DUP2 SWAP4 SWAP3 POP RETURNDATASIZE DUP4 GT PUSH2 0x287A JUMPI JUMPDEST PUSH2 0x2862 DUP2 DUP4 PUSH2 0x237C JUMP JUMPDEST DUP2 ADD SUB SLT PUSH2 0x22E5 JUMPI PUSH2 0x2874 DUP7 SWAP2 PUSH2 0x23C2 JUMP JUMPDEST CODESIZE PUSH2 0x2842 JUMP JUMPDEST POP RETURNDATASIZE PUSH2 0x2858 JUMP JUMPDEST DUP6 MLOAD RETURNDATASIZE PUSH1 0x0 DUP3 RETURNDATACOPY RETURNDATASIZE SWAP1 REVERT JUMPDEST SWAP3 DUP1 SWAP3 POP DUP4 SWAP2 POP RETURNDATASIZE DUP4 GT PUSH2 0x28BE JUMPI JUMPDEST PUSH2 0x28A5 DUP2 DUP4 PUSH2 0x237C JUMP JUMPDEST DUP2 ADD SUB SLT PUSH2 0x22E5 JUMPI DUP2 PUSH2 0x28B8 DUP8 SWAP3 PUSH2 0x239D JUMP JUMPDEST CODESIZE PUSH2 0x272B JUMP JUMPDEST POP RETURNDATASIZE PUSH2 0x289B JUMP JUMPDEST PUSH1 0x1 DUP2 ADD SLOAD PUSH1 0x40 MLOAD PUSH4 0x83D13A5 PUSH1 0xE1 SHL DUP2 MSTORE PUSH1 0x4 DUP2 ADD SWAP2 SWAP1 SWAP2 MSTORE PUSH1 0x0 DUP2 PUSH1 0x24 DUP2 PUSH32 0x0 PUSH1 0x1 PUSH1 0x1 PUSH1 0xA0 SHL SUB AND GAS STATICCALL SWAP1 DUP2 ISZERO PUSH2 0x296E JUMPI PUSH2 0xFFFF SWAP2 PUSH1 0x40 SWAP2 PUSH1 0x0 SWAP2 PUSH2 0x294E JUMPI JUMPDEST POP ADD MLOAD AND SWAP1 DUP2 ISZERO PUSH2 0x2947 JUMPI PUSH2 0x2710 SWAP2 PUSH1 0x7 PUSH2 0x2943 SWAP3 ADD SLOAD PUSH2 0x254C JUMP JUMPDEST DIV SWAP1 JUMP JUMPDEST POP POP PUSH1 0x0 SWAP1 JUMP JUMPDEST PUSH2 0x2963 SWAP2 POP RETURNDATASIZE DUP1 PUSH1 0x0 DUP4 RETURNDATACOPY PUSH2 0x5CC DUP2 DUP4 PUSH2 0x237C JUMP JUMPDEST POP SWAP3 POP POP POP CODESIZE PUSH2 0x2927 JUMP JUMPDEST PUSH1 0x40 MLOAD RETURNDATASIZE PUSH1 0x0 DUP3 RETURNDATACOPY RETURNDATASIZE SWAP1 REVERT JUMPDEST PUSH1 0x40 MLOAD PUSH4 0x31A9108F PUSH1 0xE1 SHL DUP2 MSTORE PUSH1 0x4 DUP2 ADD SWAP2 SWAP1 SWAP2 MSTORE PUSH1 0x20 DUP2 PUSH1 0x24 DUP2 PUSH32 0x0 PUSH1 0x1 PUSH1 0x1 PUSH1 0xA0 SHL SUB AND GAS STATICCALL SWAP1 DUP2 ISZERO PUSH2 0x296E JUMPI PUSH1 0x0 SWAP2 PUSH2 0x29D3 JUMPI POP SWAP1 JUMP JUMPDEST SWAP1 POP PUSH1 0x20 DUP2 RETURNDATASIZE PUSH1 0x20 GT PUSH2 0x29FF JUMPI JUMPDEST DUP2 PUSH2 0x29EE PUSH1 0x20 SWAP4 DUP4 PUSH2 0x237C JUMP JUMPDEST DUP2 ADD SUB SLT PUSH2 0x22E5 JUMPI PUSH2 0x2526 SWAP1 PUSH2 0x239D JUMP JUMPDEST RETURNDATASIZE SWAP2 POP PUSH2 0x29E1 JUMP JUMPDEST SWAP2 SWAP1 DUP3 SUB SWAP2 DUP3 GT PUSH2 0x2536 JUMPI JUMP JUMPDEST PUSH1 0xD DUP2 ADD DUP1 SLOAD PUSH1 0xFF DUP2 PUSH1 0x48 SHR AND PUSH2 0x2B7A JUMPI PUSH2 0x105 PUSH1 0x40 SHL SWAP1 PUSH2 0xFFFF PUSH1 0x40 SHL NOT AND OR SWAP1 SSTORE PUSH1 0x9 DUP2 ADD SLOAD SWAP1 PUSH2 0x2A4C PUSH1 0xA DUP3 ADD SLOAD DUP1 SWAP4 PUSH2 0x2529 JUMP JUMPDEST DUP1 PUSH2 0x2A88 JUMPI JUMPDEST POP PUSH1 0x40 PUSH32 0x6748D41C3BBC7CE6EDFAC1D0EE8396C063BB3CFA1A9DF96375E07137A8170D6 SWAP2 SLOAD SWAP3 DUP2 MLOAD SWAP1 PUSH1 0x0 DUP3 MSTORE PUSH1 0x20 DUP3 ADD MSTORE LOG2 JUMP JUMPDEST PUSH1 0x20 PUSH2 0x2AE0 SWAP2 PUSH1 0x1 DUP1 PUSH1 0xA0 SHL SUB PUSH1 0x4 DUP6 ADD SLOAD AND PUSH2 0x2AA8 PUSH1 0x2 DUP7 ADD SLOAD PUSH2 0x297A JUMP JUMPDEST PUSH1 0x40 MLOAD PUSH4 0xA9059CBB PUSH1 0xE0 SHL DUP2 MSTORE PUSH1 0x1 PUSH1 0x1 PUSH1 0xA0 SHL SUB SWAP1 SWAP2 AND PUSH1 0x4 DUP3 ADD MSTORE PUSH1 0x24 DUP2 ADD SWAP3 SWAP1 SWAP3 MSTORE SWAP1 SWAP3 DUP4 SWAP2 SWAP1 DUP3 SWAP1 PUSH1 0x0 SWAP1 DUP3 SWAP1 PUSH1 0x44 DUP3 ADD SWAP1 JUMP JUMPDEST SUB SWAP3 GAS CALL SWAP1 DUP2 ISZERO PUSH2 0x296E JUMPI PUSH1 0x0 SWAP2 PUSH2 0x2B40 JUMPI JUMPDEST POP ISZERO PUSH2 0x2AFF JUMPI CODESIZE PUSH2 0x2A52 JUMP JUMPDEST PUSH1 0x40 MLOAD PUSH3 0x461BCD PUSH1 0xE5 SHL DUP2 MSTORE PUSH1 0x20 PUSH1 0x4 DUP3 ADD MSTORE PUSH1 0x19 PUSH1 0x24 DUP3 ADD MSTORE PUSH25 0x15185CDAD3585C9AD95D0E881C185E5BDD5D0819985A5B1959 PUSH1 0x3A SHL PUSH1 0x44 DUP3 ADD MSTORE PUSH1 0x64 SWAP1 REVERT JUMPDEST SWAP1 POP PUSH1 0x20 DUP2 RETURNDATASIZE PUSH1 0x20 GT PUSH2 0x2B72 JUMPI JUMPDEST DUP2 PUSH2 0x2B5B PUSH1 0x20 SWAP4 DUP4 PUSH2 0x237C JUMP JUMPDEST DUP2 ADD SUB SLT PUSH2 0x22E5 JUMPI PUSH2 0x2B6C SWAP1 PUSH2 0x23C2 JUMP JUMPDEST CODESIZE PUSH2 0x2AF3 JUMP JUMPDEST RETURNDATASIZE SWAP2 POP PUSH2 0x2B4E JUMP JUMPDEST PUSH1 0x40 MLOAD PUSH3 0x461BCD PUSH1 0xE5 SHL DUP2 MSTORE PUSH1 0x20 PUSH1 0x4 DUP3 ADD MSTORE PUSH1 0x1B PUSH1 0x24 DUP3 ADD MSTORE PUSH32 0x5461736B4D61726B65743A20616C726561647920736574746C65640000000000 PUSH1 0x44 DUP3 ADD MSTORE PUSH1 0x64 SWAP1 REVERT INVALID LOG2 PUSH5 0x6970667358 0x22 SLT KECCAK256 0xF6 REVERT DUP9 COINBASE DUP5 SWAP5 PUSH9 0x6CB7DD753C0FE8A38C SWAP10 0xD9 DUP5 0xC2 DUP4 PUSH2 0xD610 AND CALLDATASIZE 0xAC PUSH22 0x941098AC64736F6C6343000818003300000000000000 "},"methodIdentifiers":{"acceptQuote(uint256)":"5d7ffe7b","acceptSubmission(uint256)":"d15f10cc","acceptTask(uint256)":"1bf6912d","cancelTask(uint256)":"7eec20a8","disputeModule()":"83562af0","disputeSubmission(uint256,string)":"fb46e448","fundSellerBond(uint256,uint256)":"9a285696","fundTask(uint256,uint256)":"4d4780d8","getTask(uint256)":"1d65e77e","identityRegistry()":"134e18f4","listingRegistry()":"5ebf3e9b","markDisputed(uint256,string)":"f8895d03","owner()":"8da5cb5b","postTask(uint256,string,uint32)":"65309ef0","proposeQuote(uint256,uint32,uint256,uint64)":"d53dd2fe","resolveDispute(uint256,uint8,string)":"c316939c","setDisputeModule(address)":"a36a3f05","settleAfterTimeout(uint256)":"09c12162","submitDeliverable(uint256,string,bytes32)":"703bc777"}}}}}