{"contracts/AgentIdentityRegistry.sol":{"AgentIdentityRegistry":{"abi":[{"inputs":[],"stateMutability":"nonpayable","type":"constructor"},{"inputs":[{"internalType":"address","name":"sender","type":"address"},{"internalType":"uint256","name":"tokenId","type":"uint256"},{"internalType":"address","name":"owner","type":"address"}],"name":"ERC721IncorrectOwner","type":"error"},{"inputs":[{"internalType":"address","name":"operator","type":"address"},{"internalType":"uint256","name":"tokenId","type":"uint256"}],"name":"ERC721InsufficientApproval","type":"error"},{"inputs":[{"internalType":"address","name":"approver","type":"address"}],"name":"ERC721InvalidApprover","type":"error"},{"inputs":[{"internalType":"address","name":"operator","type":"address"}],"name":"ERC721InvalidOperator","type":"error"},{"inputs":[{"internalType":"address","name":"owner","type":"address"}],"name":"ERC721InvalidOwner","type":"error"},{"inputs":[{"internalType":"address","name":"receiver","type":"address"}],"name":"ERC721InvalidReceiver","type":"error"},{"inputs":[{"internalType":"address","name":"sender","type":"address"}],"name":"ERC721InvalidSender","type":"error"},{"inputs":[{"internalType":"uint256","name":"tokenId","type":"uint256"}],"name":"ERC721NonexistentToken","type":"error"},{"anonymous":false,"inputs":[{"indexed":true,"internalType":"address","name":"owner","type":"address"},{"indexed":true,"internalType":"uint256","name":"agentId","type":"uint256"},{"indexed":false,"internalType":"string","name":"agentURI","type":"string"}],"name":"AgentRegistered","type":"event"},{"anonymous":false,"inputs":[{"indexed":true,"internalType":"uint256","name":"agentId","type":"uint256"},{"indexed":false,"internalType":"string","name":"agentURI","type":"string"}],"name":"AgentURIUpdated","type":"event"},{"anonymous":false,"inputs":[{"indexed":true,"internalType":"address","name":"owner","type":"address"},{"indexed":true,"internalType":"address","name":"approved","type":"address"},{"indexed":true,"internalType":"uint256","name":"tokenId","type":"uint256"}],"name":"Approval","type":"event"},{"anonymous":false,"inputs":[{"indexed":true,"internalType":"address","name":"owner","type":"address"},{"indexed":true,"internalType":"address","name":"operator","type":"address"},{"indexed":false,"internalType":"bool","name":"approved","type":"bool"}],"name":"ApprovalForAll","type":"event"},{"anonymous":false,"inputs":[{"indexed":true,"internalType":"address","name":"from","type":"address"},{"indexed":true,"internalType":"address","name":"to","type":"address"},{"indexed":true,"internalType":"uint256","name":"tokenId","type":"uint256"}],"name":"Transfer","type":"event"},{"inputs":[{"internalType":"address","name":"to","type":"address"},{"internalType":"uint256","name":"tokenId","type":"uint256"}],"name":"approve","outputs":[],"stateMutability":"nonpayable","type":"function"},{"inputs":[{"internalType":"address","name":"owner","type":"address"}],"name":"balanceOf","outputs":[{"internalType":"uint256","name":"","type":"uint256"}],"stateMutability":"view","type":"function"},{"inputs":[{"internalType":"uint256","name":"agentId","type":"uint256"}],"name":"getAgentURI","outputs":[{"internalType":"string","name":"","type":"string"}],"stateMutability":"view","type":"function"},{"inputs":[{"internalType":"uint256","name":"tokenId","type":"uint256"}],"name":"getApproved","outputs":[{"internalType":"address","name":"","type":"address"}],"stateMutability":"view","type":"function"},{"inputs":[{"internalType":"address","name":"owner","type":"address"},{"internalType":"address","name":"operator","type":"address"}],"name":"isApprovedForAll","outputs":[{"internalType":"bool","name":"","type":"bool"}],"stateMutability":"view","type":"function"},{"inputs":[],"name":"name","outputs":[{"internalType":"string","name":"","type":"string"}],"stateMutability":"view","type":"function"},{"inputs":[{"internalType":"uint256","name":"tokenId","type":"uint256"}],"name":"ownerOf","outputs":[{"internalType":"address","name":"","type":"address"}],"stateMutability":"view","type":"function"},{"inputs":[{"internalType":"string","name":"agentURI","type":"string"}],"name":"registerAgent","outputs":[{"internalType":"uint256","name":"agentId","type":"uint256"}],"stateMutability":"nonpayable","type":"function"},{"inputs":[{"internalType":"address","name":"from","type":"address"},{"internalType":"address","name":"to","type":"address"},{"internalType":"uint256","name":"tokenId","type":"uint256"}],"name":"safeTransferFrom","outputs":[],"stateMutability":"nonpayable","type":"function"},{"inputs":[{"internalType":"address","name":"from","type":"address"},{"internalType":"address","name":"to","type":"address"},{"internalType":"uint256","name":"tokenId","type":"uint256"},{"internalType":"bytes","name":"data","type":"bytes"}],"name":"safeTransferFrom","outputs":[],"stateMutability":"nonpayable","type":"function"},{"inputs":[{"internalType":"uint256","name":"agentId","type":"uint256"},{"internalType":"string","name":"agentURI","type":"string"}],"name":"setAgentURI","outputs":[],"stateMutability":"nonpayable","type":"function"},{"inputs":[{"internalType":"address","name":"operator","type":"address"},{"internalType":"bool","name":"approved","type":"bool"}],"name":"setApprovalForAll","outputs":[],"stateMutability":"nonpayable","type":"function"},{"inputs":[{"internalType":"bytes4","name":"interfaceId","type":"bytes4"}],"name":"supportsInterface","outputs":[{"internalType":"bool","name":"","type":"bool"}],"stateMutability":"view","type":"function"},{"inputs":[],"name":"symbol","outputs":[{"internalType":"string","name":"","type":"string"}],"stateMutability":"view","type":"function"},{"inputs":[{"internalType":"uint256","name":"tokenId","type":"uint256"}],"name":"tokenURI","outputs":[{"internalType":"string","name":"","type":"string"}],"stateMutability":"view","type":"function"},{"inputs":[{"internalType":"address","name":"from","type":"address"},{"internalType":"address","name":"to","type":"address"},{"internalType":"uint256","name":"tokenId","type":"uint256"}],"name":"transferFrom","outputs":[],"stateMutability":"nonpayable","type":"function"}],"evm":{"bytecode":{"linkReferences":{},"object":"60803462000315576001600160401b039060409080820183811182821017620002ff578252600a815260209269135bd95cc81059d95b9d60b21b84830152825183810181811083821117620002ff57845260088152671353d15051d1539560c21b85820152825190828211620002ff5760008054926001958685811c95168015620002f4575b89861014620002e0578190601f958681116200028d575b508990868311600114620002295784926200021d575b5050600019600383901b1c191690861b1781555b8151938411620002095784548581811c91168015620001fe575b88821014620001ea57838111620001a2575b50869284116001146200013c5783949596509262000130575b5050600019600383901b1c191690821b1781555b600655516111e390816200031b8239f35b0151905038806200010b565b9190601f1984169685845280842093905b8882106200018a575050838596971062000170575b505050811b0181556200011f565b015160001960f88460031b161c1916905538808062000162565b8087859682949686015181550195019301906200014d565b8582528782208480870160051c8201928a8810620001e0575b0160051c019086905b828110620001d4575050620000f2565b838155018690620001c4565b92508192620001bb565b634e487b7160e01b82526022600452602482fd5b90607f1690620000e0565b634e487b7160e01b81526041600452602490fd5b015190503880620000b2565b8480528a85208994509190601f198416865b8d8282106200027657505084116200025c575b505050811b018155620000c6565b015160001960f88460031b161c191690553880806200024e565b8385015186558c979095019493840193016200023b565b9091508380528984208680850160051c8201928c8610620002d6575b918a91869594930160051c01915b828110620002c75750506200009c565b8681558594508a9101620002b7565b92508192620002a9565b634e487b7160e01b83526022600452602483fd5b94607f169462000085565b634e487b7160e01b600052604160045260246000fd5b600080fdfe608060408181526004918236101561001657600080fd5b600092833560e01c91826301ffc9a714610ad05750816306fdde0314610a1f578163081812fc146109ff578163095ea7b3146109225781630af28bd31461082a57816323b872dd146108125781632d2a95851461052f57816342842e0e146105005781636352211e146104cf57816370a082311461047a57816395d89b411461039b578163a22cb465146102f9578163b88d4fde14610263578163c87b56dd14610215578163ce91aede14610125575063e985e9c5146100d557600080fd5b3461012157806003193601126101215760ff816020936100f3610b7b565b6100fb610b96565b6001600160a01b0391821683526005875283832091168252855220549151911615158152f35b5080fd5b91905034610211576020918260031936011261020d573561014581610ea5565b5083526007825280832081519384918181549061016182610c7f565b92838652600192886001821691826000146101e35750506001146101a5575b85886101a189610192848a0385610c41565b51928284938452830190610b3b565b0390f35b87945081939291528383205b8284106101cb57505050820101816101926101a138610180565b8054848a0186015288955087949093019281016101b1565b60ff19168882015294151560051b8701909401945085935061019292506101a19150389050610180565b8380fd5b8280fd5b838334610121576020366003190112610121576102356101a19335610ea5565b5081815161024281610c0f565b5280519161024f83610c0f565b825251918291602083526020830190610b3b565b919050346102115760803660031901126102115761027f610b7b565b610287610b96565b60443591856064359567ffffffffffffffff8711610121573660238801121561012157860135956102c36102ba88610c63565b96519687610c41565b868652366024888301011161012157866102f69760246020930183890137860101526102f0838383610cde565b3361105f565b80f35b91905034610211578060031936011261021157610314610b7b565b9060243591821515809303610397576001600160a01b03169283156103825750338452600560205280842083855260205280842060ff1981541660ff8416179055519081527f17307eab39ab6107e8899845ad3d59bd9653f200f220920489ca2b5937696c3160203392a380f35b836024925191630b61174360e31b8352820152fd5b8480fd5b8284346104775780600319360112610477578151918282600193600154946103c286610c7f565b91828552602096876001821691826000146104505750506001146103f4575b5050506101a19291610192910385610c41565b9190869350600183527fb10e2d527612073b26eecdfd717e6a320cf44b4afac2b0732d9fcbe2b7fa0cf65b82841061043857505050820101816101926101a16103e1565b8054848a01860152889550879490930192810161041f565b60ff19168782015293151560051b8601909301935084925061019291506101a190506103e1565b80fd5b828434610477576020366003190112610477576001600160a01b0361049d610b7b565b169283156104ba5750806020938392526003845220549051908152f35b91516322718ad960e21b815291820152602490fd5b82843461047757602036600319011261047757506104ef60209235610ea5565b90516001600160a01b039091168152f35b505034610121576102f69061051436610bda565b9192519261052184610c0f565b8584526102f0838383610cde565b91905034610211576020928360031936011261047757823567ffffffffffffffff8111610121576105639036908501610bac565b9091600654946000198087146107ff576001870160065585519061058682610c0f565b83825233156107e85787845260028952868420546001600160a01b031680151591899190836107b6575b503380875260038c528987208054600101905582875260028c5289872080546001600160a01b03191682179055907fddf252ad1be2c89b69c2b068fc378daa952ba7f163c4a11628f55a4df523b3ef8780a46107a057333b610658575b505050907f77284e1a75d149ef26161b755b08a0af1ea0723010e19e79bce5626d693581f861064f8361064287958587610ee0565b8551918291339583610e7d565b0390a351908152f35b85979492979693919651858180610696630a85bd0160e11b95868352338d8401528d6024840152896044840152608060648401526084830190610b3b565b03818c335af189918161075c575b506107045750505050503d6000146106fb573d6106c081610c63565b906106cd84519283610c41565b81528094823d92013e5b835193846106f5578251633250574960e11b81523381860152602490fd5b84925001fd5b606093506106d7565b909193969294975063ffffffff60e01b160361074557507f77284e1a75d149ef26161b755b08a0af1ea0723010e19e79bce5626d693581f861064f8561060d565b602490845190633250574960e11b82523390820152fd5b9091508681813d8311610799575b6107748183610c41565b8101031261079557516001600160e01b0319811681036107955790386106a4565b8980fd5b503d61076a565b506024918551916339e3563760e11b8352820152fd5b600083815260046020526040902080546001600160a01b031916905581875260038c52898720908154019055386105b0565b8651633250574960e11b8152808401859052602490fd5b634e487b7160e01b835260118252602483fd5b8334610477576102f661082436610bda565b91610cde565b8391503461012157826003193601126101215780359060243567ffffffffffffffff811161020d5761085f9036908301610bac565b92909161086b82610ea5565b6001600160a01b0390811633811415919082610900575b50816108eb575b5061089a57506102f6939450610ee0565b608490602087519162461bcd60e51b8352820152602560248201527f4167656e744964656e7469747952656769737472793a206e6f7420617574686f6044820152641c9a5e995960da1b6064820152fd5b3391506108f784610cb9565b16141587610889565b9091508652600560205286862033875260205260ff8787205416159088610882565b9190503461021157806003193601126102115761093d610b7b565b9160243561094a81610ea5565b331515806109ec575b806109c3575b6109ad576001600160a01b039485169482918691167f8c5be1e5ebec7d5bd14f71427d1e84f3dd0314c0f7b2291e5b200ac8c7c3b9258880a48452602052822080546001600160a01b031916909117905580f35b835163a9fbf51f60e01b81523381850152602490fd5b506001600160a01b03811686526005602090815284872033885290528386205460ff1615610959565b506001600160a01b038116331415610953565b82843461047757602036600319011261047757506104ef60209235610cb9565b82843461047757806003193601126104775781519182828354610a4181610c7f565b9081845260209560019187600182169182600014610450575050600114610a75575050506101a19291610192910385610c41565b91908693508280527f290decd9548b62a8d60345a988386fc84ba6bc95484008f6362f93160ef3e5635b828410610ab857505050820101816101926101a16103e1565b8054848a018601528895508794909301928101610a9f565b849134610211576020366003190112610211573563ffffffff60e01b811680910361021157602092506380ac58cd60e01b8114908115610b2a575b8115610b19575b5015158152f35b6301ffc9a760e01b14905083610b12565b635b5e139f60e01b81149150610b0b565b919082519283825260005b848110610b67575050826000602080949584010152601f8019910116010190565b602081830181015184830182015201610b46565b600435906001600160a01b0382168203610b9157565b600080fd5b602435906001600160a01b0382168203610b9157565b9181601f84011215610b915782359167ffffffffffffffff8311610b915760208381860195010111610b9157565b6060906003190112610b91576001600160a01b03906004358281168103610b9157916024359081168103610b91579060443590565b6020810190811067ffffffffffffffff821117610c2b57604052565b634e487b7160e01b600052604160045260246000fd5b90601f8019910116810190811067ffffffffffffffff821117610c2b57604052565b67ffffffffffffffff8111610c2b57601f01601f191660200190565b90600182811c92168015610caf575b6020831014610c9957565b634e487b7160e01b600052602260045260246000fd5b91607f1691610c8e565b610cc281610ea5565b506000908152600460205260409020546001600160a01b031690565b6001600160a01b039182169290918315610e6457600092828452826020956002875260409684888820541696879133151580610dce575b509060027fddf252ad1be2c89b69c2b068fc378daa952ba7f163c4a11628f55a4df523b3ef9284610d9b575b858352600381528b8320805460010190558683525289812080546001600160a01b0319168517905580a41692838303610d7a5750505050565b6064945051926364283d7b60e01b8452600484015260248301526044820152fd5b600087815260046020526040902080546001600160a01b0319169055848352600381528b83208054600019019055610d41565b91939450915080610e23575b15610dea57859291879138610d15565b878688610e07576024915190637e27328960e01b82526004820152fd5b604491519063177e802f60e01b82523360048301526024820152fd5b503387148015610e48575b80610dda5750858252600481523385898420541614610dda565b5086825260058152878220338352815260ff8883205416610e2e565b604051633250574960e11b815260006004820152602490fd5b90918060409360208452816020850152848401376000828201840152601f01601f1916010190565b6000818152600260205260409020546001600160a01b0316908115610ec8575090565b60249060405190637e27328960e01b82526004820152fd5b90929160009382855260209460078652604081209067ffffffffffffffff841161104b57610f0e8254610c7f565b601f8111611008575b508096601f8511600114610f8357507fe335f4a32c56fb32eb92f5084017a5836fcdc9307d02f49f27dd61f0f6a434a894959684610f78575b508360011b906000198560031b1c19161790555b610f7360405192839283610e7d565b0390a2565b905082013538610f50565b96601f1985169783835280832092905b898210610ff0575050847fe335f4a32c56fb32eb92f5084017a5836fcdc9307d02f49f27dd61f0f6a434a896979810610fd6575b5050600183811b019055610f64565b830135600019600386901b60f8161c191690553880610fc7565b80600184958294958901358155019401920190610f93565b828252878220601f860160051c810191898710611041575b601f0160051c01905b8181106110365750610f17565b828155600101611029565b9091508190611020565b634e487b7160e01b81526041600452602490fd5b90939192833b611071575b5050505050565b604051630a85bd0160e11b8082526001600160a01b0393841660048301529583166024820152604481019190915260806064820152949216926020929185906110be906084830190610b3b565b039483816000978189895af1869181611169575b50611133575050503d60001461112a573d6110ec81610c63565b906110fa6040519283610c41565b81528093823d92013e5b8251928361112557604051633250574960e11b815260048101849052602490fd5b019050fd5b60609250611104565b919450915063ffffffff60e01b16036111515750388080808061106a565b60249060405190633250574960e11b82526004820152fd5b9091508481813d83116111a6575b6111818183610c41565b810103126111a257516001600160e01b0319811681036111a25790386110d2565b8680fd5b503d61117756fea2646970667358221220e3bf571d558e48a8275a0f4478a86874a6d8a05af2f3201fbe0cc8603e3acc3764736f6c63430008180033","opcodes":"PUSH1 0x80 CALLVALUE PUSH3 0x315 JUMPI PUSH1 0x1 PUSH1 0x1 PUSH1 0x40 SHL SUB SWAP1 PUSH1 0x40 SWAP1 DUP1 DUP3 ADD DUP4 DUP2 GT DUP3 DUP3 LT OR PUSH3 0x2FF JUMPI DUP3 MSTORE PUSH1 0xA DUP2 MSTORE PUSH1 0x20 SWAP3 PUSH10 0x135BD95CC81059D95B9D PUSH1 0xB2 SHL DUP5 DUP4 ADD MSTORE DUP3 MLOAD DUP4 DUP2 ADD DUP2 DUP2 LT DUP4 DUP3 GT OR PUSH3 0x2FF JUMPI DUP5 MSTORE PUSH1 0x8 DUP2 MSTORE PUSH8 0x1353D15051D15395 PUSH1 0xC2 SHL DUP6 DUP3 ADD MSTORE DUP3 MLOAD SWAP1 DUP3 DUP3 GT PUSH3 0x2FF JUMPI PUSH1 0x0 DUP1 SLOAD SWAP3 PUSH1 0x1 SWAP6 DUP7 DUP6 DUP2 SHR SWAP6 AND DUP1 ISZERO PUSH3 0x2F4 JUMPI JUMPDEST DUP10 DUP7 LT EQ PUSH3 0x2E0 JUMPI DUP2 SWAP1 PUSH1 0x1F SWAP6 DUP7 DUP2 GT PUSH3 0x28D JUMPI JUMPDEST POP DUP10 SWAP1 DUP7 DUP4 GT PUSH1 0x1 EQ PUSH3 0x229 JUMPI DUP5 SWAP3 PUSH3 0x21D JUMPI JUMPDEST POP POP PUSH1 0x0 NOT PUSH1 0x3 DUP4 SWAP1 SHL SHR NOT AND SWAP1 DUP7 SHL OR DUP2 SSTORE JUMPDEST DUP2 MLOAD SWAP4 DUP5 GT PUSH3 0x209 JUMPI DUP5 SLOAD DUP6 DUP2 DUP2 SHR SWAP2 AND DUP1 ISZERO PUSH3 0x1FE JUMPI JUMPDEST DUP9 DUP3 LT EQ PUSH3 0x1EA JUMPI DUP4 DUP2 GT PUSH3 0x1A2 JUMPI JUMPDEST POP DUP7 SWAP3 DUP5 GT PUSH1 0x1 EQ PUSH3 0x13C JUMPI DUP4 SWAP5 SWAP6 SWAP7 POP SWAP3 PUSH3 0x130 JUMPI JUMPDEST POP POP PUSH1 0x0 NOT PUSH1 0x3 DUP4 SWAP1 SHL SHR NOT AND SWAP1 DUP3 SHL OR DUP2 SSTORE JUMPDEST PUSH1 0x6 SSTORE MLOAD PUSH2 0x11E3 SWAP1 DUP2 PUSH3 0x31B DUP3 CODECOPY RETURN JUMPDEST ADD MLOAD SWAP1 POP CODESIZE DUP1 PUSH3 0x10B JUMP JUMPDEST SWAP2 SWAP1 PUSH1 0x1F NOT DUP5 AND SWAP7 DUP6 DUP5 MSTORE DUP1 DUP5 KECCAK256 SWAP4 SWAP1 JUMPDEST DUP9 DUP3 LT PUSH3 0x18A JUMPI POP POP DUP4 DUP6 SWAP7 SWAP8 LT PUSH3 0x170 JUMPI JUMPDEST POP POP POP DUP2 SHL ADD DUP2 SSTORE PUSH3 0x11F JUMP JUMPDEST ADD MLOAD PUSH1 0x0 NOT PUSH1 0xF8 DUP5 PUSH1 0x3 SHL AND SHR NOT AND SWAP1 SSTORE CODESIZE DUP1 DUP1 PUSH3 0x162 JUMP JUMPDEST DUP1 DUP8 DUP6 SWAP7 DUP3 SWAP5 SWAP7 DUP7 ADD MLOAD DUP2 SSTORE ADD SWAP6 ADD SWAP4 ADD SWAP1 PUSH3 0x14D JUMP JUMPDEST DUP6 DUP3 MSTORE DUP8 DUP3 KECCAK256 DUP5 DUP1 DUP8 ADD PUSH1 0x5 SHR DUP3 ADD SWAP3 DUP11 DUP9 LT PUSH3 0x1E0 JUMPI JUMPDEST ADD PUSH1 0x5 SHR ADD SWAP1 DUP7 SWAP1 JUMPDEST DUP3 DUP2 LT PUSH3 0x1D4 JUMPI POP POP PUSH3 0xF2 JUMP JUMPDEST DUP4 DUP2 SSTORE ADD DUP7 SWAP1 PUSH3 0x1C4 JUMP JUMPDEST SWAP3 POP DUP2 SWAP3 PUSH3 0x1BB JUMP JUMPDEST PUSH4 0x4E487B71 PUSH1 0xE0 SHL DUP3 MSTORE PUSH1 0x22 PUSH1 0x4 MSTORE PUSH1 0x24 DUP3 REVERT JUMPDEST SWAP1 PUSH1 0x7F AND SWAP1 PUSH3 0xE0 JUMP JUMPDEST PUSH4 0x4E487B71 PUSH1 0xE0 SHL DUP2 MSTORE PUSH1 0x41 PUSH1 0x4 MSTORE PUSH1 0x24 SWAP1 REVERT JUMPDEST ADD MLOAD SWAP1 POP CODESIZE DUP1 PUSH3 0xB2 JUMP JUMPDEST DUP5 DUP1 MSTORE DUP11 DUP6 KECCAK256 DUP10 SWAP5 POP SWAP2 SWAP1 PUSH1 0x1F NOT DUP5 AND DUP7 JUMPDEST DUP14 DUP3 DUP3 LT PUSH3 0x276 JUMPI POP POP DUP5 GT PUSH3 0x25C JUMPI JUMPDEST POP POP POP DUP2 SHL ADD DUP2 SSTORE PUSH3 0xC6 JUMP JUMPDEST ADD MLOAD PUSH1 0x0 NOT PUSH1 0xF8 DUP5 PUSH1 0x3 SHL AND SHR NOT AND SWAP1 SSTORE CODESIZE DUP1 DUP1 PUSH3 0x24E JUMP JUMPDEST DUP4 DUP6 ADD MLOAD DUP7 SSTORE DUP13 SWAP8 SWAP1 SWAP6 ADD SWAP5 SWAP4 DUP5 ADD SWAP4 ADD PUSH3 0x23B JUMP JUMPDEST SWAP1 SWAP2 POP DUP4 DUP1 MSTORE DUP10 DUP5 KECCAK256 DUP7 DUP1 DUP6 ADD PUSH1 0x5 SHR DUP3 ADD SWAP3 DUP13 DUP7 LT PUSH3 0x2D6 JUMPI JUMPDEST SWAP2 DUP11 SWAP2 DUP7 SWAP6 SWAP5 SWAP4 ADD PUSH1 0x5 SHR ADD SWAP2 JUMPDEST DUP3 DUP2 LT PUSH3 0x2C7 JUMPI POP POP PUSH3 0x9C JUMP JUMPDEST DUP7 DUP2 SSTORE DUP6 SWAP5 POP DUP11 SWAP2 ADD PUSH3 0x2B7 JUMP JUMPDEST SWAP3 POP DUP2 SWAP3 PUSH3 0x2A9 JUMP JUMPDEST PUSH4 0x4E487B71 PUSH1 0xE0 SHL DUP4 MSTORE PUSH1 0x22 PUSH1 0x4 MSTORE PUSH1 0x24 DUP4 REVERT JUMPDEST SWAP5 PUSH1 0x7F AND SWAP5 PUSH3 0x85 JUMP JUMPDEST PUSH4 0x4E487B71 PUSH1 0xE0 SHL PUSH1 0x0 MSTORE PUSH1 0x41 PUSH1 0x4 MSTORE PUSH1 0x24 PUSH1 0x0 REVERT JUMPDEST PUSH1 0x0 DUP1 REVERT INVALID PUSH1 0x80 PUSH1 0x40 DUP2 DUP2 MSTORE PUSH1 0x4 SWAP2 DUP3 CALLDATASIZE LT ISZERO PUSH2 0x16 JUMPI PUSH1 0x0 DUP1 REVERT JUMPDEST PUSH1 0x0 SWAP3 DUP4 CALLDATALOAD PUSH1 0xE0 SHR SWAP2 DUP3 PUSH4 0x1FFC9A7 EQ PUSH2 0xAD0 JUMPI POP DUP2 PUSH4 0x6FDDE03 EQ PUSH2 0xA1F JUMPI DUP2 PUSH4 0x81812FC EQ PUSH2 0x9FF JUMPI DUP2 PUSH4 0x95EA7B3 EQ PUSH2 0x922 JUMPI DUP2 PUSH4 0xAF28BD3 EQ PUSH2 0x82A JUMPI DUP2 PUSH4 0x23B872DD EQ PUSH2 0x812 JUMPI DUP2 PUSH4 0x2D2A9585 EQ PUSH2 0x52F JUMPI DUP2 PUSH4 0x42842E0E EQ PUSH2 0x500 JUMPI DUP2 PUSH4 0x6352211E EQ PUSH2 0x4CF JUMPI DUP2 PUSH4 0x70A08231 EQ PUSH2 0x47A JUMPI DUP2 PUSH4 0x95D89B41 EQ PUSH2 0x39B JUMPI DUP2 PUSH4 0xA22CB465 EQ PUSH2 0x2F9 JUMPI DUP2 PUSH4 0xB88D4FDE EQ PUSH2 0x263 JUMPI DUP2 PUSH4 0xC87B56DD EQ PUSH2 0x215 JUMPI DUP2 PUSH4 0xCE91AEDE EQ PUSH2 0x125 JUMPI POP PUSH4 0xE985E9C5 EQ PUSH2 0xD5 JUMPI PUSH1 0x0 DUP1 REVERT JUMPDEST CALLVALUE PUSH2 0x121 JUMPI DUP1 PUSH1 0x3 NOT CALLDATASIZE ADD SLT PUSH2 0x121 JUMPI PUSH1 0xFF DUP2 PUSH1 0x20 SWAP4 PUSH2 0xF3 PUSH2 0xB7B JUMP JUMPDEST PUSH2 0xFB PUSH2 0xB96 JUMP JUMPDEST PUSH1 0x1 PUSH1 0x1 PUSH1 0xA0 SHL SUB SWAP2 DUP3 AND DUP4 MSTORE PUSH1 0x5 DUP8 MSTORE DUP4 DUP4 KECCAK256 SWAP2 AND DUP3 MSTORE DUP6 MSTORE KECCAK256 SLOAD SWAP2 MLOAD SWAP2 AND ISZERO ISZERO DUP2 MSTORE RETURN JUMPDEST POP DUP1 REVERT JUMPDEST SWAP2 SWAP1 POP CALLVALUE PUSH2 0x211 JUMPI PUSH1 0x20 SWAP2 DUP3 PUSH1 0x3 NOT CALLDATASIZE ADD SLT PUSH2 0x20D JUMPI CALLDATALOAD PUSH2 0x145 DUP2 PUSH2 0xEA5 JUMP JUMPDEST POP DUP4 MSTORE PUSH1 0x7 DUP3 MSTORE DUP1 DUP4 KECCAK256 DUP2 MLOAD SWAP4 DUP5 SWAP2 DUP2 DUP2 SLOAD SWAP1 PUSH2 0x161 DUP3 PUSH2 0xC7F JUMP JUMPDEST SWAP3 DUP4 DUP7 MSTORE PUSH1 0x1 SWAP3 DUP9 PUSH1 0x1 DUP3 AND SWAP2 DUP3 PUSH1 0x0 EQ PUSH2 0x1E3 JUMPI POP POP PUSH1 0x1 EQ PUSH2 0x1A5 JUMPI JUMPDEST DUP6 DUP9 PUSH2 0x1A1 DUP10 PUSH2 0x192 DUP5 DUP11 SUB DUP6 PUSH2 0xC41 JUMP JUMPDEST MLOAD SWAP3 DUP3 DUP5 SWAP4 DUP5 MSTORE DUP4 ADD SWAP1 PUSH2 0xB3B JUMP JUMPDEST SUB SWAP1 RETURN JUMPDEST DUP8 SWAP5 POP DUP2 SWAP4 SWAP3 SWAP2 MSTORE DUP4 DUP4 KECCAK256 JUMPDEST DUP3 DUP5 LT PUSH2 0x1CB JUMPI POP POP POP DUP3 ADD ADD DUP2 PUSH2 0x192 PUSH2 0x1A1 CODESIZE PUSH2 0x180 JUMP JUMPDEST DUP1 SLOAD DUP5 DUP11 ADD DUP7 ADD MSTORE DUP9 SWAP6 POP DUP8 SWAP5 SWAP1 SWAP4 ADD SWAP3 DUP2 ADD PUSH2 0x1B1 JUMP JUMPDEST PUSH1 0xFF NOT AND DUP9 DUP3 ADD MSTORE SWAP5 ISZERO ISZERO PUSH1 0x5 SHL DUP8 ADD SWAP1 SWAP5 ADD SWAP5 POP DUP6 SWAP4 POP PUSH2 0x192 SWAP3 POP PUSH2 0x1A1 SWAP2 POP CODESIZE SWAP1 POP PUSH2 0x180 JUMP JUMPDEST DUP4 DUP1 REVERT JUMPDEST DUP3 DUP1 REVERT JUMPDEST DUP4 DUP4 CALLVALUE PUSH2 0x121 JUMPI PUSH1 0x20 CALLDATASIZE PUSH1 0x3 NOT ADD SLT PUSH2 0x121 JUMPI PUSH2 0x235 PUSH2 0x1A1 SWAP4 CALLDATALOAD PUSH2 0xEA5 JUMP JUMPDEST POP DUP2 DUP2 MLOAD PUSH2 0x242 DUP2 PUSH2 0xC0F JUMP JUMPDEST MSTORE DUP1 MLOAD SWAP2 PUSH2 0x24F DUP4 PUSH2 0xC0F JUMP JUMPDEST DUP3 MSTORE MLOAD SWAP2 DUP3 SWAP2 PUSH1 0x20 DUP4 MSTORE PUSH1 0x20 DUP4 ADD SWAP1 PUSH2 0xB3B JUMP JUMPDEST SWAP2 SWAP1 POP CALLVALUE PUSH2 0x211 JUMPI PUSH1 0x80 CALLDATASIZE PUSH1 0x3 NOT ADD SLT PUSH2 0x211 JUMPI PUSH2 0x27F PUSH2 0xB7B JUMP JUMPDEST PUSH2 0x287 PUSH2 0xB96 JUMP JUMPDEST PUSH1 0x44 CALLDATALOAD SWAP2 DUP6 PUSH1 0x64 CALLDATALOAD SWAP6 PUSH8 0xFFFFFFFFFFFFFFFF DUP8 GT PUSH2 0x121 JUMPI CALLDATASIZE PUSH1 0x23 DUP9 ADD SLT ISZERO PUSH2 0x121 JUMPI DUP7 ADD CALLDATALOAD SWAP6 PUSH2 0x2C3 PUSH2 0x2BA DUP9 PUSH2 0xC63 JUMP JUMPDEST SWAP7 MLOAD SWAP7 DUP8 PUSH2 0xC41 JUMP JUMPDEST DUP7 DUP7 MSTORE CALLDATASIZE PUSH1 0x24 DUP9 DUP4 ADD ADD GT PUSH2 0x121 JUMPI DUP7 PUSH2 0x2F6 SWAP8 PUSH1 0x24 PUSH1 0x20 SWAP4 ADD DUP4 DUP10 ADD CALLDATACOPY DUP7 ADD ADD MSTORE PUSH2 0x2F0 DUP4 DUP4 DUP4 PUSH2 0xCDE JUMP JUMPDEST CALLER PUSH2 0x105F JUMP JUMPDEST DUP1 RETURN JUMPDEST SWAP2 SWAP1 POP CALLVALUE PUSH2 0x211 JUMPI DUP1 PUSH1 0x3 NOT CALLDATASIZE ADD SLT PUSH2 0x211 JUMPI PUSH2 0x314 PUSH2 0xB7B JUMP JUMPDEST SWAP1 PUSH1 0x24 CALLDATALOAD SWAP2 DUP3 ISZERO ISZERO DUP1 SWAP4 SUB PUSH2 0x397 JUMPI PUSH1 0x1 PUSH1 0x1 PUSH1 0xA0 SHL SUB AND SWAP3 DUP4 ISZERO PUSH2 0x382 JUMPI POP CALLER DUP5 MSTORE PUSH1 0x5 PUSH1 0x20 MSTORE DUP1 DUP5 KECCAK256 DUP4 DUP6 MSTORE PUSH1 0x20 MSTORE DUP1 DUP5 KECCAK256 PUSH1 0xFF NOT DUP2 SLOAD AND PUSH1 0xFF DUP5 AND OR SWAP1 SSTORE MLOAD SWAP1 DUP2 MSTORE PUSH32 0x17307EAB39AB6107E8899845AD3D59BD9653F200F220920489CA2B5937696C31 PUSH1 0x20 CALLER SWAP3 LOG3 DUP1 RETURN JUMPDEST DUP4 PUSH1 0x24 SWAP3 MLOAD SWAP2 PUSH4 0xB611743 PUSH1 0xE3 SHL DUP4 MSTORE DUP3 ADD MSTORE REVERT JUMPDEST DUP5 DUP1 REVERT JUMPDEST DUP3 DUP5 CALLVALUE PUSH2 0x477 JUMPI DUP1 PUSH1 0x3 NOT CALLDATASIZE ADD SLT PUSH2 0x477 JUMPI DUP2 MLOAD SWAP2 DUP3 DUP3 PUSH1 0x1 SWAP4 PUSH1 0x1 SLOAD SWAP5 PUSH2 0x3C2 DUP7 PUSH2 0xC7F JUMP JUMPDEST SWAP2 DUP3 DUP6 MSTORE PUSH1 0x20 SWAP7 DUP8 PUSH1 0x1 DUP3 AND SWAP2 DUP3 PUSH1 0x0 EQ PUSH2 0x450 JUMPI POP POP PUSH1 0x1 EQ PUSH2 0x3F4 JUMPI JUMPDEST POP POP POP PUSH2 0x1A1 SWAP3 SWAP2 PUSH2 0x192 SWAP2 SUB DUP6 PUSH2 0xC41 JUMP JUMPDEST SWAP2 SWAP1 DUP7 SWAP4 POP PUSH1 0x1 DUP4 MSTORE PUSH32 0xB10E2D527612073B26EECDFD717E6A320CF44B4AFAC2B0732D9FCBE2B7FA0CF6 JUMPDEST DUP3 DUP5 LT PUSH2 0x438 JUMPI POP POP POP DUP3 ADD ADD DUP2 PUSH2 0x192 PUSH2 0x1A1 PUSH2 0x3E1 JUMP JUMPDEST DUP1 SLOAD DUP5 DUP11 ADD DUP7 ADD MSTORE DUP9 SWAP6 POP DUP8 SWAP5 SWAP1 SWAP4 ADD SWAP3 DUP2 ADD PUSH2 0x41F JUMP JUMPDEST PUSH1 0xFF NOT AND DUP8 DUP3 ADD MSTORE SWAP4 ISZERO ISZERO PUSH1 0x5 SHL DUP7 ADD SWAP1 SWAP4 ADD SWAP4 POP DUP5 SWAP3 POP PUSH2 0x192 SWAP2 POP PUSH2 0x1A1 SWAP1 POP PUSH2 0x3E1 JUMP JUMPDEST DUP1 REVERT JUMPDEST DUP3 DUP5 CALLVALUE PUSH2 0x477 JUMPI PUSH1 0x20 CALLDATASIZE PUSH1 0x3 NOT ADD SLT PUSH2 0x477 JUMPI PUSH1 0x1 PUSH1 0x1 PUSH1 0xA0 SHL SUB PUSH2 0x49D PUSH2 0xB7B JUMP JUMPDEST AND SWAP3 DUP4 ISZERO PUSH2 0x4BA JUMPI POP DUP1 PUSH1 0x20 SWAP4 DUP4 SWAP3 MSTORE PUSH1 0x3 DUP5 MSTORE KECCAK256 SLOAD SWAP1 MLOAD SWAP1 DUP2 MSTORE RETURN JUMPDEST SWAP2 MLOAD PUSH4 0x22718AD9 PUSH1 0xE2 SHL DUP2 MSTORE SWAP2 DUP3 ADD MSTORE PUSH1 0x24 SWAP1 REVERT JUMPDEST DUP3 DUP5 CALLVALUE PUSH2 0x477 JUMPI PUSH1 0x20 CALLDATASIZE PUSH1 0x3 NOT ADD SLT PUSH2 0x477 JUMPI POP PUSH2 0x4EF PUSH1 0x20 SWAP3 CALLDATALOAD PUSH2 0xEA5 JUMP JUMPDEST SWAP1 MLOAD PUSH1 0x1 PUSH1 0x1 PUSH1 0xA0 SHL SUB SWAP1 SWAP2 AND DUP2 MSTORE RETURN JUMPDEST POP POP CALLVALUE PUSH2 0x121 JUMPI PUSH2 0x2F6 SWAP1 PUSH2 0x514 CALLDATASIZE PUSH2 0xBDA JUMP JUMPDEST SWAP2 SWAP3 MLOAD SWAP3 PUSH2 0x521 DUP5 PUSH2 0xC0F JUMP JUMPDEST DUP6 DUP5 MSTORE PUSH2 0x2F0 DUP4 DUP4 DUP4 PUSH2 0xCDE JUMP JUMPDEST SWAP2 SWAP1 POP CALLVALUE PUSH2 0x211 JUMPI PUSH1 0x20 SWAP3 DUP4 PUSH1 0x3 NOT CALLDATASIZE ADD SLT PUSH2 0x477 JUMPI DUP3 CALLDATALOAD PUSH8 0xFFFFFFFFFFFFFFFF DUP2 GT PUSH2 0x121 JUMPI PUSH2 0x563 SWAP1 CALLDATASIZE SWAP1 DUP6 ADD PUSH2 0xBAC JUMP JUMPDEST SWAP1 SWAP2 PUSH1 0x6 SLOAD SWAP5 PUSH1 0x0 NOT DUP1 DUP8 EQ PUSH2 0x7FF JUMPI PUSH1 0x1 DUP8 ADD PUSH1 0x6 SSTORE DUP6 MLOAD SWAP1 PUSH2 0x586 DUP3 PUSH2 0xC0F JUMP JUMPDEST DUP4 DUP3 MSTORE CALLER ISZERO PUSH2 0x7E8 JUMPI DUP8 DUP5 MSTORE PUSH1 0x2 DUP10 MSTORE DUP7 DUP5 KECCAK256 SLOAD PUSH1 0x1 PUSH1 0x1 PUSH1 0xA0 SHL SUB AND DUP1 ISZERO ISZERO SWAP2 DUP10 SWAP2 SWAP1 DUP4 PUSH2 0x7B6 JUMPI JUMPDEST POP CALLER DUP1 DUP8 MSTORE PUSH1 0x3 DUP13 MSTORE DUP10 DUP8 KECCAK256 DUP1 SLOAD PUSH1 0x1 ADD SWAP1 SSTORE DUP3 DUP8 MSTORE PUSH1 0x2 DUP13 MSTORE DUP10 DUP8 KECCAK256 DUP1 SLOAD PUSH1 0x1 PUSH1 0x1 PUSH1 0xA0 SHL SUB NOT AND DUP3 OR SWAP1 SSTORE SWAP1 PUSH32 0xDDF252AD1BE2C89B69C2B068FC378DAA952BA7F163C4A11628F55A4DF523B3EF DUP8 DUP1 LOG4 PUSH2 0x7A0 JUMPI CALLER EXTCODESIZE PUSH2 0x658 JUMPI JUMPDEST POP POP POP SWAP1 PUSH32 0x77284E1A75D149EF26161B755B08A0AF1EA0723010E19E79BCE5626D693581F8 PUSH2 0x64F DUP4 PUSH2 0x642 DUP8 SWAP6 DUP6 DUP8 PUSH2 0xEE0 JUMP JUMPDEST DUP6 MLOAD SWAP2 DUP3 SWAP2 CALLER SWAP6 DUP4 PUSH2 0xE7D JUMP JUMPDEST SUB SWAP1 LOG3 MLOAD SWAP1 DUP2 MSTORE RETURN JUMPDEST DUP6 SWAP8 SWAP5 SWAP3 SWAP8 SWAP7 SWAP4 SWAP2 SWAP7 MLOAD DUP6 DUP2 DUP1 PUSH2 0x696 PUSH4 0xA85BD01 PUSH1 0xE1 SHL SWAP6 DUP7 DUP4 MSTORE CALLER DUP14 DUP5 ADD MSTORE DUP14 PUSH1 0x24 DUP5 ADD MSTORE DUP10 PUSH1 0x44 DUP5 ADD MSTORE PUSH1 0x80 PUSH1 0x64 DUP5 ADD MSTORE PUSH1 0x84 DUP4 ADD SWAP1 PUSH2 0xB3B JUMP JUMPDEST SUB DUP2 DUP13 CALLER GAS CALL DUP10 SWAP2 DUP2 PUSH2 0x75C JUMPI JUMPDEST POP PUSH2 0x704 JUMPI POP POP POP POP POP RETURNDATASIZE PUSH1 0x0 EQ PUSH2 0x6FB JUMPI RETURNDATASIZE PUSH2 0x6C0 DUP2 PUSH2 0xC63 JUMP JUMPDEST SWAP1 PUSH2 0x6CD DUP5 MLOAD SWAP3 DUP4 PUSH2 0xC41 JUMP JUMPDEST DUP2 MSTORE DUP1 SWAP5 DUP3 RETURNDATASIZE SWAP3 ADD RETURNDATACOPY JUMPDEST DUP4 MLOAD SWAP4 DUP5 PUSH2 0x6F5 JUMPI DUP3 MLOAD PUSH4 0x32505749 PUSH1 0xE1 SHL DUP2 MSTORE CALLER DUP2 DUP7 ADD MSTORE PUSH1 0x24 SWAP1 REVERT JUMPDEST DUP5 SWAP3 POP ADD REVERT JUMPDEST PUSH1 0x60 SWAP4 POP PUSH2 0x6D7 JUMP JUMPDEST SWAP1 SWAP2 SWAP4 SWAP7 SWAP3 SWAP5 SWAP8 POP PUSH4 0xFFFFFFFF PUSH1 0xE0 SHL AND SUB PUSH2 0x745 JUMPI POP PUSH32 0x77284E1A75D149EF26161B755B08A0AF1EA0723010E19E79BCE5626D693581F8 PUSH2 0x64F DUP6 PUSH2 0x60D JUMP JUMPDEST PUSH1 0x24 SWAP1 DUP5 MLOAD SWAP1 PUSH4 0x32505749 PUSH1 0xE1 SHL DUP3 MSTORE CALLER SWAP1 DUP3 ADD MSTORE REVERT JUMPDEST SWAP1 SWAP2 POP DUP7 DUP2 DUP2 RETURNDATASIZE DUP4 GT PUSH2 0x799 JUMPI JUMPDEST PUSH2 0x774 DUP2 DUP4 PUSH2 0xC41 JUMP JUMPDEST DUP2 ADD SUB SLT PUSH2 0x795 JUMPI MLOAD PUSH1 0x1 PUSH1 0x1 PUSH1 0xE0 SHL SUB NOT DUP2 AND DUP2 SUB PUSH2 0x795 JUMPI SWAP1 CODESIZE PUSH2 0x6A4 JUMP JUMPDEST DUP10 DUP1 REVERT JUMPDEST POP RETURNDATASIZE PUSH2 0x76A JUMP JUMPDEST POP PUSH1 0x24 SWAP2 DUP6 MLOAD SWAP2 PUSH4 0x39E35637 PUSH1 0xE1 SHL DUP4 MSTORE DUP3 ADD MSTORE REVERT JUMPDEST PUSH1 0x0 DUP4 DUP2 MSTORE PUSH1 0x4 PUSH1 0x20 MSTORE PUSH1 0x40 SWAP1 KECCAK256 DUP1 SLOAD PUSH1 0x1 PUSH1 0x1 PUSH1 0xA0 SHL SUB NOT AND SWAP1 SSTORE DUP2 DUP8 MSTORE PUSH1 0x3 DUP13 MSTORE DUP10 DUP8 KECCAK256 SWAP1 DUP2 SLOAD ADD SWAP1 SSTORE CODESIZE PUSH2 0x5B0 JUMP JUMPDEST DUP7 MLOAD PUSH4 0x32505749 PUSH1 0xE1 SHL DUP2 MSTORE DUP1 DUP5 ADD DUP6 SWAP1 MSTORE PUSH1 0x24 SWAP1 REVERT JUMPDEST PUSH4 0x4E487B71 PUSH1 0xE0 SHL DUP4 MSTORE PUSH1 0x11 DUP3 MSTORE PUSH1 0x24 DUP4 REVERT JUMPDEST DUP4 CALLVALUE PUSH2 0x477 JUMPI PUSH2 0x2F6 PUSH2 0x824 CALLDATASIZE PUSH2 0xBDA JUMP JUMPDEST SWAP2 PUSH2 0xCDE JUMP JUMPDEST DUP4 SWAP2 POP CALLVALUE PUSH2 0x121 JUMPI DUP3 PUSH1 0x3 NOT CALLDATASIZE ADD SLT PUSH2 0x121 JUMPI DUP1 CALLDATALOAD SWAP1 PUSH1 0x24 CALLDATALOAD PUSH8 0xFFFFFFFFFFFFFFFF DUP2 GT PUSH2 0x20D JUMPI PUSH2 0x85F SWAP1 CALLDATASIZE SWAP1 DUP4 ADD PUSH2 0xBAC JUMP JUMPDEST SWAP3 SWAP1 SWAP2 PUSH2 0x86B DUP3 PUSH2 0xEA5 JUMP JUMPDEST PUSH1 0x1 PUSH1 0x1 PUSH1 0xA0 SHL SUB SWAP1 DUP2 AND CALLER DUP2 EQ ISZERO SWAP2 SWAP1 DUP3 PUSH2 0x900 JUMPI JUMPDEST POP DUP2 PUSH2 0x8EB JUMPI JUMPDEST POP PUSH2 0x89A JUMPI POP PUSH2 0x2F6 SWAP4 SWAP5 POP PUSH2 0xEE0 JUMP JUMPDEST PUSH1 0x84 SWAP1 PUSH1 0x20 DUP8 MLOAD SWAP2 PUSH3 0x461BCD PUSH1 0xE5 SHL DUP4 MSTORE DUP3 ADD MSTORE PUSH1 0x25 PUSH1 0x24 DUP3 ADD MSTORE PUSH32 0x4167656E744964656E7469747952656769737472793A206E6F7420617574686F PUSH1 0x44 DUP3 ADD MSTORE PUSH5 0x1C9A5E9959 PUSH1 0xDA SHL PUSH1 0x64 DUP3 ADD MSTORE REVERT JUMPDEST CALLER SWAP2 POP PUSH2 0x8F7 DUP5 PUSH2 0xCB9 JUMP JUMPDEST AND EQ ISZERO DUP8 PUSH2 0x889 JUMP JUMPDEST SWAP1 SWAP2 POP DUP7 MSTORE PUSH1 0x5 PUSH1 0x20 MSTORE DUP7 DUP7 KECCAK256 CALLER DUP8 MSTORE PUSH1 0x20 MSTORE PUSH1 0xFF DUP8 DUP8 KECCAK256 SLOAD AND ISZERO SWAP1 DUP9 PUSH2 0x882 JUMP JUMPDEST SWAP2 SWAP1 POP CALLVALUE PUSH2 0x211 JUMPI DUP1 PUSH1 0x3 NOT CALLDATASIZE ADD SLT PUSH2 0x211 JUMPI PUSH2 0x93D PUSH2 0xB7B JUMP JUMPDEST SWAP2 PUSH1 0x24 CALLDATALOAD PUSH2 0x94A DUP2 PUSH2 0xEA5 JUMP JUMPDEST CALLER ISZERO ISZERO DUP1 PUSH2 0x9EC JUMPI JUMPDEST DUP1 PUSH2 0x9C3 JUMPI JUMPDEST PUSH2 0x9AD JUMPI PUSH1 0x1 PUSH1 0x1 PUSH1 0xA0 SHL SUB SWAP5 DUP6 AND SWAP5 DUP3 SWAP2 DUP7 SWAP2 AND PUSH32 0x8C5BE1E5EBEC7D5BD14F71427D1E84F3DD0314C0F7B2291E5B200AC8C7C3B925 DUP9 DUP1 LOG4 DUP5 MSTORE PUSH1 0x20 MSTORE DUP3 KECCAK256 DUP1 SLOAD PUSH1 0x1 PUSH1 0x1 PUSH1 0xA0 SHL SUB NOT AND SWAP1 SWAP2 OR SWAP1 SSTORE DUP1 RETURN JUMPDEST DUP4 MLOAD PUSH4 0xA9FBF51F PUSH1 0xE0 SHL DUP2 MSTORE CALLER DUP2 DUP6 ADD MSTORE PUSH1 0x24 SWAP1 REVERT JUMPDEST POP PUSH1 0x1 PUSH1 0x1 PUSH1 0xA0 SHL SUB DUP2 AND DUP7 MSTORE PUSH1 0x5 PUSH1 0x20 SWAP1 DUP2 MSTORE DUP5 DUP8 KECCAK256 CALLER DUP9 MSTORE SWAP1 MSTORE DUP4 DUP7 KECCAK256 SLOAD PUSH1 0xFF AND ISZERO PUSH2 0x959 JUMP JUMPDEST POP PUSH1 0x1 PUSH1 0x1 PUSH1 0xA0 SHL SUB DUP2 AND CALLER EQ ISZERO PUSH2 0x953 JUMP JUMPDEST DUP3 DUP5 CALLVALUE PUSH2 0x477 JUMPI PUSH1 0x20 CALLDATASIZE PUSH1 0x3 NOT ADD SLT PUSH2 0x477 JUMPI POP PUSH2 0x4EF PUSH1 0x20 SWAP3 CALLDATALOAD PUSH2 0xCB9 JUMP JUMPDEST DUP3 DUP5 CALLVALUE PUSH2 0x477 JUMPI DUP1 PUSH1 0x3 NOT CALLDATASIZE ADD SLT PUSH2 0x477 JUMPI DUP2 MLOAD SWAP2 DUP3 DUP3 DUP4 SLOAD PUSH2 0xA41 DUP2 PUSH2 0xC7F JUMP JUMPDEST SWAP1 DUP2 DUP5 MSTORE PUSH1 0x20 SWAP6 PUSH1 0x1 SWAP2 DUP8 PUSH1 0x1 DUP3 AND SWAP2 DUP3 PUSH1 0x0 EQ PUSH2 0x450 JUMPI POP POP PUSH1 0x1 EQ PUSH2 0xA75 JUMPI POP POP POP PUSH2 0x1A1 SWAP3 SWAP2 PUSH2 0x192 SWAP2 SUB DUP6 PUSH2 0xC41 JUMP JUMPDEST SWAP2 SWAP1 DUP7 SWAP4 POP DUP3 DUP1 MSTORE PUSH32 0x290DECD9548B62A8D60345A988386FC84BA6BC95484008F6362F93160EF3E563 JUMPDEST DUP3 DUP5 LT PUSH2 0xAB8 JUMPI POP POP POP DUP3 ADD ADD DUP2 PUSH2 0x192 PUSH2 0x1A1 PUSH2 0x3E1 JUMP JUMPDEST DUP1 SLOAD DUP5 DUP11 ADD DUP7 ADD MSTORE DUP9 SWAP6 POP DUP8 SWAP5 SWAP1 SWAP4 ADD SWAP3 DUP2 ADD PUSH2 0xA9F JUMP JUMPDEST DUP5 SWAP2 CALLVALUE PUSH2 0x211 JUMPI PUSH1 0x20 CALLDATASIZE PUSH1 0x3 NOT ADD SLT PUSH2 0x211 JUMPI CALLDATALOAD PUSH4 0xFFFFFFFF PUSH1 0xE0 SHL DUP2 AND DUP1 SWAP2 SUB PUSH2 0x211 JUMPI PUSH1 0x20 SWAP3 POP PUSH4 0x80AC58CD PUSH1 0xE0 SHL DUP2 EQ SWAP1 DUP2 ISZERO PUSH2 0xB2A JUMPI JUMPDEST DUP2 ISZERO PUSH2 0xB19 JUMPI JUMPDEST POP ISZERO ISZERO DUP2 MSTORE RETURN JUMPDEST PUSH4 0x1FFC9A7 PUSH1 0xE0 SHL EQ SWAP1 POP DUP4 PUSH2 0xB12 JUMP JUMPDEST PUSH4 0x5B5E139F PUSH1 0xE0 SHL DUP2 EQ SWAP2 POP PUSH2 0xB0B JUMP JUMPDEST SWAP2 SWAP1 DUP3 MLOAD SWAP3 DUP4 DUP3 MSTORE PUSH1 0x0 JUMPDEST DUP5 DUP2 LT PUSH2 0xB67 JUMPI POP POP DUP3 PUSH1 0x0 PUSH1 0x20 DUP1 SWAP5 SWAP6 DUP5 ADD ADD MSTORE PUSH1 0x1F DUP1 NOT SWAP2 ADD AND ADD ADD SWAP1 JUMP JUMPDEST PUSH1 0x20 DUP2 DUP4 ADD DUP2 ADD MLOAD DUP5 DUP4 ADD DUP3 ADD MSTORE ADD PUSH2 0xB46 JUMP JUMPDEST PUSH1 0x4 CALLDATALOAD SWAP1 PUSH1 0x1 PUSH1 0x1 PUSH1 0xA0 SHL SUB DUP3 AND DUP3 SUB PUSH2 0xB91 JUMPI JUMP JUMPDEST PUSH1 0x0 DUP1 REVERT JUMPDEST PUSH1 0x24 CALLDATALOAD SWAP1 PUSH1 0x1 PUSH1 0x1 PUSH1 0xA0 SHL SUB DUP3 AND DUP3 SUB PUSH2 0xB91 JUMPI JUMP JUMPDEST SWAP2 DUP2 PUSH1 0x1F DUP5 ADD SLT ISZERO PUSH2 0xB91 JUMPI DUP3 CALLDATALOAD SWAP2 PUSH8 0xFFFFFFFFFFFFFFFF DUP4 GT PUSH2 0xB91 JUMPI PUSH1 0x20 DUP4 DUP2 DUP7 ADD SWAP6 ADD ADD GT PUSH2 0xB91 JUMPI JUMP JUMPDEST PUSH1 0x60 SWAP1 PUSH1 0x3 NOT ADD SLT PUSH2 0xB91 JUMPI PUSH1 0x1 PUSH1 0x1 PUSH1 0xA0 SHL SUB SWAP1 PUSH1 0x4 CALLDATALOAD DUP3 DUP2 AND DUP2 SUB PUSH2 0xB91 JUMPI SWAP2 PUSH1 0x24 CALLDATALOAD SWAP1 DUP2 AND DUP2 SUB PUSH2 0xB91 JUMPI SWAP1 PUSH1 0x44 CALLDATALOAD SWAP1 JUMP JUMPDEST PUSH1 0x20 DUP2 ADD SWAP1 DUP2 LT PUSH8 0xFFFFFFFFFFFFFFFF DUP3 GT OR PUSH2 0xC2B JUMPI PUSH1 0x40 MSTORE JUMP JUMPDEST PUSH4 0x4E487B71 PUSH1 0xE0 SHL PUSH1 0x0 MSTORE PUSH1 0x41 PUSH1 0x4 MSTORE PUSH1 0x24 PUSH1 0x0 REVERT JUMPDEST SWAP1 PUSH1 0x1F DUP1 NOT SWAP2 ADD AND DUP2 ADD SWAP1 DUP2 LT PUSH8 0xFFFFFFFFFFFFFFFF DUP3 GT OR PUSH2 0xC2B JUMPI PUSH1 0x40 MSTORE JUMP JUMPDEST PUSH8 0xFFFFFFFFFFFFFFFF DUP2 GT PUSH2 0xC2B JUMPI PUSH1 0x1F ADD PUSH1 0x1F NOT AND PUSH1 0x20 ADD SWAP1 JUMP JUMPDEST SWAP1 PUSH1 0x1 DUP3 DUP2 SHR SWAP3 AND DUP1 ISZERO PUSH2 0xCAF JUMPI JUMPDEST PUSH1 0x20 DUP4 LT EQ PUSH2 0xC99 JUMPI JUMP JUMPDEST PUSH4 0x4E487B71 PUSH1 0xE0 SHL PUSH1 0x0 MSTORE PUSH1 0x22 PUSH1 0x4 MSTORE PUSH1 0x24 PUSH1 0x0 REVERT JUMPDEST SWAP2 PUSH1 0x7F AND SWAP2 PUSH2 0xC8E JUMP JUMPDEST PUSH2 0xCC2 DUP2 PUSH2 0xEA5 JUMP JUMPDEST POP PUSH1 0x0 SWAP1 DUP2 MSTORE PUSH1 0x4 PUSH1 0x20 MSTORE PUSH1 0x40 SWAP1 KECCAK256 SLOAD PUSH1 0x1 PUSH1 0x1 PUSH1 0xA0 SHL SUB AND SWAP1 JUMP JUMPDEST PUSH1 0x1 PUSH1 0x1 PUSH1 0xA0 SHL SUB SWAP2 DUP3 AND SWAP3 SWAP1 SWAP2 DUP4 ISZERO PUSH2 0xE64 JUMPI PUSH1 0x0 SWAP3 DUP3 DUP5 MSTORE DUP3 PUSH1 0x20 SWAP6 PUSH1 0x2 DUP8 MSTORE PUSH1 0x40 SWAP7 DUP5 DUP9 DUP9 KECCAK256 SLOAD AND SWAP7 DUP8 SWAP2 CALLER ISZERO ISZERO DUP1 PUSH2 0xDCE JUMPI JUMPDEST POP SWAP1 PUSH1 0x2 PUSH32 0xDDF252AD1BE2C89B69C2B068FC378DAA952BA7F163C4A11628F55A4DF523B3EF SWAP3 DUP5 PUSH2 0xD9B JUMPI JUMPDEST DUP6 DUP4 MSTORE PUSH1 0x3 DUP2 MSTORE DUP12 DUP4 KECCAK256 DUP1 SLOAD PUSH1 0x1 ADD SWAP1 SSTORE DUP7 DUP4 MSTORE MSTORE DUP10 DUP2 KECCAK256 DUP1 SLOAD PUSH1 0x1 PUSH1 0x1 PUSH1 0xA0 SHL SUB NOT AND DUP6 OR SWAP1 SSTORE DUP1 LOG4 AND SWAP3 DUP4 DUP4 SUB PUSH2 0xD7A JUMPI POP POP POP POP JUMP JUMPDEST PUSH1 0x64 SWAP5 POP MLOAD SWAP3 PUSH4 0x64283D7B PUSH1 0xE0 SHL DUP5 MSTORE PUSH1 0x4 DUP5 ADD MSTORE PUSH1 0x24 DUP4 ADD MSTORE PUSH1 0x44 DUP3 ADD MSTORE REVERT JUMPDEST PUSH1 0x0 DUP8 DUP2 MSTORE PUSH1 0x4 PUSH1 0x20 MSTORE PUSH1 0x40 SWAP1 KECCAK256 DUP1 SLOAD PUSH1 0x1 PUSH1 0x1 PUSH1 0xA0 SHL SUB NOT AND SWAP1 SSTORE DUP5 DUP4 MSTORE PUSH1 0x3 DUP2 MSTORE DUP12 DUP4 KECCAK256 DUP1 SLOAD PUSH1 0x0 NOT ADD SWAP1 SSTORE PUSH2 0xD41 JUMP JUMPDEST SWAP2 SWAP4 SWAP5 POP SWAP2 POP DUP1 PUSH2 0xE23 JUMPI JUMPDEST ISZERO PUSH2 0xDEA JUMPI DUP6 SWAP3 SWAP2 DUP8 SWAP2 CODESIZE PUSH2 0xD15 JUMP JUMPDEST DUP8 DUP7 DUP9 PUSH2 0xE07 JUMPI PUSH1 0x24 SWAP2 MLOAD SWAP1 PUSH4 0x7E273289 PUSH1 0xE0 SHL DUP3 MSTORE PUSH1 0x4 DUP3 ADD MSTORE REVERT JUMPDEST PUSH1 0x44 SWAP2 MLOAD SWAP1 PUSH4 0x177E802F PUSH1 0xE0 SHL DUP3 MSTORE CALLER PUSH1 0x4 DUP4 ADD MSTORE PUSH1 0x24 DUP3 ADD MSTORE REVERT JUMPDEST POP CALLER DUP8 EQ DUP1 ISZERO PUSH2 0xE48 JUMPI JUMPDEST DUP1 PUSH2 0xDDA JUMPI POP DUP6 DUP3 MSTORE PUSH1 0x4 DUP2 MSTORE CALLER DUP6 DUP10 DUP5 KECCAK256 SLOAD AND EQ PUSH2 0xDDA JUMP JUMPDEST POP DUP7 DUP3 MSTORE PUSH1 0x5 DUP2 MSTORE DUP8 DUP3 KECCAK256 CALLER DUP4 MSTORE DUP2 MSTORE PUSH1 0xFF DUP9 DUP4 KECCAK256 SLOAD AND PUSH2 0xE2E JUMP JUMPDEST PUSH1 0x40 MLOAD PUSH4 0x32505749 PUSH1 0xE1 SHL DUP2 MSTORE PUSH1 0x0 PUSH1 0x4 DUP3 ADD MSTORE PUSH1 0x24 SWAP1 REVERT JUMPDEST SWAP1 SWAP2 DUP1 PUSH1 0x40 SWAP4 PUSH1 0x20 DUP5 MSTORE DUP2 PUSH1 0x20 DUP6 ADD MSTORE DUP5 DUP5 ADD CALLDATACOPY PUSH1 0x0 DUP3 DUP3 ADD DUP5 ADD MSTORE PUSH1 0x1F ADD PUSH1 0x1F NOT AND ADD ADD SWAP1 JUMP JUMPDEST PUSH1 0x0 DUP2 DUP2 MSTORE PUSH1 0x2 PUSH1 0x20 MSTORE PUSH1 0x40 SWAP1 KECCAK256 SLOAD PUSH1 0x1 PUSH1 0x1 PUSH1 0xA0 SHL SUB AND SWAP1 DUP2 ISZERO PUSH2 0xEC8 JUMPI POP SWAP1 JUMP JUMPDEST PUSH1 0x24 SWAP1 PUSH1 0x40 MLOAD SWAP1 PUSH4 0x7E273289 PUSH1 0xE0 SHL DUP3 MSTORE PUSH1 0x4 DUP3 ADD MSTORE REVERT JUMPDEST SWAP1 SWAP3 SWAP2 PUSH1 0x0 SWAP4 DUP3 DUP6 MSTORE PUSH1 0x20 SWAP5 PUSH1 0x7 DUP7 MSTORE PUSH1 0x40 DUP2 KECCAK256 SWAP1 PUSH8 0xFFFFFFFFFFFFFFFF DUP5 GT PUSH2 0x104B JUMPI PUSH2 0xF0E DUP3 SLOAD PUSH2 0xC7F JUMP JUMPDEST PUSH1 0x1F DUP2 GT PUSH2 0x1008 JUMPI JUMPDEST POP DUP1 SWAP7 PUSH1 0x1F DUP6 GT PUSH1 0x1 EQ PUSH2 0xF83 JUMPI POP PUSH32 0xE335F4A32C56FB32EB92F5084017A5836FCDC9307D02F49F27DD61F0F6A434A8 SWAP5 SWAP6 SWAP7 DUP5 PUSH2 0xF78 JUMPI JUMPDEST POP DUP4 PUSH1 0x1 SHL SWAP1 PUSH1 0x0 NOT DUP6 PUSH1 0x3 SHL SHR NOT AND OR SWAP1 SSTORE JUMPDEST PUSH2 0xF73 PUSH1 0x40 MLOAD SWAP3 DUP4 SWAP3 DUP4 PUSH2 0xE7D JUMP JUMPDEST SUB SWAP1 LOG2 JUMP JUMPDEST SWAP1 POP DUP3 ADD CALLDATALOAD CODESIZE PUSH2 0xF50 JUMP JUMPDEST SWAP7 PUSH1 0x1F NOT DUP6 AND SWAP8 DUP4 DUP4 MSTORE DUP1 DUP4 KECCAK256 SWAP3 SWAP1 JUMPDEST DUP10 DUP3 LT PUSH2 0xFF0 JUMPI POP POP DUP5 PUSH32 0xE335F4A32C56FB32EB92F5084017A5836FCDC9307D02F49F27DD61F0F6A434A8 SWAP7 SWAP8 SWAP9 LT PUSH2 0xFD6 JUMPI JUMPDEST POP POP PUSH1 0x1 DUP4 DUP2 SHL ADD SWAP1 SSTORE PUSH2 0xF64 JUMP JUMPDEST DUP4 ADD CALLDATALOAD PUSH1 0x0 NOT PUSH1 0x3 DUP7 SWAP1 SHL PUSH1 0xF8 AND SHR NOT AND SWAP1 SSTORE CODESIZE DUP1 PUSH2 0xFC7 JUMP JUMPDEST DUP1 PUSH1 0x1 DUP5 SWAP6 DUP3 SWAP5 SWAP6 DUP10 ADD CALLDATALOAD DUP2 SSTORE ADD SWAP5 ADD SWAP3 ADD SWAP1 PUSH2 0xF93 JUMP JUMPDEST DUP3 DUP3 MSTORE DUP8 DUP3 KECCAK256 PUSH1 0x1F DUP7 ADD PUSH1 0x5 SHR DUP2 ADD SWAP2 DUP10 DUP8 LT PUSH2 0x1041 JUMPI JUMPDEST PUSH1 0x1F ADD PUSH1 0x5 SHR ADD SWAP1 JUMPDEST DUP2 DUP2 LT PUSH2 0x1036 JUMPI POP PUSH2 0xF17 JUMP JUMPDEST DUP3 DUP2 SSTORE PUSH1 0x1 ADD PUSH2 0x1029 JUMP JUMPDEST SWAP1 SWAP2 POP DUP2 SWAP1 PUSH2 0x1020 JUMP JUMPDEST PUSH4 0x4E487B71 PUSH1 0xE0 SHL DUP2 MSTORE PUSH1 0x41 PUSH1 0x4 MSTORE PUSH1 0x24 SWAP1 REVERT JUMPDEST SWAP1 SWAP4 SWAP2 SWAP3 DUP4 EXTCODESIZE PUSH2 0x1071 JUMPI JUMPDEST POP POP POP POP POP JUMP JUMPDEST PUSH1 0x40 MLOAD PUSH4 0xA85BD01 PUSH1 0xE1 SHL DUP1 DUP3 MSTORE PUSH1 0x1 PUSH1 0x1 PUSH1 0xA0 SHL SUB SWAP4 DUP5 AND PUSH1 0x4 DUP4 ADD MSTORE SWAP6 DUP4 AND PUSH1 0x24 DUP3 ADD MSTORE PUSH1 0x44 DUP2 ADD SWAP2 SWAP1 SWAP2 MSTORE PUSH1 0x80 PUSH1 0x64 DUP3 ADD MSTORE SWAP5 SWAP3 AND SWAP3 PUSH1 0x20 SWAP3 SWAP2 DUP6 SWAP1 PUSH2 0x10BE SWAP1 PUSH1 0x84 DUP4 ADD SWAP1 PUSH2 0xB3B JUMP JUMPDEST SUB SWAP5 DUP4 DUP2 PUSH1 0x0 SWAP8 DUP2 DUP10 DUP10 GAS CALL DUP7 SWAP2 DUP2 PUSH2 0x1169 JUMPI JUMPDEST POP PUSH2 0x1133 JUMPI POP POP POP RETURNDATASIZE PUSH1 0x0 EQ PUSH2 0x112A JUMPI RETURNDATASIZE PUSH2 0x10EC DUP2 PUSH2 0xC63 JUMP JUMPDEST SWAP1 PUSH2 0x10FA PUSH1 0x40 MLOAD SWAP3 DUP4 PUSH2 0xC41 JUMP JUMPDEST DUP2 MSTORE DUP1 SWAP4 DUP3 RETURNDATASIZE SWAP3 ADD RETURNDATACOPY JUMPDEST DUP3 MLOAD SWAP3 DUP4 PUSH2 0x1125 JUMPI PUSH1 0x40 MLOAD PUSH4 0x32505749 PUSH1 0xE1 SHL DUP2 MSTORE PUSH1 0x4 DUP2 ADD DUP5 SWAP1 MSTORE PUSH1 0x24 SWAP1 REVERT JUMPDEST ADD SWAP1 POP REVERT JUMPDEST PUSH1 0x60 SWAP3 POP PUSH2 0x1104 JUMP JUMPDEST SWAP2 SWAP5 POP SWAP2 POP PUSH4 0xFFFFFFFF PUSH1 0xE0 SHL AND SUB PUSH2 0x1151 JUMPI POP CODESIZE DUP1 DUP1 DUP1 DUP1 PUSH2 0x106A JUMP JUMPDEST PUSH1 0x24 SWAP1 PUSH1 0x40 MLOAD SWAP1 PUSH4 0x32505749 PUSH1 0xE1 SHL DUP3 MSTORE PUSH1 0x4 DUP3 ADD MSTORE REVERT JUMPDEST SWAP1 SWAP2 POP DUP5 DUP2 DUP2 RETURNDATASIZE DUP4 GT PUSH2 0x11A6 JUMPI JUMPDEST PUSH2 0x1181 DUP2 DUP4 PUSH2 0xC41 JUMP JUMPDEST DUP2 ADD SUB SLT PUSH2 0x11A2 JUMPI MLOAD PUSH1 0x1 PUSH1 0x1 PUSH1 0xE0 SHL SUB NOT DUP2 AND DUP2 SUB PUSH2 0x11A2 JUMPI SWAP1 CODESIZE PUSH2 0x10D2 JUMP JUMPDEST DUP7 DUP1 REVERT JUMPDEST POP RETURNDATASIZE PUSH2 0x1177 JUMP INVALID LOG2 PUSH5 0x6970667358 0x22 SLT KECCAK256 0xE3 0xBF JUMPI SAR SSTORE DUP15 BASEFEE 0xA8 0x27 GAS 0xF PREVRANDAO PUSH25 0xA86874A6D8A05AF2F3201FBE0CC8603E3ACC3764736F6C6343 STOP ADDMOD XOR STOP CALLER "},"methodIdentifiers":{"approve(address,uint256)":"095ea7b3","balanceOf(address)":"70a08231","getAgentURI(uint256)":"ce91aede","getApproved(uint256)":"081812fc","isApprovedForAll(address,address)":"e985e9c5","name()":"06fdde03","ownerOf(uint256)":"6352211e","registerAgent(string)":"2d2a9585","safeTransferFrom(address,address,uint256)":"42842e0e","safeTransferFrom(address,address,uint256,bytes)":"b88d4fde","setAgentURI(uint256,string)":"0af28bd3","setApprovalForAll(address,bool)":"a22cb465","supportsInterface(bytes4)":"01ffc9a7","symbol()":"95d89b41","tokenURI(uint256)":"c87b56dd","transferFrom(address,address,uint256)":"23b872dd"}}}}}