{"contracts/ListingRegistry.sol":{"ListingRegistry":{"abi":[{"inputs":[{"internalType":"address","name":"identityRegistry_","type":"address"}],"stateMutability":"nonpayable","type":"constructor"},{"anonymous":false,"inputs":[{"indexed":true,"internalType":"uint256","name":"listingId","type":"uint256"},{"indexed":true,"internalType":"uint256","name":"agentId","type":"uint256"},{"indexed":false,"internalType":"string","name":"listingURI","type":"string"},{"indexed":false,"internalType":"address","name":"paymentToken","type":"address"},{"indexed":false,"internalType":"uint256","name":"basePrice","type":"uint256"},{"indexed":false,"internalType":"bytes32","name":"unitType","type":"bytes32"},{"indexed":false,"internalType":"uint256","name":"unitPrice","type":"uint256"},{"indexed":false,"internalType":"uint32","name":"minUnits","type":"uint32"},{"indexed":false,"internalType":"uint32","name":"maxUnits","type":"uint32"},{"indexed":false,"internalType":"bool","name":"quoteRequired","type":"bool"},{"indexed":false,"internalType":"uint32","name":"challengeWindowSec","type":"uint32"},{"indexed":false,"internalType":"uint32","name":"postDisputeWindowSec","type":"uint32"},{"indexed":false,"internalType":"uint16","name":"sellerBondBps","type":"uint16"},{"indexed":false,"internalType":"bool","name":"active","type":"bool"}],"name":"ListingCreated","type":"event"},{"anonymous":false,"inputs":[{"indexed":true,"internalType":"uint256","name":"listingId","type":"uint256"},{"indexed":true,"internalType":"uint256","name":"agentId","type":"uint256"},{"indexed":false,"internalType":"string","name":"listingURI","type":"string"},{"indexed":false,"internalType":"bool","name":"active","type":"bool"}],"name":"ListingUpdated","type":"event"},{"inputs":[{"internalType":"uint256","name":"agentId","type":"uint256"},{"internalType":"string","name":"listingURI","type":"string"},{"components":[{"internalType":"address","name":"paymentToken","type":"address"},{"internalType":"uint256","name":"basePrice","type":"uint256"},{"internalType":"bytes32","name":"unitType","type":"bytes32"},{"internalType":"uint256","name":"unitPrice","type":"uint256"},{"internalType":"uint32","name":"minUnits","type":"uint32"},{"internalType":"uint32","name":"maxUnits","type":"uint32"},{"internalType":"bool","name":"quoteRequired","type":"bool"}],"internalType":"struct ListingRegistry.Pricing","name":"pricing","type":"tuple"},{"components":[{"internalType":"uint32","name":"challengeWindowSec","type":"uint32"},{"internalType":"uint32","name":"postDisputeWindowSec","type":"uint32"},{"internalType":"uint16","name":"sellerBondBps","type":"uint16"}],"internalType":"struct ListingRegistry.Policy","name":"policy","type":"tuple"}],"name":"createListing","outputs":[{"internalType":"uint256","name":"listingId","type":"uint256"}],"stateMutability":"nonpayable","type":"function"},{"inputs":[{"internalType":"uint256","name":"listingId","type":"uint256"}],"name":"getListing","outputs":[{"internalType":"uint256","name":"agentId","type":"uint256"},{"internalType":"string","name":"listingURI","type":"string"},{"components":[{"internalType":"address","name":"paymentToken","type":"address"},{"internalType":"uint256","name":"basePrice","type":"uint256"},{"internalType":"bytes32","name":"unitType","type":"bytes32"},{"internalType":"uint256","name":"unitPrice","type":"uint256"},{"internalType":"uint32","name":"minUnits","type":"uint32"},{"internalType":"uint32","name":"maxUnits","type":"uint32"},{"internalType":"bool","name":"quoteRequired","type":"bool"}],"internalType":"struct ListingRegistry.Pricing","name":"pricing","type":"tuple"},{"components":[{"internalType":"uint32","name":"challengeWindowSec","type":"uint32"},{"internalType":"uint32","name":"postDisputeWindowSec","type":"uint32"},{"internalType":"uint16","name":"sellerBondBps","type":"uint16"}],"internalType":"struct ListingRegistry.Policy","name":"policy","type":"tuple"},{"internalType":"bool","name":"active","type":"bool"}],"stateMutability":"view","type":"function"},{"inputs":[],"name":"identityRegistry","outputs":[{"internalType":"contract IAgentIdentityRegistry","name":"","type":"address"}],"stateMutability":"view","type":"function"},{"inputs":[{"internalType":"uint256","name":"listingId","type":"uint256"},{"internalType":"string","name":"listingURI","type":"string"},{"internalType":"bool","name":"active","type":"bool"}],"name":"updateListing","outputs":[],"stateMutability":"nonpayable","type":"function"}],"evm":{"bytecode":{"linkReferences":{},"object":"60a0346100d357601f610e0c38819003918201601f19168301916001600160401b038311848410176100d8578084926020946040528339810103126100d357516001600160a01b038116908190036100d3576001600055801561007e57608052604051610d1d90816100ef82396080518181816106380152610b2a0152f35b60405162461bcd60e51b815260206004820152602760248201527f4c697374696e6752656769737472793a207a65726f206964656e7469747920726044820152666567697374727960c81b6064820152608490fd5b600080fd5b634e487b7160e01b600052604160045260246000fdfe608080604052600436101561001357600080fd5b60003560e01c908163107a274a1461066757508063134e18f414610622578063809c232a146104475763ae5ab77a1461004b57600080fd5b34610442576101803660031901126104425767ffffffffffffffff6024358181116104425761007e903690600401610908565b919060e036604319011261044257606036610123190112610442576100a4600435610b07565b60005491600019831461042c576001830160005582600052600160205260406000209060043582558411610416576100df6001820154610990565b601f81116103cb575b5060209383916000601f831160011461033157826008610180937fe037f3b6e721a7839a663d6c3932805f786573c7319e054129a4eb6e9116b2049561ffff94600091610326575b508360011b906000198560031b1c19161760018201555b600281016001600160a01b0361015b6109eb565b82546001600160a01b03191691161790556064356003820155608435600482015560a43560058201556006810163ffffffff610195610a01565b169063ffffffff1991828254161781556101d26101b0610a14565b825467ffffffff00000000191660209190911b67ffffffff0000000016178255565b6101da610a4f565b815468ff0000000000000000191690151560401b68ff000000000000000016179055600782019063ffffffff61020e610a27565b16908254161781556102216101b0610a3b565b610229610a5f565b61ffff60401b82549160401b169061ffff60401b19161790550160ff19906001828254161790558560005260028952600160406000209182541617905563ffffffff6102736109eb565b968161027d610a01565b610285610a14565b8261028e610a4f565b9181610298610a27565b946102bd6102a4610a3b565b986102ad610a5f565b9b6040519e8f81815201916109ca565b6001600160a01b03909f1660208d015260643560408d015260843560608d015260a43560808d01521660a08b01521660c0890152151560e088015216610100860152166101208401521661014082015260016101608201526004359381900390a3604051908152f35b905088013538610130565b60018201600052866000209060005b601f19851681106103b157509260086101809361ffff937fe037f3b6e721a7839a663d6c3932805f786573c7319e054129a4eb6e9116b2049684601f19811610610397575b5050600183811b016001820155610147565b890135600019600386901b60f8161c191690553880610385565b868201358355879550600190920191908801908801610340565b600182016000526020600020601f860160051c8101916020871061040c575b601f0160051c01905b81811061040057506100e8565b600081556001016103f3565b90915081906103ea565b634e487b7160e01b600052604160045260246000fd5b634e487b7160e01b600052601160045260246000fd5b600080fd5b346104425760603660031901126104425767ffffffffffffffff6004356024358281116104425761047c903690600401610908565b9190604435928315158094036104425761049583610a71565b61049f8154610b07565b600195868201908311610416576104b68154610990565b601f81116105d7575b50600096601f841160011461054e578380917f89c673d999ebc8ce5b71c67287391e8f745769c11528a7b19a4709e4059897a2979899600093610543575b501b906000198560031b1c19161790555b6008810160ff1981541660ff881617905554946105386040519384936040855260408501916109ca565b9060208301520390a3005b87013592508a6104fd565b601f19841697826000526020906020600020916000905b8b82106105c0575050857f89c673d999ebc8ce5b71c67287391e8f745769c11528a7b19a4709e4059897a298999a106105a6575b505083811b01905561050e565b860135600019600387901b60f8161c191690558880610599565b808584958294958c01358155019401920190610565565b816000526020600020601f850160051c81019160208610610618575b601f0160051c019088905b82811061060c5750506104bf565b600081550188906105fe565b90915081906105f3565b34610442576000366003190112610442576040517f00000000000000000000000000000000000000000000000000000000000000006001600160a01b03168152602090f35b346104425760203660031901126104425760c081610686600093610936565b8281528260208201528260408201528260608201528260808201528260a082015201526000604080516106b881610952565b82815282602082015201526106ce600435610a71565b805490600190600181019060ff6008820154169160405180946000908354936106f685610990565b80855294600181169081156108e457506001146108a2575b505061072192509593949295038261096e565b6040519261072e84610936565b60018060a01b03600286015416845260038501546020850152600485015460408501526005850154606085015260ff600686015463ffffffff8116608087015263ffffffff8160201c1660a087015260401c16151560c085015261ffff60076040519661079a88610952565b015463ffffffff8116875263ffffffff8160201c16602088015260401c16604086015260405194859384526101a06020850152825192836101a086015260005b848110610889575050604061ffff9160c06101c097600089888a01015260018060a01b038151168489015260208101516060890152838101516080890152606081015160a089015263ffffffff6080820151168289015263ffffffff60a08201511660e08901520151151561010087015263ffffffff81511661012087015263ffffffff6020820151166101408701520151166101608401521515610180830152601f80199101168101030190f35b60208282018101516101c08a84010152889650016107da565b6000908152602081209092505b8483106108c957506107219350508101602001878061070e565b81935090816020925483858b010152019101909186926108af565b9150506020925061072194915060ff191682840152151560051b820101878061070e565b9181601f840112156104425782359167ffffffffffffffff8311610442576020838186019501011161044257565b60e0810190811067ffffffffffffffff82111761041657604052565b6060810190811067ffffffffffffffff82111761041657604052565b90601f8019910116810190811067ffffffffffffffff82111761041657604052565b90600182811c921680156109c0575b60208310146109aa57565b634e487b7160e01b600052602260045260246000fd5b91607f169161099f565b908060209392818452848401376000828201840152601f01601f1916010190565b6044356001600160a01b03811681036104425790565b60c43563ffffffff811681036104425790565b60e43563ffffffff811681036104425790565b6101243563ffffffff811681036104425790565b6101443563ffffffff811681036104425790565b6101043580151581036104425790565b6101643561ffff811681036104425790565b80600052600260205260ff6040600020541615610a98576000526001602052604060002090565b60405162461bcd60e51b815260206004820152602260248201527f4c697374696e6752656769737472793a206c697374696e67206e6f7420666f756044820152611b9960f21b6064820152608490fd5b9081602091031261044257516001600160a01b03811681036104425790565b604080516331a9108f60e11b815260048101839052602092906001600160a01b037f00000000000000000000000000000000000000000000000000000000000000008116918581602481865afa908115610cbf5786918391600091610cca575b501693843314159485610c40575b5084610bcb575b50505050610b88575050565b60649250519062461bcd60e51b82526004820152601f60248201527f4c697374696e6752656769737472793a206e6f7420617574686f72697a6564006044820152fd5b9091929350602485518095819363020604bf60e21b835260048301525afa918215610c3557600092610c06575b501633141538808481610b7c565b610c27919250843d8611610c2e575b610c1f818361096e565b810190610ae8565b9038610bf8565b503d610c15565b83513d6000823e3d90fd5b9150935084519063e985e9c560e01b825260048201523360248201528581604481865afa908115610cbf57908691600091610c7f575b50159338610b75565b909181813d8311610cb8575b610c95818361096e565b81010312610cb45751908115158203610cb15750859038610c76565b80fd5b5080fd5b503d610c8b565b85513d6000823e3d90fd5b610ce19150833d8511610c2e57610c1f818361096e565b38610b6756fea2646970667358221220ef940844e8a9937a329d1ef6d308b3e971eb26c0a3822f79118d5ddf2649281064736f6c63430008180033","opcodes":"PUSH1 0xA0 CALLVALUE PUSH2 0xD3 JUMPI PUSH1 0x1F PUSH2 0xE0C CODESIZE DUP2 SWAP1 SUB SWAP2 DUP3 ADD PUSH1 0x1F NOT AND DUP4 ADD SWAP2 PUSH1 0x1 PUSH1 0x1 PUSH1 0x40 SHL SUB DUP4 GT DUP5 DUP5 LT OR PUSH2 0xD8 JUMPI DUP1 DUP5 SWAP3 PUSH1 0x20 SWAP5 PUSH1 0x40 MSTORE DUP4 CODECOPY DUP2 ADD SUB SLT PUSH2 0xD3 JUMPI MLOAD PUSH1 0x1 PUSH1 0x1 PUSH1 0xA0 SHL SUB DUP2 AND SWAP1 DUP2 SWAP1 SUB PUSH2 0xD3 JUMPI PUSH1 0x1 PUSH1 0x0 SSTORE DUP1 ISZERO PUSH2 0x7E JUMPI PUSH1 0x80 MSTORE PUSH1 0x40 MLOAD PUSH2 0xD1D SWAP1 DUP2 PUSH2 0xEF DUP3 CODECOPY PUSH1 0x80 MLOAD DUP2 DUP2 DUP2 PUSH2 0x638 ADD MSTORE PUSH2 0xB2A ADD MSTORE RETURN JUMPDEST PUSH1 0x40 MLOAD PUSH3 0x461BCD PUSH1 0xE5 SHL DUP2 MSTORE PUSH1 0x20 PUSH1 0x4 DUP3 ADD MSTORE PUSH1 0x27 PUSH1 0x24 DUP3 ADD MSTORE PUSH32 0x4C697374696E6752656769737472793A207A65726F206964656E746974792072 PUSH1 0x44 DUP3 ADD MSTORE PUSH7 0x65676973747279 PUSH1 0xC8 SHL PUSH1 0x64 DUP3 ADD MSTORE PUSH1 0x84 SWAP1 REVERT JUMPDEST PUSH1 0x0 DUP1 REVERT JUMPDEST PUSH4 0x4E487B71 PUSH1 0xE0 SHL PUSH1 0x0 MSTORE PUSH1 0x41 PUSH1 0x4 MSTORE PUSH1 0x24 PUSH1 0x0 REVERT INVALID PUSH1 0x80 DUP1 PUSH1 0x40 MSTORE PUSH1 0x4 CALLDATASIZE LT ISZERO PUSH2 0x13 JUMPI PUSH1 0x0 DUP1 REVERT JUMPDEST PUSH1 0x0 CALLDATALOAD PUSH1 0xE0 SHR SWAP1 DUP2 PUSH4 0x107A274A EQ PUSH2 0x667 JUMPI POP DUP1 PUSH4 0x134E18F4 EQ PUSH2 0x622 JUMPI DUP1 PUSH4 0x809C232A EQ PUSH2 0x447 JUMPI PUSH4 0xAE5AB77A EQ PUSH2 0x4B JUMPI PUSH1 0x0 DUP1 REVERT JUMPDEST CALLVALUE PUSH2 0x442 JUMPI PUSH2 0x180 CALLDATASIZE PUSH1 0x3 NOT ADD SLT PUSH2 0x442 JUMPI PUSH8 0xFFFFFFFFFFFFFFFF PUSH1 0x24 CALLDATALOAD DUP2 DUP2 GT PUSH2 0x442 JUMPI PUSH2 0x7E SWAP1 CALLDATASIZE SWAP1 PUSH1 0x4 ADD PUSH2 0x908 JUMP JUMPDEST SWAP2 SWAP1 PUSH1 0xE0 CALLDATASIZE PUSH1 0x43 NOT ADD SLT PUSH2 0x442 JUMPI PUSH1 0x60 CALLDATASIZE PUSH2 0x123 NOT ADD SLT PUSH2 0x442 JUMPI PUSH2 0xA4 PUSH1 0x4 CALLDATALOAD PUSH2 0xB07 JUMP JUMPDEST PUSH1 0x0 SLOAD SWAP2 PUSH1 0x0 NOT DUP4 EQ PUSH2 0x42C JUMPI PUSH1 0x1 DUP4 ADD PUSH1 0x0 SSTORE DUP3 PUSH1 0x0 MSTORE PUSH1 0x1 PUSH1 0x20 MSTORE PUSH1 0x40 PUSH1 0x0 KECCAK256 SWAP1 PUSH1 0x4 CALLDATALOAD DUP3 SSTORE DUP5 GT PUSH2 0x416 JUMPI PUSH2 0xDF PUSH1 0x1 DUP3 ADD SLOAD PUSH2 0x990 JUMP JUMPDEST PUSH1 0x1F DUP2 GT PUSH2 0x3CB JUMPI JUMPDEST POP PUSH1 0x20 SWAP4 DUP4 SWAP2 PUSH1 0x0 PUSH1 0x1F DUP4 GT PUSH1 0x1 EQ PUSH2 0x331 JUMPI DUP3 PUSH1 0x8 PUSH2 0x180 SWAP4 PUSH32 0xE037F3B6E721A7839A663D6C3932805F786573C7319E054129A4EB6E9116B204 SWAP6 PUSH2 0xFFFF SWAP5 PUSH1 0x0 SWAP2 PUSH2 0x326 JUMPI JUMPDEST POP DUP4 PUSH1 0x1 SHL SWAP1 PUSH1 0x0 NOT DUP6 PUSH1 0x3 SHL SHR NOT AND OR PUSH1 0x1 DUP3 ADD SSTORE JUMPDEST PUSH1 0x2 DUP2 ADD PUSH1 0x1 PUSH1 0x1 PUSH1 0xA0 SHL SUB PUSH2 0x15B PUSH2 0x9EB JUMP JUMPDEST DUP3 SLOAD PUSH1 0x1 PUSH1 0x1 PUSH1 0xA0 SHL SUB NOT AND SWAP2 AND OR SWAP1 SSTORE PUSH1 0x64 CALLDATALOAD PUSH1 0x3 DUP3 ADD SSTORE PUSH1 0x84 CALLDATALOAD PUSH1 0x4 DUP3 ADD SSTORE PUSH1 0xA4 CALLDATALOAD PUSH1 0x5 DUP3 ADD SSTORE PUSH1 0x6 DUP2 ADD PUSH4 0xFFFFFFFF PUSH2 0x195 PUSH2 0xA01 JUMP JUMPDEST AND SWAP1 PUSH4 0xFFFFFFFF NOT SWAP2 DUP3 DUP3 SLOAD AND OR DUP2 SSTORE PUSH2 0x1D2 PUSH2 0x1B0 PUSH2 0xA14 JUMP JUMPDEST DUP3 SLOAD PUSH8 0xFFFFFFFF00000000 NOT AND PUSH1 0x20 SWAP2 SWAP1 SWAP2 SHL PUSH8 0xFFFFFFFF00000000 AND OR DUP3 SSTORE JUMP JUMPDEST PUSH2 0x1DA PUSH2 0xA4F JUMP JUMPDEST DUP2 SLOAD PUSH9 0xFF0000000000000000 NOT AND SWAP1 ISZERO ISZERO PUSH1 0x40 SHL PUSH9 0xFF0000000000000000 AND OR SWAP1 SSTORE PUSH1 0x7 DUP3 ADD SWAP1 PUSH4 0xFFFFFFFF PUSH2 0x20E PUSH2 0xA27 JUMP JUMPDEST AND SWAP1 DUP3 SLOAD AND OR DUP2 SSTORE PUSH2 0x221 PUSH2 0x1B0 PUSH2 0xA3B JUMP JUMPDEST PUSH2 0x229 PUSH2 0xA5F JUMP JUMPDEST PUSH2 0xFFFF PUSH1 0x40 SHL DUP3 SLOAD SWAP2 PUSH1 0x40 SHL AND SWAP1 PUSH2 0xFFFF PUSH1 0x40 SHL NOT AND OR SWAP1 SSTORE ADD PUSH1 0xFF NOT SWAP1 PUSH1 0x1 DUP3 DUP3 SLOAD AND OR SWAP1 SSTORE DUP6 PUSH1 0x0 MSTORE PUSH1 0x2 DUP10 MSTORE PUSH1 0x1 PUSH1 0x40 PUSH1 0x0 KECCAK256 SWAP2 DUP3 SLOAD AND OR SWAP1 SSTORE PUSH4 0xFFFFFFFF PUSH2 0x273 PUSH2 0x9EB JUMP JUMPDEST SWAP7 DUP2 PUSH2 0x27D PUSH2 0xA01 JUMP JUMPDEST PUSH2 0x285 PUSH2 0xA14 JUMP JUMPDEST DUP3 PUSH2 0x28E PUSH2 0xA4F JUMP JUMPDEST SWAP2 DUP2 PUSH2 0x298 PUSH2 0xA27 JUMP JUMPDEST SWAP5 PUSH2 0x2BD PUSH2 0x2A4 PUSH2 0xA3B JUMP JUMPDEST SWAP9 PUSH2 0x2AD PUSH2 0xA5F JUMP JUMPDEST SWAP12 PUSH1 0x40 MLOAD SWAP15 DUP16 DUP2 DUP2 MSTORE ADD SWAP2 PUSH2 0x9CA JUMP JUMPDEST PUSH1 0x1 PUSH1 0x1 PUSH1 0xA0 SHL SUB SWAP1 SWAP16 AND PUSH1 0x20 DUP14 ADD MSTORE PUSH1 0x64 CALLDATALOAD PUSH1 0x40 DUP14 ADD MSTORE PUSH1 0x84 CALLDATALOAD PUSH1 0x60 DUP14 ADD MSTORE PUSH1 0xA4 CALLDATALOAD PUSH1 0x80 DUP14 ADD MSTORE AND PUSH1 0xA0 DUP12 ADD MSTORE AND PUSH1 0xC0 DUP10 ADD MSTORE ISZERO ISZERO PUSH1 0xE0 DUP9 ADD MSTORE AND PUSH2 0x100 DUP7 ADD MSTORE AND PUSH2 0x120 DUP5 ADD MSTORE AND PUSH2 0x140 DUP3 ADD MSTORE PUSH1 0x1 PUSH2 0x160 DUP3 ADD MSTORE PUSH1 0x4 CALLDATALOAD SWAP4 DUP2 SWAP1 SUB SWAP1 LOG3 PUSH1 0x40 MLOAD SWAP1 DUP2 MSTORE RETURN JUMPDEST SWAP1 POP DUP9 ADD CALLDATALOAD CODESIZE PUSH2 0x130 JUMP JUMPDEST PUSH1 0x1 DUP3 ADD PUSH1 0x0 MSTORE DUP7 PUSH1 0x0 KECCAK256 SWAP1 PUSH1 0x0 JUMPDEST PUSH1 0x1F NOT DUP6 AND DUP2 LT PUSH2 0x3B1 JUMPI POP SWAP3 PUSH1 0x8 PUSH2 0x180 SWAP4 PUSH2 0xFFFF SWAP4 PUSH32 0xE037F3B6E721A7839A663D6C3932805F786573C7319E054129A4EB6E9116B204 SWAP7 DUP5 PUSH1 0x1F NOT DUP2 AND LT PUSH2 0x397 JUMPI JUMPDEST POP POP PUSH1 0x1 DUP4 DUP2 SHL ADD PUSH1 0x1 DUP3 ADD SSTORE PUSH2 0x147 JUMP JUMPDEST DUP10 ADD CALLDATALOAD PUSH1 0x0 NOT PUSH1 0x3 DUP7 SWAP1 SHL PUSH1 0xF8 AND SHR NOT AND SWAP1 SSTORE CODESIZE DUP1 PUSH2 0x385 JUMP JUMPDEST DUP7 DUP3 ADD CALLDATALOAD DUP4 SSTORE DUP8 SWAP6 POP PUSH1 0x1 SWAP1 SWAP3 ADD SWAP2 SWAP1 DUP9 ADD SWAP1 DUP9 ADD PUSH2 0x340 JUMP JUMPDEST PUSH1 0x1 DUP3 ADD PUSH1 0x0 MSTORE PUSH1 0x20 PUSH1 0x0 KECCAK256 PUSH1 0x1F DUP7 ADD PUSH1 0x5 SHR DUP2 ADD SWAP2 PUSH1 0x20 DUP8 LT PUSH2 0x40C JUMPI JUMPDEST PUSH1 0x1F ADD PUSH1 0x5 SHR ADD SWAP1 JUMPDEST DUP2 DUP2 LT PUSH2 0x400 JUMPI POP PUSH2 0xE8 JUMP JUMPDEST PUSH1 0x0 DUP2 SSTORE PUSH1 0x1 ADD PUSH2 0x3F3 JUMP JUMPDEST SWAP1 SWAP2 POP DUP2 SWAP1 PUSH2 0x3EA JUMP JUMPDEST PUSH4 0x4E487B71 PUSH1 0xE0 SHL PUSH1 0x0 MSTORE PUSH1 0x41 PUSH1 0x4 MSTORE PUSH1 0x24 PUSH1 0x0 REVERT JUMPDEST PUSH4 0x4E487B71 PUSH1 0xE0 SHL PUSH1 0x0 MSTORE PUSH1 0x11 PUSH1 0x4 MSTORE PUSH1 0x24 PUSH1 0x0 REVERT JUMPDEST PUSH1 0x0 DUP1 REVERT JUMPDEST CALLVALUE PUSH2 0x442 JUMPI PUSH1 0x60 CALLDATASIZE PUSH1 0x3 NOT ADD SLT PUSH2 0x442 JUMPI PUSH8 0xFFFFFFFFFFFFFFFF PUSH1 0x4 CALLDATALOAD PUSH1 0x24 CALLDATALOAD DUP3 DUP2 GT PUSH2 0x442 JUMPI PUSH2 0x47C SWAP1 CALLDATASIZE SWAP1 PUSH1 0x4 ADD PUSH2 0x908 JUMP JUMPDEST SWAP2 SWAP1 PUSH1 0x44 CALLDATALOAD SWAP3 DUP4 ISZERO ISZERO DUP1 SWAP5 SUB PUSH2 0x442 JUMPI PUSH2 0x495 DUP4 PUSH2 0xA71 JUMP JUMPDEST PUSH2 0x49F DUP2 SLOAD PUSH2 0xB07 JUMP JUMPDEST PUSH1 0x1 SWAP6 DUP7 DUP3 ADD SWAP1 DUP4 GT PUSH2 0x416 JUMPI PUSH2 0x4B6 DUP2 SLOAD PUSH2 0x990 JUMP JUMPDEST PUSH1 0x1F DUP2 GT PUSH2 0x5D7 JUMPI JUMPDEST POP PUSH1 0x0 SWAP7 PUSH1 0x1F DUP5 GT PUSH1 0x1 EQ PUSH2 0x54E JUMPI DUP4 DUP1 SWAP2 PUSH32 0x89C673D999EBC8CE5B71C67287391E8F745769C11528A7B19A4709E4059897A2 SWAP8 SWAP9 SWAP10 PUSH1 0x0 SWAP4 PUSH2 0x543 JUMPI JUMPDEST POP SHL SWAP1 PUSH1 0x0 NOT DUP6 PUSH1 0x3 SHL SHR NOT AND OR SWAP1 SSTORE JUMPDEST PUSH1 0x8 DUP2 ADD PUSH1 0xFF NOT DUP2 SLOAD AND PUSH1 0xFF DUP9 AND OR SWAP1 SSTORE SLOAD SWAP5 PUSH2 0x538 PUSH1 0x40 MLOAD SWAP4 DUP5 SWAP4 PUSH1 0x40 DUP6 MSTORE PUSH1 0x40 DUP6 ADD SWAP2 PUSH2 0x9CA JUMP JUMPDEST SWAP1 PUSH1 0x20 DUP4 ADD MSTORE SUB SWAP1 LOG3 STOP JUMPDEST DUP8 ADD CALLDATALOAD SWAP3 POP DUP11 PUSH2 0x4FD JUMP JUMPDEST PUSH1 0x1F NOT DUP5 AND SWAP8 DUP3 PUSH1 0x0 MSTORE PUSH1 0x20 SWAP1 PUSH1 0x20 PUSH1 0x0 KECCAK256 SWAP2 PUSH1 0x0 SWAP1 JUMPDEST DUP12 DUP3 LT PUSH2 0x5C0 JUMPI POP POP DUP6 PUSH32 0x89C673D999EBC8CE5B71C67287391E8F745769C11528A7B19A4709E4059897A2 SWAP9 SWAP10 SWAP11 LT PUSH2 0x5A6 JUMPI JUMPDEST POP POP DUP4 DUP2 SHL ADD SWAP1 SSTORE PUSH2 0x50E JUMP JUMPDEST DUP7 ADD CALLDATALOAD PUSH1 0x0 NOT PUSH1 0x3 DUP8 SWAP1 SHL PUSH1 0xF8 AND SHR NOT AND SWAP1 SSTORE DUP9 DUP1 PUSH2 0x599 JUMP JUMPDEST DUP1 DUP6 DUP5 SWAP6 DUP3 SWAP5 SWAP6 DUP13 ADD CALLDATALOAD DUP2 SSTORE ADD SWAP5 ADD SWAP3 ADD SWAP1 PUSH2 0x565 JUMP JUMPDEST DUP2 PUSH1 0x0 MSTORE PUSH1 0x20 PUSH1 0x0 KECCAK256 PUSH1 0x1F DUP6 ADD PUSH1 0x5 SHR DUP2 ADD SWAP2 PUSH1 0x20 DUP7 LT PUSH2 0x618 JUMPI JUMPDEST PUSH1 0x1F ADD PUSH1 0x5 SHR ADD SWAP1 DUP9 SWAP1 JUMPDEST DUP3 DUP2 LT PUSH2 0x60C JUMPI POP POP PUSH2 0x4BF JUMP JUMPDEST PUSH1 0x0 DUP2 SSTORE ADD DUP9 SWAP1 PUSH2 0x5FE JUMP JUMPDEST SWAP1 SWAP2 POP DUP2 SWAP1 PUSH2 0x5F3 JUMP JUMPDEST CALLVALUE PUSH2 0x442 JUMPI PUSH1 0x0 CALLDATASIZE PUSH1 0x3 NOT ADD SLT PUSH2 0x442 JUMPI PUSH1 0x40 MLOAD PUSH32 0x0 PUSH1 0x1 PUSH1 0x1 PUSH1 0xA0 SHL SUB AND DUP2 MSTORE PUSH1 0x20 SWAP1 RETURN JUMPDEST CALLVALUE PUSH2 0x442 JUMPI PUSH1 0x20 CALLDATASIZE PUSH1 0x3 NOT ADD SLT PUSH2 0x442 JUMPI PUSH1 0xC0 DUP2 PUSH2 0x686 PUSH1 0x0 SWAP4 PUSH2 0x936 JUMP JUMPDEST DUP3 DUP2 MSTORE DUP3 PUSH1 0x20 DUP3 ADD MSTORE DUP3 PUSH1 0x40 DUP3 ADD MSTORE DUP3 PUSH1 0x60 DUP3 ADD MSTORE DUP3 PUSH1 0x80 DUP3 ADD MSTORE DUP3 PUSH1 0xA0 DUP3 ADD MSTORE ADD MSTORE PUSH1 0x0 PUSH1 0x40 DUP1 MLOAD PUSH2 0x6B8 DUP2 PUSH2 0x952 JUMP JUMPDEST DUP3 DUP2 MSTORE DUP3 PUSH1 0x20 DUP3 ADD MSTORE ADD MSTORE PUSH2 0x6CE PUSH1 0x4 CALLDATALOAD PUSH2 0xA71 JUMP JUMPDEST DUP1 SLOAD SWAP1 PUSH1 0x1 SWAP1 PUSH1 0x1 DUP2 ADD SWAP1 PUSH1 0xFF PUSH1 0x8 DUP3 ADD SLOAD AND SWAP2 PUSH1 0x40 MLOAD DUP1 SWAP5 PUSH1 0x0 SWAP1 DUP4 SLOAD SWAP4 PUSH2 0x6F6 DUP6 PUSH2 0x990 JUMP JUMPDEST DUP1 DUP6 MSTORE SWAP5 PUSH1 0x1 DUP2 AND SWAP1 DUP2 ISZERO PUSH2 0x8E4 JUMPI POP PUSH1 0x1 EQ PUSH2 0x8A2 JUMPI JUMPDEST POP POP PUSH2 0x721 SWAP3 POP SWAP6 SWAP4 SWAP5 SWAP3 SWAP6 SUB DUP3 PUSH2 0x96E JUMP JUMPDEST PUSH1 0x40 MLOAD SWAP3 PUSH2 0x72E DUP5 PUSH2 0x936 JUMP JUMPDEST PUSH1 0x1 DUP1 PUSH1 0xA0 SHL SUB PUSH1 0x2 DUP7 ADD SLOAD AND DUP5 MSTORE PUSH1 0x3 DUP6 ADD SLOAD PUSH1 0x20 DUP6 ADD MSTORE PUSH1 0x4 DUP6 ADD SLOAD PUSH1 0x40 DUP6 ADD MSTORE PUSH1 0x5 DUP6 ADD SLOAD PUSH1 0x60 DUP6 ADD MSTORE PUSH1 0xFF PUSH1 0x6 DUP7 ADD SLOAD PUSH4 0xFFFFFFFF DUP2 AND PUSH1 0x80 DUP8 ADD MSTORE PUSH4 0xFFFFFFFF DUP2 PUSH1 0x20 SHR AND PUSH1 0xA0 DUP8 ADD MSTORE PUSH1 0x40 SHR AND ISZERO ISZERO PUSH1 0xC0 DUP6 ADD MSTORE PUSH2 0xFFFF PUSH1 0x7 PUSH1 0x40 MLOAD SWAP7 PUSH2 0x79A DUP9 PUSH2 0x952 JUMP JUMPDEST ADD SLOAD PUSH4 0xFFFFFFFF DUP2 AND DUP8 MSTORE PUSH4 0xFFFFFFFF DUP2 PUSH1 0x20 SHR AND PUSH1 0x20 DUP9 ADD MSTORE PUSH1 0x40 SHR AND PUSH1 0x40 DUP7 ADD MSTORE PUSH1 0x40 MLOAD SWAP5 DUP6 SWAP4 DUP5 MSTORE PUSH2 0x1A0 PUSH1 0x20 DUP6 ADD MSTORE DUP3 MLOAD SWAP3 DUP4 PUSH2 0x1A0 DUP7 ADD MSTORE PUSH1 0x0 JUMPDEST DUP5 DUP2 LT PUSH2 0x889 JUMPI POP POP PUSH1 0x40 PUSH2 0xFFFF SWAP2 PUSH1 0xC0 PUSH2 0x1C0 SWAP8 PUSH1 0x0 DUP10 DUP9 DUP11 ADD ADD MSTORE PUSH1 0x1 DUP1 PUSH1 0xA0 SHL SUB DUP2 MLOAD AND DUP5 DUP10 ADD MSTORE PUSH1 0x20 DUP2 ADD MLOAD PUSH1 0x60 DUP10 ADD MSTORE DUP4 DUP2 ADD MLOAD PUSH1 0x80 DUP10 ADD MSTORE PUSH1 0x60 DUP2 ADD MLOAD PUSH1 0xA0 DUP10 ADD MSTORE PUSH4 0xFFFFFFFF PUSH1 0x80 DUP3 ADD MLOAD AND DUP3 DUP10 ADD MSTORE PUSH4 0xFFFFFFFF PUSH1 0xA0 DUP3 ADD MLOAD AND PUSH1 0xE0 DUP10 ADD MSTORE ADD MLOAD ISZERO ISZERO PUSH2 0x100 DUP8 ADD MSTORE PUSH4 0xFFFFFFFF DUP2 MLOAD AND PUSH2 0x120 DUP8 ADD MSTORE PUSH4 0xFFFFFFFF PUSH1 0x20 DUP3 ADD MLOAD AND PUSH2 0x140 DUP8 ADD MSTORE ADD MLOAD AND PUSH2 0x160 DUP5 ADD MSTORE ISZERO ISZERO PUSH2 0x180 DUP4 ADD MSTORE PUSH1 0x1F DUP1 NOT SWAP2 ADD AND DUP2 ADD SUB ADD SWAP1 RETURN JUMPDEST PUSH1 0x20 DUP3 DUP3 ADD DUP2 ADD MLOAD PUSH2 0x1C0 DUP11 DUP5 ADD ADD MSTORE DUP9 SWAP7 POP ADD PUSH2 0x7DA JUMP JUMPDEST PUSH1 0x0 SWAP1 DUP2 MSTORE PUSH1 0x20 DUP2 KECCAK256 SWAP1 SWAP3 POP JUMPDEST DUP5 DUP4 LT PUSH2 0x8C9 JUMPI POP PUSH2 0x721 SWAP4 POP POP DUP2 ADD PUSH1 0x20 ADD DUP8 DUP1 PUSH2 0x70E JUMP JUMPDEST DUP2 SWAP4 POP SWAP1 DUP2 PUSH1 0x20 SWAP3 SLOAD DUP4 DUP6 DUP12 ADD ADD MSTORE ADD SWAP2 ADD SWAP1 SWAP2 DUP7 SWAP3 PUSH2 0x8AF JUMP JUMPDEST SWAP2 POP POP PUSH1 0x20 SWAP3 POP PUSH2 0x721 SWAP5 SWAP2 POP PUSH1 0xFF NOT AND DUP3 DUP5 ADD MSTORE ISZERO ISZERO PUSH1 0x5 SHL DUP3 ADD ADD DUP8 DUP1 PUSH2 0x70E JUMP JUMPDEST SWAP2 DUP2 PUSH1 0x1F DUP5 ADD SLT ISZERO PUSH2 0x442 JUMPI DUP3 CALLDATALOAD SWAP2 PUSH8 0xFFFFFFFFFFFFFFFF DUP4 GT PUSH2 0x442 JUMPI PUSH1 0x20 DUP4 DUP2 DUP7 ADD SWAP6 ADD ADD GT PUSH2 0x442 JUMPI JUMP JUMPDEST PUSH1 0xE0 DUP2 ADD SWAP1 DUP2 LT PUSH8 0xFFFFFFFFFFFFFFFF DUP3 GT OR PUSH2 0x416 JUMPI PUSH1 0x40 MSTORE JUMP JUMPDEST PUSH1 0x60 DUP2 ADD SWAP1 DUP2 LT PUSH8 0xFFFFFFFFFFFFFFFF DUP3 GT OR PUSH2 0x416 JUMPI PUSH1 0x40 MSTORE JUMP JUMPDEST SWAP1 PUSH1 0x1F DUP1 NOT SWAP2 ADD AND DUP2 ADD SWAP1 DUP2 LT PUSH8 0xFFFFFFFFFFFFFFFF DUP3 GT OR PUSH2 0x416 JUMPI PUSH1 0x40 MSTORE JUMP JUMPDEST SWAP1 PUSH1 0x1 DUP3 DUP2 SHR SWAP3 AND DUP1 ISZERO PUSH2 0x9C0 JUMPI JUMPDEST PUSH1 0x20 DUP4 LT EQ PUSH2 0x9AA JUMPI JUMP JUMPDEST PUSH4 0x4E487B71 PUSH1 0xE0 SHL PUSH1 0x0 MSTORE PUSH1 0x22 PUSH1 0x4 MSTORE PUSH1 0x24 PUSH1 0x0 REVERT JUMPDEST SWAP2 PUSH1 0x7F AND SWAP2 PUSH2 0x99F JUMP JUMPDEST SWAP1 DUP1 PUSH1 0x20 SWAP4 SWAP3 DUP2 DUP5 MSTORE DUP5 DUP5 ADD CALLDATACOPY PUSH1 0x0 DUP3 DUP3 ADD DUP5 ADD MSTORE PUSH1 0x1F ADD PUSH1 0x1F NOT AND ADD ADD SWAP1 JUMP JUMPDEST PUSH1 0x44 CALLDATALOAD PUSH1 0x1 PUSH1 0x1 PUSH1 0xA0 SHL SUB DUP2 AND DUP2 SUB PUSH2 0x442 JUMPI SWAP1 JUMP JUMPDEST PUSH1 0xC4 CALLDATALOAD PUSH4 0xFFFFFFFF DUP2 AND DUP2 SUB PUSH2 0x442 JUMPI SWAP1 JUMP JUMPDEST PUSH1 0xE4 CALLDATALOAD PUSH4 0xFFFFFFFF DUP2 AND DUP2 SUB PUSH2 0x442 JUMPI SWAP1 JUMP JUMPDEST PUSH2 0x124 CALLDATALOAD PUSH4 0xFFFFFFFF DUP2 AND DUP2 SUB PUSH2 0x442 JUMPI SWAP1 JUMP JUMPDEST PUSH2 0x144 CALLDATALOAD PUSH4 0xFFFFFFFF DUP2 AND DUP2 SUB PUSH2 0x442 JUMPI SWAP1 JUMP JUMPDEST PUSH2 0x104 CALLDATALOAD DUP1 ISZERO ISZERO DUP2 SUB PUSH2 0x442 JUMPI SWAP1 JUMP JUMPDEST PUSH2 0x164 CALLDATALOAD PUSH2 0xFFFF DUP2 AND DUP2 SUB PUSH2 0x442 JUMPI SWAP1 JUMP JUMPDEST DUP1 PUSH1 0x0 MSTORE PUSH1 0x2 PUSH1 0x20 MSTORE PUSH1 0xFF PUSH1 0x40 PUSH1 0x0 KECCAK256 SLOAD AND ISZERO PUSH2 0xA98 JUMPI PUSH1 0x0 MSTORE PUSH1 0x1 PUSH1 0x20 MSTORE PUSH1 0x40 PUSH1 0x0 KECCAK256 SWAP1 JUMP JUMPDEST PUSH1 0x40 MLOAD PUSH3 0x461BCD PUSH1 0xE5 SHL DUP2 MSTORE PUSH1 0x20 PUSH1 0x4 DUP3 ADD MSTORE PUSH1 0x22 PUSH1 0x24 DUP3 ADD MSTORE PUSH32 0x4C697374696E6752656769737472793A206C697374696E67206E6F7420666F75 PUSH1 0x44 DUP3 ADD MSTORE PUSH2 0x1B99 PUSH1 0xF2 SHL PUSH1 0x64 DUP3 ADD MSTORE PUSH1 0x84 SWAP1 REVERT JUMPDEST SWAP1 DUP2 PUSH1 0x20 SWAP2 SUB SLT PUSH2 0x442 JUMPI MLOAD PUSH1 0x1 PUSH1 0x1 PUSH1 0xA0 SHL SUB DUP2 AND DUP2 SUB PUSH2 0x442 JUMPI SWAP1 JUMP JUMPDEST PUSH1 0x40 DUP1 MLOAD PUSH4 0x31A9108F PUSH1 0xE1 SHL DUP2 MSTORE PUSH1 0x4 DUP2 ADD DUP4 SWAP1 MSTORE PUSH1 0x20 SWAP3 SWAP1 PUSH1 0x1 PUSH1 0x1 PUSH1 0xA0 SHL SUB PUSH32 0x0 DUP2 AND SWAP2 DUP6 DUP2 PUSH1 0x24 DUP2 DUP7 GAS STATICCALL SWAP1 DUP2 ISZERO PUSH2 0xCBF JUMPI DUP7 SWAP2 DUP4 SWAP2 PUSH1 0x0 SWAP2 PUSH2 0xCCA JUMPI JUMPDEST POP AND SWAP4 DUP5 CALLER EQ ISZERO SWAP5 DUP6 PUSH2 0xC40 JUMPI JUMPDEST POP DUP5 PUSH2 0xBCB JUMPI JUMPDEST POP POP POP POP PUSH2 0xB88 JUMPI POP POP JUMP JUMPDEST PUSH1 0x64 SWAP3 POP MLOAD SWAP1 PUSH3 0x461BCD PUSH1 0xE5 SHL DUP3 MSTORE PUSH1 0x4 DUP3 ADD MSTORE PUSH1 0x1F PUSH1 0x24 DUP3 ADD MSTORE PUSH32 0x4C697374696E6752656769737472793A206E6F7420617574686F72697A656400 PUSH1 0x44 DUP3 ADD MSTORE REVERT JUMPDEST SWAP1 SWAP2 SWAP3 SWAP4 POP PUSH1 0x24 DUP6 MLOAD DUP1 SWAP6 DUP2 SWAP4 PUSH4 0x20604BF PUSH1 0xE2 SHL DUP4 MSTORE PUSH1 0x4 DUP4 ADD MSTORE GAS STATICCALL SWAP2 DUP3 ISZERO PUSH2 0xC35 JUMPI PUSH1 0x0 SWAP3 PUSH2 0xC06 JUMPI JUMPDEST POP AND CALLER EQ ISZERO CODESIZE DUP1 DUP5 DUP2 PUSH2 0xB7C JUMP JUMPDEST PUSH2 0xC27 SWAP2 SWAP3 POP DUP5 RETURNDATASIZE DUP7 GT PUSH2 0xC2E JUMPI JUMPDEST PUSH2 0xC1F DUP2 DUP4 PUSH2 0x96E JUMP JUMPDEST DUP2 ADD SWAP1 PUSH2 0xAE8 JUMP JUMPDEST SWAP1 CODESIZE PUSH2 0xBF8 JUMP JUMPDEST POP RETURNDATASIZE PUSH2 0xC15 JUMP JUMPDEST DUP4 MLOAD RETURNDATASIZE PUSH1 0x0 DUP3 RETURNDATACOPY RETURNDATASIZE SWAP1 REVERT JUMPDEST SWAP2 POP SWAP4 POP DUP5 MLOAD SWAP1 PUSH4 0xE985E9C5 PUSH1 0xE0 SHL DUP3 MSTORE PUSH1 0x4 DUP3 ADD MSTORE CALLER PUSH1 0x24 DUP3 ADD MSTORE DUP6 DUP2 PUSH1 0x44 DUP2 DUP7 GAS STATICCALL SWAP1 DUP2 ISZERO PUSH2 0xCBF JUMPI SWAP1 DUP7 SWAP2 PUSH1 0x0 SWAP2 PUSH2 0xC7F JUMPI JUMPDEST POP ISZERO SWAP4 CODESIZE PUSH2 0xB75 JUMP JUMPDEST SWAP1 SWAP2 DUP2 DUP2 RETURNDATASIZE DUP4 GT PUSH2 0xCB8 JUMPI JUMPDEST PUSH2 0xC95 DUP2 DUP4 PUSH2 0x96E JUMP JUMPDEST DUP2 ADD SUB SLT PUSH2 0xCB4 JUMPI MLOAD SWAP1 DUP2 ISZERO ISZERO DUP3 SUB PUSH2 0xCB1 JUMPI POP DUP6 SWAP1 CODESIZE PUSH2 0xC76 JUMP JUMPDEST DUP1 REVERT JUMPDEST POP DUP1 REVERT JUMPDEST POP RETURNDATASIZE PUSH2 0xC8B JUMP JUMPDEST DUP6 MLOAD RETURNDATASIZE PUSH1 0x0 DUP3 RETURNDATACOPY RETURNDATASIZE SWAP1 REVERT JUMPDEST PUSH2 0xCE1 SWAP2 POP DUP4 RETURNDATASIZE DUP6 GT PUSH2 0xC2E JUMPI PUSH2 0xC1F DUP2 DUP4 PUSH2 0x96E JUMP JUMPDEST CODESIZE PUSH2 0xB67 JUMP INVALID LOG2 PUSH5 0x6970667358 0x22 SLT KECCAK256 0xEF SWAP5 ADDMOD PREVRANDAO 0xE8 0xA9 SWAP4 PUSH27 0x329D1EF6D308B3E971EB26C0A3822F79118D5DDF2649281064736F PUSH13 0x63430008180033000000000000 "},"methodIdentifiers":{"createListing(uint256,string,(address,uint256,bytes32,uint256,uint32,uint32,bool),(uint32,uint32,uint16))":"ae5ab77a","getListing(uint256)":"107a274a","identityRegistry()":"134e18f4","updateListing(uint256,string,bool)":"809c232a"}}}}}