{
  "_format": "hh-sol-artifact-1",
  "contractName": "DisputeModule",
  "sourceName": "contracts/DisputeModule.sol",
  "abi": [
    {
      "inputs": [
        {
          "internalType": "address",
          "name": "taskMarket_",
          "type": "address"
        },
        {
          "internalType": "address[]",
          "name": "initialResolvers",
          "type": "address[]"
        }
      ],
      "stateMutability": "nonpayable",
      "type": "constructor"
    },
    {
      "anonymous": false,
      "inputs": [
        {
          "indexed": true,
          "internalType": "uint256",
          "name": "taskId",
          "type": "uint256"
        },
        {
          "indexed": true,
          "internalType": "address",
          "name": "buyer",
          "type": "address"
        },
        {
          "indexed": false,
          "internalType": "string",
          "name": "disputeURI",
          "type": "string"
        }
      ],
      "name": "DisputeOpened",
      "type": "event"
    },
    {
      "anonymous": false,
      "inputs": [
        {
          "indexed": true,
          "internalType": "uint256",
          "name": "taskId",
          "type": "uint256"
        },
        {
          "indexed": true,
          "internalType": "address",
          "name": "resolver",
          "type": "address"
        },
        {
          "indexed": false,
          "internalType": "enum ITaskMarket.DisputeOutcome",
          "name": "outcome",
          "type": "uint8"
        },
        {
          "indexed": false,
          "internalType": "string",
          "name": "resolutionURI",
          "type": "string"
        }
      ],
      "name": "DisputeResolved",
      "type": "event"
    },
    {
      "anonymous": false,
      "inputs": [
        {
          "indexed": true,
          "internalType": "address",
          "name": "resolver",
          "type": "address"
        },
        {
          "indexed": false,
          "internalType": "bool",
          "name": "allowed",
          "type": "bool"
        }
      ],
      "name": "ResolverUpdated",
      "type": "event"
    },
    {
      "inputs": [
        {
          "internalType": "uint256",
          "name": "",
          "type": "uint256"
        }
      ],
      "name": "disputes",
      "outputs": [
        {
          "internalType": "address",
          "name": "buyer",
          "type": "address"
        },
        {
          "internalType": "bool",
          "name": "opened",
          "type": "bool"
        },
        {
          "internalType": "bool",
          "name": "resolved",
          "type": "bool"
        },
        {
          "internalType": "string",
          "name": "disputeURI",
          "type": "string"
        },
        {
          "internalType": "string",
          "name": "resolutionURI",
          "type": "string"
        },
        {
          "internalType": "enum ITaskMarket.DisputeOutcome",
          "name": "outcome",
          "type": "uint8"
        }
      ],
      "stateMutability": "view",
      "type": "function"
    },
    {
      "inputs": [
        {
          "internalType": "uint256",
          "name": "taskId",
          "type": "uint256"
        },
        {
          "internalType": "string",
          "name": "disputeURI",
          "type": "string"
        }
      ],
      "name": "openDispute",
      "outputs": [],
      "stateMutability": "nonpayable",
      "type": "function"
    },
    {
      "inputs": [],
      "name": "owner",
      "outputs": [
        {
          "internalType": "address",
          "name": "",
          "type": "address"
        }
      ],
      "stateMutability": "view",
      "type": "function"
    },
    {
      "inputs": [
        {
          "internalType": "uint256",
          "name": "taskId",
          "type": "uint256"
        },
        {
          "internalType": "enum ITaskMarket.DisputeOutcome",
          "name": "outcome",
          "type": "uint8"
        },
        {
          "internalType": "string",
          "name": "resolutionURI",
          "type": "string"
        }
      ],
      "name": "resolveDispute",
      "outputs": [],
      "stateMutability": "nonpayable",
      "type": "function"
    },
    {
      "inputs": [
        {
          "internalType": "address",
          "name": "",
          "type": "address"
        }
      ],
      "name": "resolvers",
      "outputs": [
        {
          "internalType": "bool",
          "name": "",
          "type": "bool"
        }
      ],
      "stateMutability": "view",
      "type": "function"
    },
    {
      "inputs": [
        {
          "internalType": "address",
          "name": "resolver",
          "type": "address"
        },
        {
          "internalType": "bool",
          "name": "allowed",
          "type": "bool"
        }
      ],
      "name": "setResolver",
      "outputs": [],
      "stateMutability": "nonpayable",
      "type": "function"
    },
    {
      "inputs": [],
      "name": "taskMarket",
      "outputs": [
        {
          "internalType": "contract ITaskMarket",
          "name": "",
          "type": "address"
        }
      ],
      "stateMutability": "view",
      "type": "function"
    }
  ],
  "bytecode": "0x604060a0815234620001c157620010a4803803806200001e81620001dc565b92833981018282820312620001c157620000388262000202565b6020838101516001600160401b0394919391858211620001c1570181601f82011215620001c1578051948511620001c6578460051b9084806200007d818501620001dc565b809881520192820101928311620001c15784809101915b838310620001a6575050506001600160a01b0391821691905081156200016257600080546001600160a01b03191633178155608092909252815b84518110156200013c578082620000e86001938862000217565b51168452818552868420805460ff191683179055817fd8ea402e95478feee1bea3f652c970c98c456281ae29a9987918e9e8b6754bb486856200012c858b62000217565b5116928a51908152a201620000ce565b8551610e6190816200024382396080518181816101600152818161041f01526105cb0152f35b845162461bcd60e51b815260048101849052601f60248201527f446973707574654d6f64756c653a207a65726f207461736b206d61726b6574006044820152606490fd5b8190620001b38462000202565b815201910190849062000094565b600080fd5b634e487b7160e01b600052604160045260246000fd5b6040519190601f01601f191682016001600160401b03811183821017620001c657604052565b51906001600160a01b0382168203620001c157565b80518210156200022c5760209160051b010190565b634e487b7160e01b600052603260045260246000fdfe6080604081815260048036101561001557600080fd5b600092833560e01c9081631da6ed7c14610ad15750806336f691c41461055a578063564a565d146104b85780638da5cb5b14610490578063b93793e914610452578063c01aca0d1461040a5763c316939c1461007057600080fd5b3461025357606036600319011261025357803590602490813590808210156104065767ffffffffffffffff90604435828111610402576100b39036908301610bb7565b92909433895260019160209280845260ff8a8c205416156103c057888b5260028452898b20805460ff8160a01c161561037d5760ff8160a81c1661033a5760ff60a81b1916600160a81b17815560038101805460ff8a1660ff19919091161790556002019186116103285790858b939261012d8354610be5565b601f81116102d5575b5084601f8311600114610262579082918693610257575b501b906000198860031b1c19161790555b7f00000000000000000000000000000000000000000000000000000000000000006001600160a01b031690813b1561025357899489926101b3859388519586946330c5a4e760e21b865285015283018a610d58565b606060448301528183816101cb606482018c8f610e0a565b03925af1801561024957610226575b5050936102139392827fa5684034510329ec77340be1fcce2a7d48ba6732a5090134b06976d0396579fe96610220945196878097610d58565b8501523397840191610e0a565b0390a380f35b61023591929350949394610c1f565b61024557859087389493946101da565b8680fd5b84513d84823e3d90fd5b8280fd5b8b013592503861014d565b83865286862091925088601f19811687898e5b8383106102ac5750505010610292575b505086811b01905561015e565b8a013560001960038a901b60f8161c191690553880610285565b8798999a5081945094809792969193950135815501940192018e9695949392918a91898e610275565b91509180939452848c20601f880160051c81019186891061031e575b918d95949391601f8a940160051c01905b81811061030f5750610136565b9586558d958993508201610302565b90915081906102f1565b634e487b7160e01b8b5260418552828bfd5b508a5162461bcd60e51b8152808701869052601f818601527f446973707574654d6f64756c653a20616c7265616479207265736f6c766564006044820152606490fd5b508a5162461bcd60e51b81528087018690526019818601527f446973707574654d6f64756c653a206e6f74206f70656e6564000000000000006044820152606490fd5b895162461bcd60e51b8152808601859052601c818501527f446973707574654d6f64756c653a207265736f6c766572206f6e6c79000000006044820152606490fd5b8780fd5b8580fd5b50503461044e578160031936011261044e57517f00000000000000000000000000000000000000000000000000000000000000006001600160a01b03168152602090f35b5080fd5b50503461044e57602036600319011261044e5760209160ff9082906001600160a01b0361047d610b9c565b1681526001855220541690519015158152f35b50503461044e578160031936011261044e57905490516001600160a01b039091168152602090f35b50346102535760203660031901126102535760ff9282913581526002602052209061055661054b83549361053d6104f160018301610c6b565b87600361050060028601610c6b565b9401541695805198899860018060a01b0381168a52818160a01c16151560208b015260a81c1615159088015260c0606088015260c0870190610d33565b908582036080870152610d33565b9160a0840190610d58565b0390f35b5034610253578160031936011261025357803590602480359367ffffffffffffffff94858111610245576105919036908501610bb7565b9290938588526020966002885283892080549160ff8360a01c16610a8f578551630eb2f3bf60e11b81528481018a90526001600160a01b037f00000000000000000000000000000000000000000000000000000000000000008116948d9290919083818a818a5afa938415610a845793610900575b506101e083015160078110156108ee576003036108ab57853314158061089b575b610858576060600160a01b93015116906affffffffffffffffffffff60a81b161717825560018083019188116108465790878c959493926106688354610be5565b601f81116107ef575b5086601f831160011461076e5791809160039594938993610763575b501b906000198b861b1c19161790555b01805460ff19169055803b1561025357848894815195869463f8895d0360e01b86528501528301528183816106d6604482018a8c610e0a565b03925af180156107595761071e575b50906102207f9b58afa035c5fa58f85c5a54b65bd3562d5aa7679e973bc1404fe25e8babab219392519283928784523397840191610e0a565b7f9b58afa035c5fa58f85c5a54b65bd3562d5aa7679e973bc1404fe25e8babab219392919661074f61022092610c1f565b96919293506106e5565b82513d89823e3d90fd5b8d013592503861068d565b8d908c989796959493601f198116858a52838a20938a9b5b828d106107c157505060039798999a50106107a9575b505089811b01905561069d565b8c01356000198c871b60f8161c19169055388061079c565b8497999b5081949087999b9d979396929450013581550194019201979593918f979593918f908d918f610786565b9150918093949596528b8d20601f8a0160051c8101918d8b1061083c575b918e979695949391601f8c940160051c01905b81811061082d5750610671565b9788558e978b93508201610820565b909150819061080d565b634e487b7160e01b8c5260418552858cfd5b50875162461bcd60e51b81528087018d90526019818901527f446973707574654d6f64756c653a206275796572206f6e6c79000000000000006044820152606490fd5b5033816060850151161415610627565b50875162461bcd60e51b81528087018d9052601c818901527f446973707574654d6f64756c653a206e6f74207375626d6974746564000000006044820152606490fd5b634e487b7160e01b8f5260218852888ffd5b9092503d808f833e6109128183610c49565b8101908d81830312610a8057805190858211610a5d5701610220918282820312610a5d578a5192830183811087821117610a6c578f908c528251845280830151908401528a8201518b84015261096a60608301610d7b565b606084015261097b60808301610d7b565b608084015260a0820151868111610a615781610998918401610d8f565b60a08401526109a960c08301610de4565b60c08401526109ba60e08301610de4565b60e084015261010080830151908401526101206109d8818401610df5565b9084015261014080830151908401526101608083015190840152610180908183015190878211610a6657610a0d918401610d8f565b908301526101a080820151908301526101c0610a2a818301610df5565b908301526101e080820151906007821015610a615783015261020080910151908115158203610a5d578201529138610606565b8f80fd5b508f80fd5b50508f80fd5b5050634e487b7160e01b8f5260418852888ffd5b8e80fd5b8a51903d90823e3d90fd5b855162461bcd60e51b81528085018b9052601d818701527f446973707574654d6f64756c653a20616c7265616479206f70656e65640000006044820152606490fd5b91905034610b985782600319360112610b9857610aec610b9c565b602435928315158094036104065785546001600160a01b03939084163303610b57575050916020917fd8ea402e95478feee1bea3f652c970c98c456281ae29a9987918e9e8b6754bb49316938486526001835280862060ff1981541660ff841617905551908152a280f35b62461bcd60e51b8252602090820152601960248201527f446973707574654d6f64756c653a206f776e6572206f6e6c79000000000000006044820152606490fd5b8380fd5b600435906001600160a01b0382168203610bb257565b600080fd5b9181601f84011215610bb25782359167ffffffffffffffff8311610bb25760208381860195010111610bb257565b90600182811c92168015610c15575b6020831014610bff57565b634e487b7160e01b600052602260045260246000fd5b91607f1691610bf4565b67ffffffffffffffff8111610c3357604052565b634e487b7160e01b600052604160045260246000fd5b90601f8019910116810190811067ffffffffffffffff821117610c3357604052565b90604051918260008254610c7e81610be5565b90818452602094600191600181169081600014610cee5750600114610caf575b505050610cad92500383610c49565b565b600090815285812095935091905b818310610cd6575050610cad9350820101388080610c9e565b85548884018501529485019487945091830191610cbd565b92505050610cad94925060ff191682840152151560051b820101388080610c9e565b60005b838110610d235750506000910152565b8181015183820152602001610d13565b90602091610d4c81518092818552858086019101610d10565b601f01601f1916010190565b906004821015610d655752565b634e487b7160e01b600052602160045260246000fd5b51906001600160a01b0382168203610bb257565b81601f82011215610bb257805167ffffffffffffffff8111610c335760405192610dc3601f8301601f191660200185610c49565b81845260208284010111610bb257610de19160208085019101610d10565b90565b519063ffffffff82168203610bb257565b519067ffffffffffffffff82168203610bb257565b908060209392818452848401376000828201840152601f01601f191601019056fea2646970667358221220afa1a2f3af8170b778f785421208e55713562cc81428edc7043fe051c6b08e5064736f6c63430008180033",
  "linkReferences": {},
  "deployedLinkReferences": {}
}