{
  "_format": "hh-sol-artifact-1",
  "contractName": "AgentIdentityRegistry",
  "sourceName": "contracts/AgentIdentityRegistry.sol",
  "abi": [
    {
      "inputs": [],
      "stateMutability": "nonpayable",
      "type": "constructor"
    },
    {
      "inputs": [
        {
          "internalType": "address",
          "name": "sender",
          "type": "address"
        },
        {
          "internalType": "uint256",
          "name": "tokenId",
          "type": "uint256"
        },
        {
          "internalType": "address",
          "name": "owner",
          "type": "address"
        }
      ],
      "name": "ERC721IncorrectOwner",
      "type": "error"
    },
    {
      "inputs": [
        {
          "internalType": "address",
          "name": "operator",
          "type": "address"
        },
        {
          "internalType": "uint256",
          "name": "tokenId",
          "type": "uint256"
        }
      ],
      "name": "ERC721InsufficientApproval",
      "type": "error"
    },
    {
      "inputs": [
        {
          "internalType": "address",
          "name": "approver",
          "type": "address"
        }
      ],
      "name": "ERC721InvalidApprover",
      "type": "error"
    },
    {
      "inputs": [
        {
          "internalType": "address",
          "name": "operator",
          "type": "address"
        }
      ],
      "name": "ERC721InvalidOperator",
      "type": "error"
    },
    {
      "inputs": [
        {
          "internalType": "address",
          "name": "owner",
          "type": "address"
        }
      ],
      "name": "ERC721InvalidOwner",
      "type": "error"
    },
    {
      "inputs": [
        {
          "internalType": "address",
          "name": "receiver",
          "type": "address"
        }
      ],
      "name": "ERC721InvalidReceiver",
      "type": "error"
    },
    {
      "inputs": [
        {
          "internalType": "address",
          "name": "sender",
          "type": "address"
        }
      ],
      "name": "ERC721InvalidSender",
      "type": "error"
    },
    {
      "inputs": [
        {
          "internalType": "uint256",
          "name": "tokenId",
          "type": "uint256"
        }
      ],
      "name": "ERC721NonexistentToken",
      "type": "error"
    },
    {
      "anonymous": false,
      "inputs": [
        {
          "indexed": true,
          "internalType": "address",
          "name": "owner",
          "type": "address"
        },
        {
          "indexed": true,
          "internalType": "uint256",
          "name": "agentId",
          "type": "uint256"
        },
        {
          "indexed": false,
          "internalType": "string",
          "name": "agentURI",
          "type": "string"
        }
      ],
      "name": "AgentRegistered",
      "type": "event"
    },
    {
      "anonymous": false,
      "inputs": [
        {
          "indexed": true,
          "internalType": "uint256",
          "name": "agentId",
          "type": "uint256"
        },
        {
          "indexed": false,
          "internalType": "string",
          "name": "agentURI",
          "type": "string"
        }
      ],
      "name": "AgentURIUpdated",
      "type": "event"
    },
    {
      "anonymous": false,
      "inputs": [
        {
          "indexed": true,
          "internalType": "address",
          "name": "owner",
          "type": "address"
        },
        {
          "indexed": true,
          "internalType": "address",
          "name": "approved",
          "type": "address"
        },
        {
          "indexed": true,
          "internalType": "uint256",
          "name": "tokenId",
          "type": "uint256"
        }
      ],
      "name": "Approval",
      "type": "event"
    },
    {
      "anonymous": false,
      "inputs": [
        {
          "indexed": true,
          "internalType": "address",
          "name": "owner",
          "type": "address"
        },
        {
          "indexed": true,
          "internalType": "address",
          "name": "operator",
          "type": "address"
        },
        {
          "indexed": false,
          "internalType": "bool",
          "name": "approved",
          "type": "bool"
        }
      ],
      "name": "ApprovalForAll",
      "type": "event"
    },
    {
      "anonymous": false,
      "inputs": [
        {
          "indexed": true,
          "internalType": "address",
          "name": "from",
          "type": "address"
        },
        {
          "indexed": true,
          "internalType": "address",
          "name": "to",
          "type": "address"
        },
        {
          "indexed": true,
          "internalType": "uint256",
          "name": "tokenId",
          "type": "uint256"
        }
      ],
      "name": "Transfer",
      "type": "event"
    },
    {
      "inputs": [
        {
          "internalType": "address",
          "name": "to",
          "type": "address"
        },
        {
          "internalType": "uint256",
          "name": "tokenId",
          "type": "uint256"
        }
      ],
      "name": "approve",
      "outputs": [],
      "stateMutability": "nonpayable",
      "type": "function"
    },
    {
      "inputs": [
        {
          "internalType": "address",
          "name": "owner",
          "type": "address"
        }
      ],
      "name": "balanceOf",
      "outputs": [
        {
          "internalType": "uint256",
          "name": "",
          "type": "uint256"
        }
      ],
      "stateMutability": "view",
      "type": "function"
    },
    {
      "inputs": [
        {
          "internalType": "uint256",
          "name": "agentId",
          "type": "uint256"
        }
      ],
      "name": "getAgentURI",
      "outputs": [
        {
          "internalType": "string",
          "name": "",
          "type": "string"
        }
      ],
      "stateMutability": "view",
      "type": "function"
    },
    {
      "inputs": [
        {
          "internalType": "uint256",
          "name": "tokenId",
          "type": "uint256"
        }
      ],
      "name": "getApproved",
      "outputs": [
        {
          "internalType": "address",
          "name": "",
          "type": "address"
        }
      ],
      "stateMutability": "view",
      "type": "function"
    },
    {
      "inputs": [
        {
          "internalType": "address",
          "name": "owner",
          "type": "address"
        },
        {
          "internalType": "address",
          "name": "operator",
          "type": "address"
        }
      ],
      "name": "isApprovedForAll",
      "outputs": [
        {
          "internalType": "bool",
          "name": "",
          "type": "bool"
        }
      ],
      "stateMutability": "view",
      "type": "function"
    },
    {
      "inputs": [],
      "name": "name",
      "outputs": [
        {
          "internalType": "string",
          "name": "",
          "type": "string"
        }
      ],
      "stateMutability": "view",
      "type": "function"
    },
    {
      "inputs": [
        {
          "internalType": "uint256",
          "name": "tokenId",
          "type": "uint256"
        }
      ],
      "name": "ownerOf",
      "outputs": [
        {
          "internalType": "address",
          "name": "",
          "type": "address"
        }
      ],
      "stateMutability": "view",
      "type": "function"
    },
    {
      "inputs": [
        {
          "internalType": "string",
          "name": "agentURI",
          "type": "string"
        }
      ],
      "name": "registerAgent",
      "outputs": [
        {
          "internalType": "uint256",
          "name": "agentId",
          "type": "uint256"
        }
      ],
      "stateMutability": "nonpayable",
      "type": "function"
    },
    {
      "inputs": [
        {
          "internalType": "address",
          "name": "from",
          "type": "address"
        },
        {
          "internalType": "address",
          "name": "to",
          "type": "address"
        },
        {
          "internalType": "uint256",
          "name": "tokenId",
          "type": "uint256"
        }
      ],
      "name": "safeTransferFrom",
      "outputs": [],
      "stateMutability": "nonpayable",
      "type": "function"
    },
    {
      "inputs": [
        {
          "internalType": "address",
          "name": "from",
          "type": "address"
        },
        {
          "internalType": "address",
          "name": "to",
          "type": "address"
        },
        {
          "internalType": "uint256",
          "name": "tokenId",
          "type": "uint256"
        },
        {
          "internalType": "bytes",
          "name": "data",
          "type": "bytes"
        }
      ],
      "name": "safeTransferFrom",
      "outputs": [],
      "stateMutability": "nonpayable",
      "type": "function"
    },
    {
      "inputs": [
        {
          "internalType": "uint256",
          "name": "agentId",
          "type": "uint256"
        },
        {
          "internalType": "string",
          "name": "agentURI",
          "type": "string"
        }
      ],
      "name": "setAgentURI",
      "outputs": [],
      "stateMutability": "nonpayable",
      "type": "function"
    },
    {
      "inputs": [
        {
          "internalType": "address",
          "name": "operator",
          "type": "address"
        },
        {
          "internalType": "bool",
          "name": "approved",
          "type": "bool"
        }
      ],
      "name": "setApprovalForAll",
      "outputs": [],
      "stateMutability": "nonpayable",
      "type": "function"
    },
    {
      "inputs": [
        {
          "internalType": "bytes4",
          "name": "interfaceId",
          "type": "bytes4"
        }
      ],
      "name": "supportsInterface",
      "outputs": [
        {
          "internalType": "bool",
          "name": "",
          "type": "bool"
        }
      ],
      "stateMutability": "view",
      "type": "function"
    },
    {
      "inputs": [],
      "name": "symbol",
      "outputs": [
        {
          "internalType": "string",
          "name": "",
          "type": "string"
        }
      ],
      "stateMutability": "view",
      "type": "function"
    },
    {
      "inputs": [
        {
          "internalType": "uint256",
          "name": "tokenId",
          "type": "uint256"
        }
      ],
      "name": "tokenURI",
      "outputs": [
        {
          "internalType": "string",
          "name": "",
          "type": "string"
        }
      ],
      "stateMutability": "view",
      "type": "function"
    },
    {
      "inputs": [
        {
          "internalType": "address",
          "name": "from",
          "type": "address"
        },
        {
          "internalType": "address",
          "name": "to",
          "type": "address"
        },
        {
          "internalType": "uint256",
          "name": "tokenId",
          "type": "uint256"
        }
      ],
      "name": "transferFrom",
      "outputs": [],
      "stateMutability": "nonpayable",
      "type": "function"
    }
  ],
  "bytecode": "0x60803462000315576001600160401b039060409080820183811182821017620002ff578252600a815260209269135bd95cc81059d95b9d60b21b84830152825183810181811083821117620002ff57845260088152671353d15051d1539560c21b85820152825190828211620002ff5760008054926001958685811c95168015620002f4575b89861014620002e0578190601f958681116200028d575b508990868311600114620002295784926200021d575b5050600019600383901b1c191690861b1781555b8151938411620002095784548581811c91168015620001fe575b88821014620001ea57838111620001a2575b50869284116001146200013c5783949596509262000130575b5050600019600383901b1c191690821b1781555b600655516111e390816200031b8239f35b0151905038806200010b565b9190601f1984169685845280842093905b8882106200018a575050838596971062000170575b505050811b0181556200011f565b015160001960f88460031b161c1916905538808062000162565b8087859682949686015181550195019301906200014d565b8582528782208480870160051c8201928a8810620001e0575b0160051c019086905b828110620001d4575050620000f2565b838155018690620001c4565b92508192620001bb565b634e487b7160e01b82526022600452602482fd5b90607f1690620000e0565b634e487b7160e01b81526041600452602490fd5b015190503880620000b2565b8480528a85208994509190601f198416865b8d8282106200027657505084116200025c575b505050811b018155620000c6565b015160001960f88460031b161c191690553880806200024e565b8385015186558c979095019493840193016200023b565b9091508380528984208680850160051c8201928c8610620002d6575b918a91869594930160051c01915b828110620002c75750506200009c565b8681558594508a9101620002b7565b92508192620002a9565b634e487b7160e01b83526022600452602483fd5b94607f169462000085565b634e487b7160e01b600052604160045260246000fd5b600080fdfe608060408181526004918236101561001657600080fd5b600092833560e01c91826301ffc9a714610ad05750816306fdde0314610a1f578163081812fc146109ff578163095ea7b3146109225781630af28bd31461082a57816323b872dd146108125781632d2a95851461052f57816342842e0e146105005781636352211e146104cf57816370a082311461047a57816395d89b411461039b578163a22cb465146102f9578163b88d4fde14610263578163c87b56dd14610215578163ce91aede14610125575063e985e9c5146100d557600080fd5b3461012157806003193601126101215760ff816020936100f3610b7b565b6100fb610b96565b6001600160a01b0391821683526005875283832091168252855220549151911615158152f35b5080fd5b91905034610211576020918260031936011261020d573561014581610ea5565b5083526007825280832081519384918181549061016182610c7f565b92838652600192886001821691826000146101e35750506001146101a5575b85886101a189610192848a0385610c41565b51928284938452830190610b3b565b0390f35b87945081939291528383205b8284106101cb57505050820101816101926101a138610180565b8054848a0186015288955087949093019281016101b1565b60ff19168882015294151560051b8701909401945085935061019292506101a19150389050610180565b8380fd5b8280fd5b838334610121576020366003190112610121576102356101a19335610ea5565b5081815161024281610c0f565b5280519161024f83610c0f565b825251918291602083526020830190610b3b565b919050346102115760803660031901126102115761027f610b7b565b610287610b96565b60443591856064359567ffffffffffffffff8711610121573660238801121561012157860135956102c36102ba88610c63565b96519687610c41565b868652366024888301011161012157866102f69760246020930183890137860101526102f0838383610cde565b3361105f565b80f35b91905034610211578060031936011261021157610314610b7b565b9060243591821515809303610397576001600160a01b03169283156103825750338452600560205280842083855260205280842060ff1981541660ff8416179055519081527f17307eab39ab6107e8899845ad3d59bd9653f200f220920489ca2b5937696c3160203392a380f35b836024925191630b61174360e31b8352820152fd5b8480fd5b8284346104775780600319360112610477578151918282600193600154946103c286610c7f565b91828552602096876001821691826000146104505750506001146103f4575b5050506101a19291610192910385610c41565b9190869350600183527fb10e2d527612073b26eecdfd717e6a320cf44b4afac2b0732d9fcbe2b7fa0cf65b82841061043857505050820101816101926101a16103e1565b8054848a01860152889550879490930192810161041f565b60ff19168782015293151560051b8601909301935084925061019291506101a190506103e1565b80fd5b828434610477576020366003190112610477576001600160a01b0361049d610b7b565b169283156104ba5750806020938392526003845220549051908152f35b91516322718ad960e21b815291820152602490fd5b82843461047757602036600319011261047757506104ef60209235610ea5565b90516001600160a01b039091168152f35b505034610121576102f69061051436610bda565b9192519261052184610c0f565b8584526102f0838383610cde565b91905034610211576020928360031936011261047757823567ffffffffffffffff8111610121576105639036908501610bac565b9091600654946000198087146107ff576001870160065585519061058682610c0f565b83825233156107e85787845260028952868420546001600160a01b031680151591899190836107b6575b503380875260038c528987208054600101905582875260028c5289872080546001600160a01b03191682179055907fddf252ad1be2c89b69c2b068fc378daa952ba7f163c4a11628f55a4df523b3ef8780a46107a057333b610658575b505050907f77284e1a75d149ef26161b755b08a0af1ea0723010e19e79bce5626d693581f861064f8361064287958587610ee0565b8551918291339583610e7d565b0390a351908152f35b85979492979693919651858180610696630a85bd0160e11b95868352338d8401528d6024840152896044840152608060648401526084830190610b3b565b03818c335af189918161075c575b506107045750505050503d6000146106fb573d6106c081610c63565b906106cd84519283610c41565b81528094823d92013e5b835193846106f5578251633250574960e11b81523381860152602490fd5b84925001fd5b606093506106d7565b909193969294975063ffffffff60e01b160361074557507f77284e1a75d149ef26161b755b08a0af1ea0723010e19e79bce5626d693581f861064f8561060d565b602490845190633250574960e11b82523390820152fd5b9091508681813d8311610799575b6107748183610c41565b8101031261079557516001600160e01b0319811681036107955790386106a4565b8980fd5b503d61076a565b506024918551916339e3563760e11b8352820152fd5b600083815260046020526040902080546001600160a01b031916905581875260038c52898720908154019055386105b0565b8651633250574960e11b8152808401859052602490fd5b634e487b7160e01b835260118252602483fd5b8334610477576102f661082436610bda565b91610cde565b8391503461012157826003193601126101215780359060243567ffffffffffffffff811161020d5761085f9036908301610bac565b92909161086b82610ea5565b6001600160a01b0390811633811415919082610900575b50816108eb575b5061089a57506102f6939450610ee0565b608490602087519162461bcd60e51b8352820152602560248201527f4167656e744964656e7469747952656769737472793a206e6f7420617574686f6044820152641c9a5e995960da1b6064820152fd5b3391506108f784610cb9565b16141587610889565b9091508652600560205286862033875260205260ff8787205416159088610882565b9190503461021157806003193601126102115761093d610b7b565b9160243561094a81610ea5565b331515806109ec575b806109c3575b6109ad576001600160a01b039485169482918691167f8c5be1e5ebec7d5bd14f71427d1e84f3dd0314c0f7b2291e5b200ac8c7c3b9258880a48452602052822080546001600160a01b031916909117905580f35b835163a9fbf51f60e01b81523381850152602490fd5b506001600160a01b03811686526005602090815284872033885290528386205460ff1615610959565b506001600160a01b038116331415610953565b82843461047757602036600319011261047757506104ef60209235610cb9565b82843461047757806003193601126104775781519182828354610a4181610c7f565b9081845260209560019187600182169182600014610450575050600114610a75575050506101a19291610192910385610c41565b91908693508280527f290decd9548b62a8d60345a988386fc84ba6bc95484008f6362f93160ef3e5635b828410610ab857505050820101816101926101a16103e1565b8054848a018601528895508794909301928101610a9f565b849134610211576020366003190112610211573563ffffffff60e01b811680910361021157602092506380ac58cd60e01b8114908115610b2a575b8115610b19575b5015158152f35b6301ffc9a760e01b14905083610b12565b635b5e139f60e01b81149150610b0b565b919082519283825260005b848110610b67575050826000602080949584010152601f8019910116010190565b602081830181015184830182015201610b46565b600435906001600160a01b0382168203610b9157565b600080fd5b602435906001600160a01b0382168203610b9157565b9181601f84011215610b915782359167ffffffffffffffff8311610b915760208381860195010111610b9157565b6060906003190112610b91576001600160a01b03906004358281168103610b9157916024359081168103610b91579060443590565b6020810190811067ffffffffffffffff821117610c2b57604052565b634e487b7160e01b600052604160045260246000fd5b90601f8019910116810190811067ffffffffffffffff821117610c2b57604052565b67ffffffffffffffff8111610c2b57601f01601f191660200190565b90600182811c92168015610caf575b6020831014610c9957565b634e487b7160e01b600052602260045260246000fd5b91607f1691610c8e565b610cc281610ea5565b506000908152600460205260409020546001600160a01b031690565b6001600160a01b039182169290918315610e6457600092828452826020956002875260409684888820541696879133151580610dce575b509060027fddf252ad1be2c89b69c2b068fc378daa952ba7f163c4a11628f55a4df523b3ef9284610d9b575b858352600381528b8320805460010190558683525289812080546001600160a01b0319168517905580a41692838303610d7a5750505050565b6064945051926364283d7b60e01b8452600484015260248301526044820152fd5b600087815260046020526040902080546001600160a01b0319169055848352600381528b83208054600019019055610d41565b91939450915080610e23575b15610dea57859291879138610d15565b878688610e07576024915190637e27328960e01b82526004820152fd5b604491519063177e802f60e01b82523360048301526024820152fd5b503387148015610e48575b80610dda5750858252600481523385898420541614610dda565b5086825260058152878220338352815260ff8883205416610e2e565b604051633250574960e11b815260006004820152602490fd5b90918060409360208452816020850152848401376000828201840152601f01601f1916010190565b6000818152600260205260409020546001600160a01b0316908115610ec8575090565b60249060405190637e27328960e01b82526004820152fd5b90929160009382855260209460078652604081209067ffffffffffffffff841161104b57610f0e8254610c7f565b601f8111611008575b508096601f8511600114610f8357507fe335f4a32c56fb32eb92f5084017a5836fcdc9307d02f49f27dd61f0f6a434a894959684610f78575b508360011b906000198560031b1c19161790555b610f7360405192839283610e7d565b0390a2565b905082013538610f50565b96601f1985169783835280832092905b898210610ff0575050847fe335f4a32c56fb32eb92f5084017a5836fcdc9307d02f49f27dd61f0f6a434a896979810610fd6575b5050600183811b019055610f64565b830135600019600386901b60f8161c191690553880610fc7565b80600184958294958901358155019401920190610f93565b828252878220601f860160051c810191898710611041575b601f0160051c01905b8181106110365750610f17565b828155600101611029565b9091508190611020565b634e487b7160e01b81526041600452602490fd5b90939192833b611071575b5050505050565b604051630a85bd0160e11b8082526001600160a01b0393841660048301529583166024820152604481019190915260806064820152949216926020929185906110be906084830190610b3b565b039483816000978189895af1869181611169575b50611133575050503d60001461112a573d6110ec81610c63565b906110fa6040519283610c41565b81528093823d92013e5b8251928361112557604051633250574960e11b815260048101849052602490fd5b019050fd5b60609250611104565b919450915063ffffffff60e01b16036111515750388080808061106a565b60249060405190633250574960e11b82526004820152fd5b9091508481813d83116111a6575b6111818183610c41565b810103126111a257516001600160e01b0319811681036111a25790386110d2565b8680fd5b503d61117756fea2646970667358221220e3bf571d558e48a8275a0f4478a86874a6d8a05af2f3201fbe0cc8603e3acc3764736f6c63430008180033",
  "linkReferences": {},
  "deployedLinkReferences": {}
}