{
  "_format": "hh-sol-artifact-1",
  "contractName": "TaskMarket",
  "sourceName": "contracts/TaskMarket.sol",
  "abi": [
    {
      "inputs": [
        {
          "internalType": "address",
          "name": "listingRegistry_",
          "type": "address"
        },
        {
          "internalType": "address",
          "name": "identityRegistry_",
          "type": "address"
        }
      ],
      "stateMutability": "nonpayable",
      "type": "constructor"
    },
    {
      "anonymous": false,
      "inputs": [
        {
          "indexed": true,
          "internalType": "uint256",
          "name": "taskId",
          "type": "uint256"
        },
        {
          "indexed": false,
          "internalType": "string",
          "name": "artifactURI",
          "type": "string"
        },
        {
          "indexed": false,
          "internalType": "bytes32",
          "name": "artifactHash",
          "type": "bytes32"
        }
      ],
      "name": "DeliverableSubmitted",
      "type": "event"
    },
    {
      "anonymous": false,
      "inputs": [
        {
          "indexed": true,
          "internalType": "uint256",
          "name": "taskId",
          "type": "uint256"
        }
      ],
      "name": "QuoteAccepted",
      "type": "event"
    },
    {
      "anonymous": false,
      "inputs": [
        {
          "indexed": true,
          "internalType": "uint256",
          "name": "taskId",
          "type": "uint256"
        },
        {
          "indexed": false,
          "internalType": "uint32",
          "name": "quotedUnits",
          "type": "uint32"
        },
        {
          "indexed": false,
          "internalType": "uint256",
          "name": "quotedTotalPrice",
          "type": "uint256"
        },
        {
          "indexed": false,
          "internalType": "uint64",
          "name": "expiry",
          "type": "uint64"
        }
      ],
      "name": "QuoteProposed",
      "type": "event"
    },
    {
      "anonymous": false,
      "inputs": [
        {
          "indexed": true,
          "internalType": "uint256",
          "name": "taskId",
          "type": "uint256"
        },
        {
          "indexed": false,
          "internalType": "uint256",
          "name": "amount",
          "type": "uint256"
        }
      ],
      "name": "SellerBondFunded",
      "type": "event"
    },
    {
      "anonymous": false,
      "inputs": [
        {
          "indexed": true,
          "internalType": "uint256",
          "name": "taskId",
          "type": "uint256"
        }
      ],
      "name": "SubmissionAccepted",
      "type": "event"
    },
    {
      "anonymous": false,
      "inputs": [
        {
          "indexed": true,
          "internalType": "uint256",
          "name": "taskId",
          "type": "uint256"
        },
        {
          "indexed": false,
          "internalType": "string",
          "name": "disputeURI",
          "type": "string"
        }
      ],
      "name": "SubmissionDisputed",
      "type": "event"
    },
    {
      "anonymous": false,
      "inputs": [
        {
          "indexed": true,
          "internalType": "uint256",
          "name": "taskId",
          "type": "uint256"
        }
      ],
      "name": "TaskAccepted",
      "type": "event"
    },
    {
      "anonymous": false,
      "inputs": [
        {
          "indexed": true,
          "internalType": "uint256",
          "name": "taskId",
          "type": "uint256"
        }
      ],
      "name": "TaskCancelled",
      "type": "event"
    },
    {
      "anonymous": false,
      "inputs": [
        {
          "indexed": true,
          "internalType": "uint256",
          "name": "taskId",
          "type": "uint256"
        },
        {
          "indexed": false,
          "internalType": "uint256",
          "name": "amount",
          "type": "uint256"
        }
      ],
      "name": "TaskFunded",
      "type": "event"
    },
    {
      "anonymous": false,
      "inputs": [
        {
          "indexed": true,
          "internalType": "uint256",
          "name": "taskId",
          "type": "uint256"
        },
        {
          "indexed": true,
          "internalType": "uint256",
          "name": "listingId",
          "type": "uint256"
        },
        {
          "indexed": true,
          "internalType": "uint256",
          "name": "agentId",
          "type": "uint256"
        },
        {
          "indexed": false,
          "internalType": "address",
          "name": "buyer",
          "type": "address"
        },
        {
          "indexed": false,
          "internalType": "string",
          "name": "taskURI",
          "type": "string"
        },
        {
          "indexed": false,
          "internalType": "uint32",
          "name": "proposedUnits",
          "type": "uint32"
        }
      ],
      "name": "TaskPosted",
      "type": "event"
    },
    {
      "anonymous": false,
      "inputs": [
        {
          "indexed": true,
          "internalType": "uint256",
          "name": "taskId",
          "type": "uint256"
        },
        {
          "indexed": false,
          "internalType": "uint256",
          "name": "buyerPayout",
          "type": "uint256"
        },
        {
          "indexed": false,
          "internalType": "uint256",
          "name": "sellerBondRefund",
          "type": "uint256"
        }
      ],
      "name": "TaskSettled",
      "type": "event"
    },
    {
      "inputs": [
        {
          "internalType": "uint256",
          "name": "taskId",
          "type": "uint256"
        }
      ],
      "name": "acceptQuote",
      "outputs": [],
      "stateMutability": "nonpayable",
      "type": "function"
    },
    {
      "inputs": [
        {
          "internalType": "uint256",
          "name": "taskId",
          "type": "uint256"
        }
      ],
      "name": "acceptSubmission",
      "outputs": [],
      "stateMutability": "nonpayable",
      "type": "function"
    },
    {
      "inputs": [
        {
          "internalType": "uint256",
          "name": "taskId",
          "type": "uint256"
        }
      ],
      "name": "acceptTask",
      "outputs": [],
      "stateMutability": "nonpayable",
      "type": "function"
    },
    {
      "inputs": [
        {
          "internalType": "uint256",
          "name": "taskId",
          "type": "uint256"
        }
      ],
      "name": "cancelTask",
      "outputs": [],
      "stateMutability": "nonpayable",
      "type": "function"
    },
    {
      "inputs": [],
      "name": "disputeModule",
      "outputs": [
        {
          "internalType": "address",
          "name": "",
          "type": "address"
        }
      ],
      "stateMutability": "view",
      "type": "function"
    },
    {
      "inputs": [
        {
          "internalType": "uint256",
          "name": "taskId",
          "type": "uint256"
        },
        {
          "internalType": "string",
          "name": "disputeURI",
          "type": "string"
        }
      ],
      "name": "disputeSubmission",
      "outputs": [],
      "stateMutability": "nonpayable",
      "type": "function"
    },
    {
      "inputs": [
        {
          "internalType": "uint256",
          "name": "taskId",
          "type": "uint256"
        },
        {
          "internalType": "uint256",
          "name": "amount",
          "type": "uint256"
        }
      ],
      "name": "fundSellerBond",
      "outputs": [],
      "stateMutability": "nonpayable",
      "type": "function"
    },
    {
      "inputs": [
        {
          "internalType": "uint256",
          "name": "taskId",
          "type": "uint256"
        },
        {
          "internalType": "uint256",
          "name": "amount",
          "type": "uint256"
        }
      ],
      "name": "fundTask",
      "outputs": [],
      "stateMutability": "nonpayable",
      "type": "function"
    },
    {
      "inputs": [
        {
          "internalType": "uint256",
          "name": "taskId",
          "type": "uint256"
        }
      ],
      "name": "getTask",
      "outputs": [
        {
          "components": [
            {
              "internalType": "uint256",
              "name": "id",
              "type": "uint256"
            },
            {
              "internalType": "uint256",
              "name": "listingId",
              "type": "uint256"
            },
            {
              "internalType": "uint256",
              "name": "agentId",
              "type": "uint256"
            },
            {
              "internalType": "address",
              "name": "buyer",
              "type": "address"
            },
            {
              "internalType": "address",
              "name": "paymentToken",
              "type": "address"
            },
            {
              "internalType": "string",
              "name": "taskURI",
              "type": "string"
            },
            {
              "internalType": "uint32",
              "name": "proposedUnits",
              "type": "uint32"
            },
            {
              "internalType": "uint32",
              "name": "quotedUnits",
              "type": "uint32"
            },
            {
              "internalType": "uint256",
              "name": "quotedTotalPrice",
              "type": "uint256"
            },
            {
              "internalType": "uint64",
              "name": "quoteExpiry",
              "type": "uint64"
            },
            {
              "internalType": "uint256",
              "name": "fundedAmount",
              "type": "uint256"
            },
            {
              "internalType": "uint256",
              "name": "sellerBond",
              "type": "uint256"
            },
            {
              "internalType": "string",
              "name": "artifactURI",
              "type": "string"
            },
            {
              "internalType": "bytes32",
              "name": "artifactHash",
              "type": "bytes32"
            },
            {
              "internalType": "uint64",
              "name": "submittedAt",
              "type": "uint64"
            },
            {
              "internalType": "enum TaskMarket.TaskStatus",
              "name": "status",
              "type": "uint8"
            },
            {
              "internalType": "bool",
              "name": "settled",
              "type": "bool"
            }
          ],
          "internalType": "struct TaskMarket.Task",
          "name": "",
          "type": "tuple"
        }
      ],
      "stateMutability": "view",
      "type": "function"
    },
    {
      "inputs": [],
      "name": "identityRegistry",
      "outputs": [
        {
          "internalType": "contract IAgentIdentityRegistry",
          "name": "",
          "type": "address"
        }
      ],
      "stateMutability": "view",
      "type": "function"
    },
    {
      "inputs": [],
      "name": "listingRegistry",
      "outputs": [
        {
          "internalType": "contract IListingRegistry",
          "name": "",
          "type": "address"
        }
      ],
      "stateMutability": "view",
      "type": "function"
    },
    {
      "inputs": [
        {
          "internalType": "uint256",
          "name": "taskId",
          "type": "uint256"
        },
        {
          "internalType": "string",
          "name": "disputeURI",
          "type": "string"
        }
      ],
      "name": "markDisputed",
      "outputs": [],
      "stateMutability": "nonpayable",
      "type": "function"
    },
    {
      "inputs": [],
      "name": "owner",
      "outputs": [
        {
          "internalType": "address",
          "name": "",
          "type": "address"
        }
      ],
      "stateMutability": "view",
      "type": "function"
    },
    {
      "inputs": [
        {
          "internalType": "uint256",
          "name": "listingId",
          "type": "uint256"
        },
        {
          "internalType": "string",
          "name": "taskURI",
          "type": "string"
        },
        {
          "internalType": "uint32",
          "name": "proposedUnits",
          "type": "uint32"
        }
      ],
      "name": "postTask",
      "outputs": [
        {
          "internalType": "uint256",
          "name": "taskId",
          "type": "uint256"
        }
      ],
      "stateMutability": "nonpayable",
      "type": "function"
    },
    {
      "inputs": [
        {
          "internalType": "uint256",
          "name": "taskId",
          "type": "uint256"
        },
        {
          "internalType": "uint32",
          "name": "quotedUnits",
          "type": "uint32"
        },
        {
          "internalType": "uint256",
          "name": "quotedTotalPrice",
          "type": "uint256"
        },
        {
          "internalType": "uint64",
          "name": "expiry",
          "type": "uint64"
        }
      ],
      "name": "proposeQuote",
      "outputs": [],
      "stateMutability": "nonpayable",
      "type": "function"
    },
    {
      "inputs": [
        {
          "internalType": "uint256",
          "name": "taskId",
          "type": "uint256"
        },
        {
          "internalType": "enum TaskMarket.DisputeOutcome",
          "name": "outcome",
          "type": "uint8"
        },
        {
          "internalType": "string",
          "name": "",
          "type": "string"
        }
      ],
      "name": "resolveDispute",
      "outputs": [],
      "stateMutability": "nonpayable",
      "type": "function"
    },
    {
      "inputs": [
        {
          "internalType": "address",
          "name": "disputeModule_",
          "type": "address"
        }
      ],
      "name": "setDisputeModule",
      "outputs": [],
      "stateMutability": "nonpayable",
      "type": "function"
    },
    {
      "inputs": [
        {
          "internalType": "uint256",
          "name": "taskId",
          "type": "uint256"
        }
      ],
      "name": "settleAfterTimeout",
      "outputs": [],
      "stateMutability": "nonpayable",
      "type": "function"
    },
    {
      "inputs": [
        {
          "internalType": "uint256",
          "name": "taskId",
          "type": "uint256"
        },
        {
          "internalType": "string",
          "name": "artifactURI",
          "type": "string"
        },
        {
          "internalType": "bytes32",
          "name": "artifactHash",
          "type": "bytes32"
        }
      ],
      "name": "submitDeliverable",
      "outputs": [],
      "stateMutability": "nonpayable",
      "type": "function"
    }
  ],
  "bytecode": "0x60c0346200013557601f62002d5b38819003918201601f19168301916001600160401b038311848410176200013a57808492604094855283398101031262000135576200005a6020620000528362000150565b920162000150565b60016002556001600160a01b03918216801580156200012a575b620000e5576080521660a052600180546001600160a01b03191633179055604051612bf59081620001668239608051818181610429015281816114a80152818161185c01528181611fe0015281816121be01526128e7015260a051818181612134015281816126ee01526129970152f35b60405162461bcd60e51b815260206004820152601960248201527f5461736b4d61726b65743a207a65726f207265676973747279000000000000006044820152606490fd5b508282161562000074565b600080fd5b634e487b7160e01b600052604160045260246000fd5b51906001600160a01b0382168203620001355756fe6080604052600436101561001257600080fd5b6000803560e01c806309c1216214612163578063134e18f41461211e5780631bf6912d14611f795780631d65e77e14611c975780634d4780d814611a2e5780635d7ffe7b1461188b5780635ebf3e9b1461184657806365309ef014611447578063703bc777146111905780637eec20a814610f5a57806383562af014610f335780638da5cb5b14610f0a5780639a28569614610c80578063a36a3f0514610b57578063c316939c146106d5578063d15f10cc14610644578063d53dd2fe14610397578063f8895d03146102a15763fb46e448146100ee57600080fd5b3461029e576100fc36612317565b83549091906001600160a01b0390811690811561025a5761011c8561265f565b60ff600d82015460401c1660078110156102465760030361020157600301541633036101c3578492813b156101bf578361017a9560405196879586948593630dbda47160e21b8552600485015260406024850152604484019161263e565b03925af180156101b45761018c575080f35b6001600160401b0381116101a05760405280f35b634e487b7160e01b82526041600452602482fd5b6040513d84823e3d90fd5b8380fd5b60405162461bcd60e51b81526020600482015260166024820152755461736b4d61726b65743a206275796572206f6e6c7960501b6044820152606490fd5b60405162461bcd60e51b815260206004820152601960248201527f5461736b4d61726b65743a206e6f74207375626d6974746564000000000000006044820152606490fd5b634e487b7160e01b88526021600452602488fd5b606460405162461bcd60e51b815260206004820152602060248201527f5461736b4d61726b65743a2064697370757465206d6f64756c6520756e7365746044820152fd5b80fd5b503461029e576102b036612317565b83549091906001600160a01b0316330361035257600d6102cf8461265f565b019182549260ff8460401c16600781101561033e5760030361020157680400000000000000007fa31322732033276beb48899da1e6866e664256162867c5bb5543f89413bddd489460ff60401b191617905561033860405192839260208452602084019161263e565b0390a280f35b634e487b7160e01b87526021600452602487fd5b60405162461bcd60e51b815260206004820152601f60248201527f5461736b4d61726b65743a2064697370757465206d6f64756c65206f6e6c79006044820152606490fd5b503461029e57608036600319011261029e5760043560243563ffffffff80821680830361064057604435606435906001600160401b03821680920361063c576103df8661265f565b93600d85019060ff825460401c166007811015610628576105ec5761040760028701546126cb565b600186015460405163083d13a560e11b815260048101919091529089826024817f00000000000000000000000000000000000000000000000000000000000000006001600160a01b03165afa80156105e1578a928b916105b5575b5015610570578515918215610560575b8215610550575b505061050b576008856104cf7fcfac2d148a555a2bdaf0b0ca7587b6adbbac290bf1c04c4fdd916085368b9041986006606099019067ffffffff0000000082549160201b169067ffffffff000000001916179055565b83600782015501836001600160401b0319825416179055600160401b60ff60401b1982541617905560405192835260208301526040820152a280f35b60405162461bcd60e51b815260206004820152601960248201527f5461736b4d61726b65743a20696e76616c69642071756f7465000000000000006044820152606490fd5b60a0015116851190503880610479565b6080810151821687109250610472565b60405162461bcd60e51b815260206004820152601c60248201527f5461736b4d61726b65743a206c697374696e6720696e616374697665000000006044820152606490fd5b90506105d49192503d808c833e6105cc818361237c565b8101906123cf565b9493505090509138610462565b6040513d8c823e3d90fd5b60405162461bcd60e51b81526020600482015260146024820152732a30b9b5a6b0b935b2ba1d103737ba1037b832b760611b6044820152606490fd5b634e487b7160e01b8a52602160045260248afd5b8680fd5b8480fd5b503461029e57602036600319011261029e576004356106628161265f565b60ff600d82015460401c1660078110156106c1576003036102015760038101546001600160a01b031633036101c35761069a90612a14565b7fc06839bcad0f42098a40a244b05a3c106c986ea7d726b4ee618475b858eaefb98280a280f35b634e487b7160e01b84526021600452602484fd5b503461029e57606036600319011261029e57602480356004811015610b5357604480356001600160401b038111610640576107149036906004016122ea565b505083546001600160a01b039390841633036103525761073560043561265f565b91600d83019485549460ff8660401c166007811015610b4057600403610afd5780610ac257508687965b60ff8760481c16610a7f57600986015490818311610a2c57600a87015497888a116109db57896107ac856107c096956107ba9561010560401b6107b29661ffff60401b1916179055612a07565b99612a07565b988992612529565b96612529565b90856108f8575b81610804575b87877f06748d41c3bbc7ce6edfac1d0ee8396c063bb3cfa1a9df96375e07137a8170d660408989549382519182526020820152a280f35b6108559160209160048701541661081e600288015461297a565b60405163a9059cbb60e01b81526001600160a01b0390911660048201526024810192909252909283919082908b9082906044820190565b03925af19081156108ed5787916108b3575b50156108745780806107cd565b907815185cdad3585c9ad95d0e881c185e5bdd5d0819985a5b1959603a1b60649260196040519362461bcd60e51b855260206004860152840152820152fd5b90506020813d6020116108e5575b816108ce6020938361237c565b8101031261063c576108df906123c2565b38610867565b3d91506108c1565b6040513d89823e3d90fd5b600485810154600387015460405163a9059cbb60e01b81529084166001600160a01b0316928101929092526024820188905260209082908416818c816044810103925af19081156109d0578991610992575b506107c75760405162461bcd60e51b815260206004820152601f818601527f5461736b4d61726b65743a206275796572207061796f7574206661696c65640081850152606490fd5b90506020813d6020116109c8575b816109ad6020938361237c565b810103126109c4576109be906123c2565b3861094a565b8880fd5b3d91506109a0565b6040513d8b823e3d90fd5b60405162461bcd60e51b8152602060048201526025818901527f5461736b4d61726b65743a206275796572207061796f75742065786365656473818801526408189bdb9960da1b6064820152608490fd5b60405162461bcd60e51b8152602060048201526027818801527f5461736b4d61726b65743a206275796572207061796f75742065786365656473818701526620657363726f7760c81b6064820152608490fd5b60405162461bcd60e51b815260206004820152601b818701527f5461736b4d61726b65743a20616c726561647920736574746c6564000000000081860152606490fd5b60018103610adb57506009840154600a8501549661075f565b600203610af157600984015460011c879661075f565b6009840154879661075f565b60405162461bcd60e51b8152602060048201526018818601527f5461736b4d61726b65743a206e6f74206469737075746564000000000000000081850152606490fd5b634e487b7160e01b895260216004528489fd5b8280fd5b503461029e57602036600319011261029e576004356001600160a01b0381811691829003610b535780600154163303610c42578115610bfd578254908116610ba9576001600160a01b03191617815580f35b60405162461bcd60e51b815260206004820152602660248201527f5461736b4d61726b65743a2064697370757465206d6f64756c6520616c726561604482015265191e481cd95d60d21b6064820152608490fd5b60405162461bcd60e51b815260206004820152601f60248201527f5461736b4d61726b65743a207a65726f2064697370757465206d6f64756c65006044820152606490fd5b60405162461bcd60e51b81526020600482015260166024820152755461736b4d61726b65743a206f776e6572206f6e6c7960501b6044820152606490fd5b503461029e57610c8f366122cf565b610c988261265f565b60ff600d82015460401c166007811015610ef657600103610eb857610cc060028201546126cb565b610cc9816128c5565b8015610e7357600a8201908154610e2e578303610dea578290556004908101546040516323b872dd60e01b8152339281019290925230602483015260448201839052602092919083908290606490829089906001600160a01b03165af1908115610ddf578591610daa575b5015610d6757907f03e157917fabbe1d418840c96b6bcc52532d3126409c286c11a4b2713d5afc0291604051908152a280f35b6064826040519062461bcd60e51b825280600483015260248201527f5461736b4d61726b65743a20626f6e64207472616e73666572206661696c65646044820152fd5b90508281813d8311610dd8575b610dc1818361237c565b8101031261064057610dd2906123c2565b38610d34565b503d610db7565b6040513d87823e3d90fd5b606460405162461bcd60e51b815260206004820152602060248201527f5461736b4d61726b65743a20626f6e6420616d6f756e74206d69736d617463686044820152fd5b60405162461bcd60e51b815260206004820152601f60248201527f5461736b4d61726b65743a20626f6e6420616c72656164792066756e646564006044820152606490fd5b60405162461bcd60e51b815260206004820152601960248201527f5461736b4d61726b65743a20626f6e642064697361626c6564000000000000006044820152606490fd5b60405162461bcd60e51b815260206004820152601660248201527515185cdad3585c9ad95d0e881b9bdd081c5d5bdd195960521b6044820152606490fd5b634e487b7160e01b85526021600452602485fd5b503461029e578060031936011261029e576001546040516001600160a01b039091168152602090f35b503461029e578060031936011261029e57546040516001600160a01b039091168152602090f35b503461029e5760208060031936011261118c5760043590610f7a8261265f565b60038101546001600160a01b0390811633036101c357600d8201805460ff8160401c166007811015610246578015159081611180575b5061113b5760098401546111015760ff60401b191668060000000000000000179055600a8201805490928682611009575b867fc6eacc3aa5b2aa77b5a826b832a804ca0b71830ec74f9aa57a15edd978c31ed68280a280f35b600286946110249261105b975560048401541692015461297a565b60405163a9059cbb60e01b81526001600160a01b039091166004820152602481019290925290928391908290889082906044820190565b03925af19081156110f65784916110c1575b501561107d578080808086610fe1565b6064906040519062461bcd60e51b82526004820152601e60248201527f5461736b4d61726b65743a20626f6e6420726566756e64206661696c656400006044820152fd5b90508181813d83116110ef575b6110d8818361237c565b810103126101bf576110e9906123c2565b3861106d565b503d6110ce565b6040513d86823e3d90fd5b60405162461bcd60e51b815260048101869052601260248201527115185cdad3585c9ad95d0e88199d5b99195960721b6044820152606490fd5b60405162461bcd60e51b815260048101869052601960248201527f5461736b4d61726b65743a2063616e6e6f742063616e63656c000000000000006044820152606490fd5b60019150141538610fb0565b5080fd5b503461029e57606036600319011261029e576004356001600160401b036024358181116101bf576111c59036906004016122ea565b9091604435906111d48561265f565b90600d82019160ff835460401c166007811015611433576002036113f5576111ff60028201546126cb565b6009810154156113b757600b81018286116113a35761121e815461255f565b601f811161135e575b508889601f88116001146112c657600360401b9387969593897f54e44868bdd954b3adcac5c4db169a94e6e0dbbf6db6a6f839f4907ffe70e20c9b9a9994600c94916112bb575b508960011b906000198b60031b1c19161790555b0155421668ffffffffffffffffff19835416171790556112af60405193849360408552604085019161263e565b9060208301520390a280f35b90508a01353861126e565b50818a526020808b209190601f198916908c905b8282106113465750509387969593899893600c937f54e44868bdd954b3adcac5c4db169a94e6e0dbbf6db6a6f839f4907ffe70e20c9c9b600360401b981061132c575b5050600189811b019055611282565b8b013560001960038c901b60f8161c19169055388061131d565b80600185968294968f013581550195019301906112da565b818a5260208a20601f880160051c81019160208910611399575b601f0160051c01905b81811061138e5750611227565b8a8155600101611381565b9091508190611378565b634e487b7160e01b89526041600452602489fd5b60405162461bcd60e51b815260206004820152601660248201527515185cdad3585c9ad95d0e881b9bdd08199d5b99195960521b6044820152606490fd5b60405162461bcd60e51b81526020600482015260166024820152755461736b4d61726b65743a206e6f742061637469766560501b6044820152606490fd5b634e487b7160e01b89526021600452602489fd5b503461029e57606036600319011261029e576024356001600160401b03811161118c576114789036906004016122ea565b9060443563ffffffff9283821682036106405760405163083d13a560e11b815260048035908201529385856024817f00000000000000000000000000000000000000000000000000000000000000006001600160a01b03165afa93841561183b57869487968891611814575b50156105705781608087015116828516108015611803575b6117be5785516001600160a01b03161561176e5760025495600019871461175a576001870160025586885260036020526040882090878255600435600183015586600283015560038201906bffffffffffffffffffffffff60a01b91338382541617905560018060a01b0390511660048301918254161790556001600160401b03841161174657611590600582015461255f565b601f81116116fe575b50918793918793602099601f85116001146116655786600d6116439493876040947f8d3a30e3561852057fd443ed411e87bb28f1060b9362a8bbc54c3473226fc04a9a9b9161165a575b508860011b906000198a60031b1c19161760058201555b60068101878c1663ffffffff198254161790550160ff60401b19815416905587815260048c5220600160ff198254161790556040519333855260608b860152606085019161263e565b9416604082015280600435940390a4604051908152f35b9050850135386115e3565b95906005810182528a8220825b601f19871681106116e4575091600d60409261164395947f8d3a30e3561852057fd443ed411e87bb28f1060b9362a8bbc54c3473226fc04a999a89601f198116106116ca575b5050600188811b0160058201556115fa565b86013560001960038b901b60f8161c1916905538806116b8565b848901358255978c01978b97506001909101908c01611672565b60058201895260208920601f860160051c8101916020871061173c575b601f0160051c01905b8181106117315750611599565b898155600101611724565b909150819061171b565b634e487b7160e01b88526041600452602488fd5b634e487b7160e01b88526011600452602488fd5b60405162461bcd60e51b815260206004820152602260248201527f5461736b4d61726b65743a207061796d656e7420746f6b656e20726571756972604482015261195960f21b6064820152608490fd5b60405162461bcd60e51b815260206004820152601e60248201527f5461736b4d61726b65743a20756e697473206f7574206f662072616e676500006044820152606490fd5b508160a087015116828516116114fc565b9195505061182d9195503d8088833e6105cc818361237c565b9197939692503890506114e4565b6040513d88823e3d90fd5b503461029e578060031936011261029e576040517f00000000000000000000000000000000000000000000000000000000000000006001600160a01b03168152602090f35b503461029e57602036600319011261029e576004356118a98161265f565b600d81019081549060ff8260401c166007811015611a1a57600103610eb85760038101546001600160a01b031633036101c3576001600160401b036008820154168015159081611a10575b506119cb57600981015480159081156119bc575b506113b757611916816128c5565b151590816119a4575b5061195f5760ff60401b1916680200000000000000001790557fcb5dabd033280bd65c614e3d9f2642181eb14366a70c3a04aab8bfb09696dbcf8280a280f35b60405162461bcd60e51b815260206004820152601b60248201527f5461736b4d61726b65743a20626f6e64206e6f742066756e64656400000000006044820152606490fd5b90506119b4600a820154916128c5565b14153861191f565b90506007820154141538611908565b60405162461bcd60e51b815260206004820152601960248201527f5461736b4d61726b65743a2071756f74652065787069726564000000000000006044820152606490fd5b90504211386118f4565b634e487b7160e01b86526021600452602486fd5b503461029e57611a3d366122cf565b611a468261265f565b60038101546001600160a01b039190821633036101c35760ff600d82015460401c166007811015611a1a57600103610eb8578215611c525760098101908154611c0d5760078101548015908115611c02575b50611bbd576001600160401b036008820154168015159081611bb3575b506119cb57908390556004908101546040516323b872dd60e01b8152339281019290925230602483015260448201849052602093928491839160649183918a91165af1908115610ddf578591611b7e575b5015611b3957907f9173a7ae2321b61f50303df6b321c38912ca2a1079fc80645cf01202be566c7691604051908152a280f35b60405162461bcd60e51b815260048101839052601b60248201527f5461736b4d61726b65743a207472616e73666572206661696c656400000000006044820152606490fd5b90508281813d8311611bac575b611b95818361237c565b8101031261064057611ba6906123c2565b38611b06565b503d611b8b565b9050421138611ab5565b60405162461bcd60e51b815260206004820152601b60248201527f5461736b4d61726b65743a20616d6f756e74206d69736d6174636800000000006044820152606490fd5b905084141538611a98565b60405162461bcd60e51b815260206004820152601a60248201527f5461736b4d61726b65743a20616c72656164792066756e6465640000000000006044820152606490fd5b60405162461bcd60e51b815260206004820152601760248201527f5461736b4d61726b65743a20616d6f756e74207a65726f0000000000000000006044820152606490fd5b503461029e57602036600319011261029e5780610200604051611cb98161234a565b828152826020820152826040820152826060820152826080820152606060a08201528260c08201528260e0820152826101008201528261012082015282610140820152826101608201526060610180820152826101a0820152826101c0820152826101e08201520152611d2d60043561265f565b90600d60405192611d3d8461234a565b80548452600181015460208501526002810154604085015260038101546001600160a01b0390811660608601526004820154166080850152611d8160058201612599565b60a085015263ffffffff600682015481811660c087015260201c1660e085015260078101546101008501526001600160401b036008820154166101208501526009810154610140850152600a810154610160850152611de2600b8201612599565b610180850152600c8101546101a085015201546001600160401b0381166101c0840152600760ff8260401c161015611f65578060ff809260401c166101e085015260481c161515610200830152604051906020825282516020830152602083015160408301526040830151606083015260018060a01b03606084015116608083015260018060a01b0360808401511660a0830152611f06611e9460a085015161022060c08601526102408501906122aa565b63ffffffff60c08601511660e085015263ffffffff60e0860151166101008501526101008501516101208501526001600160401b0361012086015116610140850152610140850151610160850152610160850151610180850152610180850151601f19858303016101a08601526122aa565b906101a08401516101c08401526001600160401b036101c0850151166101e08401526101e0840151906007821015611f51575082936102009182850152015115156102208301520390f35b634e487b7160e01b81526021600452602490fd5b634e487b7160e01b82526021600452602482fd5b503461029e57602036600319011261029e57600435611f978161265f565b600d81019060ff825460401c166007811015610ef6576105ec57611fbe60028201546126cb565b600181015460405163083d13a560e11b815260048101919091529084826024817f00000000000000000000000000000000000000000000000000000000000000006001600160a01b03165afa8015610ddf57859286916120fa575b50156105705760c08201516120b55760079061207b6020840151936120586006840195612052606063ffffffff8954169401518461254c565b90612529565b949067ffffffff0000000082549160201b169067ffffffff000000001916179055565b0155805460ff60401b1916600160401b1790557fb151e78b903fc62654c96f6bd667fc1b7a3230cc2345b2fc441ad60a885e032a8280a280f35b60405162461bcd60e51b815260206004820152601a60248201527f5461736b4d61726b65743a2071756f74652072657175697265640000000000006044820152606490fd5b90506121119192503d8087833e6105cc818361237c565b9493505090509138612019565b503461029e578060031936011261029e576040517f00000000000000000000000000000000000000000000000000000000000000006001600160a01b03168152602090f35b503461029e57602036600319011261029e5761218060043561265f565b600d81015460ff8160401c1660078110156106c15760030361020157600182015460405163083d13a560e11b815260048101919091529083826024817f00000000000000000000000000000000000000000000000000000000000000006001600160a01b03165afa80156110f65763ffffffff6001600160401b0391612211948791612268575b5051169116612529565b42106122235761222090612a14565b80f35b60405162461bcd60e51b815260206004820152601c60248201527f5461736b4d61726b65743a206368616c6c656e67652077696e646f77000000006044820152606490fd5b61227c91503d8089833e6105cc818361237c565b509250505038612207565b60005b83811061229a5750506000910152565b818101518382015260200161228a565b906020916122c381518092818552858086019101612287565b601f01601f1916010190565b60409060031901126122e5576004359060243590565b600080fd5b9181601f840112156122e5578235916001600160401b0383116122e557602083818601950101116122e557565b9060406003198301126122e55760043591602435906001600160401b0382116122e557612346916004016122ea565b9091565b61022081019081106001600160401b0382111761236657604052565b634e487b7160e01b600052604160045260246000fd5b90601f801991011681019081106001600160401b0382111761236657604052565b51906001600160a01b03821682036122e557565b519063ffffffff821682036122e557565b519081151582036122e557565b808203906101a082126122e55780519360209384830151906001600160401b03918281116122e55784019080601f830112156122e557815191838311612366576040928351926124288a601f19601f850116018561237c565b8184528982840101116122e55761244491898085019101612287565b9560e0603f198701126122e557815160e08101908082108583111761236657606091845261247384880161239d565b8152818701518382015260808701518482015260a08701518282015261249b60c088016123b1565b60808201526124ac60e088016123b1565b60a08201526124be61010088016123c2565b60c08201529661011f1901126122e55781519260608401908111848210176123665782526124ef61012086016123b1565b83526124fe61014086016123b1565b908301526101608401519161ffff831683036122e557612526926101809282015293016123c2565b90565b9190820180921161253657565b634e487b7160e01b600052601160045260246000fd5b8181029291811591840414171561253657565b90600182811c9216801561258f575b602083101461257957565b634e487b7160e01b600052602260045260246000fd5b91607f169161256e565b906040519182600082546125ac8161255f565b9081845260209460019160018116908160001461261c57506001146125dd575b5050506125db9250038361237c565b565b600090815285812095935091905b8183106126045750506125db93508201013880806125cc565b855488840185015294850194879450918301916125eb565b925050506125db94925060ff191682840152151560051b8201013880806125cc565b908060209392818452848401376000828201840152601f01601f1916010190565b80600052600460205260ff6040600020541615612686576000526003602052604060002090565b60405162461bcd60e51b815260206004820152601a60248201527f5461736b4d61726b65743a207461736b206e6f7420666f756e640000000000006044820152606490fd5b604080516331a9108f60e11b815260048101839052602092906001600160a01b037f00000000000000000000000000000000000000000000000000000000000000008116918581602481865afa908115612881578691839160009161288c575b50169384331415948561280c575b508461278f575b5050505061274c575050565b60649250519062461bcd60e51b82526004820152601a60248201527f5461736b4d61726b65743a206e6f7420617574686f72697a65640000000000006044820152fd5b9091929350602485518095819363020604bf60e21b835260048301525afa918215612801576000926127ca575b501633141538808481612740565b9091508381813d83116127fa575b6127e2818361237c565b810103126122e5576127f39061239d565b90386127bc565b503d6127d8565b83513d6000823e3d90fd5b9150935084519063e985e9c560e01b825260048201523360248201528581604481865afa9081156128815790869160009161284b575b50159338612739565b82819392503d831161287a575b612862818361237c565b810103126122e55761287486916123c2565b38612842565b503d612858565b85513d6000823e3d90fd5b928092508391503d83116128be575b6128a5818361237c565b810103126122e557816128b8879261239d565b3861272b565b503d61289b565b600181015460405163083d13a560e11b815260048101919091526000816024817f00000000000000000000000000000000000000000000000000000000000000006001600160a01b03165afa90811561296e5761ffff9160409160009161294e575b500151169081156129475761271091600761294392015461254c565b0490565b5050600090565b61296391503d806000833e6105cc818361237c565b509250505038612927565b6040513d6000823e3d90fd5b6040516331a9108f60e11b815260048101919091526020816024817f00000000000000000000000000000000000000000000000000000000000000006001600160a01b03165afa90811561296e576000916129d3575090565b90506020813d6020116129ff575b816129ee6020938361237c565b810103126122e5576125269061239d565b3d91506129e1565b9190820391821161253657565b600d8101805460ff8160481c16612b7a5761010560401b9061ffff60401b1916179055600981015490612a4c600a8201548093612529565b80612a88575b5060407f06748d41c3bbc7ce6edfac1d0ee8396c063bb3cfa1a9df96375e07137a8170d6915492815190600082526020820152a2565b6020612ae09160018060a01b03600485015416612aa8600286015461297a565b60405163a9059cbb60e01b81526001600160a01b03909116600482015260248101929092529092839190829060009082906044820190565b03925af190811561296e57600091612b40575b5015612aff5738612a52565b60405162461bcd60e51b815260206004820152601960248201527815185cdad3585c9ad95d0e881c185e5bdd5d0819985a5b1959603a1b6044820152606490fd5b90506020813d602011612b72575b81612b5b6020938361237c565b810103126122e557612b6c906123c2565b38612af3565b3d9150612b4e565b60405162461bcd60e51b815260206004820152601b60248201527f5461736b4d61726b65743a20616c726561647920736574746c656400000000006044820152606490fdfea2646970667358221220f6fd88418494686cb7dd753c0fe8a38c99d984c28361d6101636ac75941098ac64736f6c63430008180033",
  "linkReferences": {},
  "deployedLinkReferences": {}
}